{
  "contractName": "Byteshelper",
  "abi": [
    {
      "inputs": [
        {
          "internalType": "bytes32",
          "name": "_bytes32",
          "type": "bytes32"
        }
      ],
      "name": "bytes32ToString",
      "outputs": [
        {
          "internalType": "string",
          "name": "",
          "type": "string"
        }
      ],
      "stateMutability": "pure",
      "type": "function"
    }
  ],
  "bytecode": "0x610422610053600b82828239805160001a607314610046577f4e487b7100000000000000000000000000000000000000000000000000000000600052600060045260246000fd5b30600052607381538281f3fe73000000000000000000000000000000000000000030146080604052600436106100355760003560e01c80639201de551461003a575b600080fd5b610054600480360381019061004f9190610240565b61006a565b6040516100619190610306565b60405180910390f35b606060005b60208160ff161080156100c15750600060f81b838260ff166020811061009857610097610328565b5b1a60f81b7effffffffffffffffffffffffffffffffffffffffffffffffffffffffffffff191614155b156100d95780806100d190610393565b91505061006f565b60008160ff1667ffffffffffffffff8111156100f8576100f76103bd565b5b6040519080825280601f01601f19166020018201604052801561012a5781602001600182028036833780820191505090505b509050600091505b60208260ff161080156101845750600060f81b848360ff166020811061015b5761015a610328565b5b1a60f81b7effffffffffffffffffffffffffffffffffffffffffffffffffffffffffffff191614155b156101fb57838260ff166020811061019f5761019e610328565b5b1a60f81b818360ff16815181106101b9576101b8610328565b5b60200101907effffffffffffffffffffffffffffffffffffffffffffffffffffffffffffff1916908160001a90535081806101f390610393565b925050610132565b8092505050919050565b600080fd5b6000819050919050565b61021d8161020a565b811461022857600080fd5b50565b60008135905061023a81610214565b92915050565b60006020828403121561025657610255610205565b5b60006102648482850161022b565b91505092915050565b600081519050919050565b600082825260208201905092915050565b60005b838110156102a757808201518184015260208101905061028c565b838111156102b6576000848401525b50505050565b6000601f19601f8301169050919050565b60006102d88261026d565b6102e28185610278565b93506102f2818560208601610289565b6102fb816102bc565b840191505092915050565b6000602082019050818103600083015261032081846102cd565b905092915050565b7f4e487b7100000000000000000000000000000000000000000000000000000000600052603260045260246000fd5b7f4e487b7100000000000000000000000000000000000000000000000000000000600052601160045260246000fd5b600060ff82169050919050565b600061039e82610386565b915060ff8214156103b2576103b1610357565b5b600182019050919050565b7f4e487b7100000000000000000000000000000000000000000000000000000000600052604160045260246000fdfea2646970667358221220edd392bd997fc06859ea37d9c6a16acbe3c345290f1e1bd8a5b47def3b12038d64736f6c634300080c0033",
  "immutableReferences": {},
  "source": "// SPDX-License-Identifier: UNLICENSED\r\npragma solidity >= 0.8 .0;\r\n\r\nlibrary Byteshelper {\r\n    function bytes32ToString(bytes32 _bytes32) public pure returns(string memory) {\r\n        uint8 i = 0;\r\n        while (i < 32 && _bytes32[i] != 0) {\r\n            i++;\r\n        }\r\n        bytes memory bytesArray = new bytes(i);\r\n        for (i = 0; i < 32 && _bytes32[i] != 0; i++) {\r\n            bytesArray[i] = _bytes32[i];\r\n        }\r\n        return string(bytesArray);\r\n    }\r\n}",
  "sourcePath": "C:\\Project\\simpleshop\\contracts\\helper\\Byteshelper.sol",
  "compiler": {
    "name": "solc",
    "version": "0.8.12+commit.f00d7308.Emscripten.clang"
  },
  "schemaVersion": "3.4.6",
  "updatedAt": "2022-04-10T12:49:23.301Z",
  "devdoc": {
    "kind": "dev",
    "methods": {},
    "version": 1
  },
  "userdoc": {
    "kind": "user",
    "methods": {},
    "version": 1
  }
}