{
  "contractName": "Deal",
  "abi": [
    {
      "anonymous": false,
      "inputs": [
        {
          "indexed": true,
          "internalType": "address",
          "name": "from",
          "type": "address"
        },
        {
          "indexed": false,
          "internalType": "address",
          "name": "to",
          "type": "address"
        },
        {
          "indexed": false,
          "internalType": "uint256",
          "name": "value",
          "type": "uint256"
        },
        {
          "indexed": false,
          "internalType": "string",
          "name": "log",
          "type": "string"
        }
      ],
      "name": "buyLog",
      "type": "event"
    },
    {
      "anonymous": false,
      "inputs": [
        {
          "indexed": true,
          "internalType": "address",
          "name": "",
          "type": "address"
        },
        {
          "components": [
            {
              "internalType": "string",
              "name": "itemNo",
              "type": "string"
            },
            {
              "internalType": "string",
              "name": "name",
              "type": "string"
            },
            {
              "internalType": "uint256",
              "name": "price",
              "type": "uint256"
            },
            {
              "internalType": "string",
              "name": "pic",
              "type": "string"
            },
            {
              "internalType": "enum Item.itemStatus",
              "name": "status",
              "type": "uint8"
            },
            {
              "internalType": "uint256",
              "name": "itemsArraySeq",
              "type": "uint256"
            },
            {
              "internalType": "uint256",
              "name": "myItemsMapSeq",
              "type": "uint256"
            },
            {
              "internalType": "bool",
              "name": "isLocked",
              "type": "bool"
            }
          ],
          "indexed": false,
          "internalType": "struct Item.itemInfo",
          "name": "",
          "type": "tuple"
        }
      ],
      "name": "createItemEvent",
      "type": "event"
    },
    {
      "anonymous": false,
      "inputs": [
        {
          "indexed": true,
          "internalType": "address",
          "name": "",
          "type": "address"
        },
        {
          "components": [
            {
              "internalType": "string",
              "name": "itemNo",
              "type": "string"
            },
            {
              "internalType": "string",
              "name": "name",
              "type": "string"
            },
            {
              "internalType": "uint256",
              "name": "price",
              "type": "uint256"
            },
            {
              "internalType": "string",
              "name": "pic",
              "type": "string"
            },
            {
              "internalType": "enum Item.itemStatus",
              "name": "status",
              "type": "uint8"
            },
            {
              "internalType": "uint256",
              "name": "itemsArraySeq",
              "type": "uint256"
            },
            {
              "internalType": "uint256",
              "name": "myItemsMapSeq",
              "type": "uint256"
            },
            {
              "internalType": "bool",
              "name": "isLocked",
              "type": "bool"
            }
          ],
          "indexed": false,
          "internalType": "struct Item.itemInfo",
          "name": "",
          "type": "tuple"
        }
      ],
      "name": "modifyItemEvent",
      "type": "event"
    },
    {
      "anonymous": false,
      "inputs": [
        {
          "indexed": true,
          "internalType": "address",
          "name": "from",
          "type": "address"
        },
        {
          "indexed": false,
          "internalType": "address",
          "name": "to",
          "type": "address"
        },
        {
          "indexed": false,
          "internalType": "uint256",
          "name": "value",
          "type": "uint256"
        },
        {
          "indexed": false,
          "internalType": "bool",
          "name": "isSuccess",
          "type": "bool"
        },
        {
          "indexed": false,
          "internalType": "string",
          "name": "log",
          "type": "string"
        }
      ],
      "name": "transferLog",
      "type": "event"
    },
    {
      "inputs": [],
      "name": "chkBalance",
      "outputs": [
        {
          "internalType": "uint256",
          "name": "",
          "type": "uint256"
        }
      ],
      "stateMutability": "view",
      "type": "function",
      "constant": true
    },
    {
      "inputs": [],
      "name": "contribute",
      "outputs": [],
      "stateMutability": "payable",
      "type": "function",
      "payable": true
    },
    {
      "inputs": [
        {
          "components": [
            {
              "internalType": "string",
              "name": "itemNo",
              "type": "string"
            },
            {
              "internalType": "string",
              "name": "name",
              "type": "string"
            },
            {
              "internalType": "uint256",
              "name": "price",
              "type": "uint256"
            },
            {
              "internalType": "string",
              "name": "pic",
              "type": "string"
            },
            {
              "internalType": "enum Item.itemStatus",
              "name": "status",
              "type": "uint8"
            },
            {
              "internalType": "uint256",
              "name": "itemsArraySeq",
              "type": "uint256"
            },
            {
              "internalType": "uint256",
              "name": "myItemsMapSeq",
              "type": "uint256"
            },
            {
              "internalType": "bool",
              "name": "isLocked",
              "type": "bool"
            }
          ],
          "internalType": "struct Item.itemInfo",
          "name": "item",
          "type": "tuple"
        }
      ],
      "name": "createItem",
      "outputs": [],
      "stateMutability": "nonpayable",
      "type": "function"
    },
    {
      "inputs": [
        {
          "components": [
            {
              "internalType": "string",
              "name": "itemNo",
              "type": "string"
            },
            {
              "internalType": "string",
              "name": "name",
              "type": "string"
            },
            {
              "internalType": "uint256",
              "name": "price",
              "type": "uint256"
            },
            {
              "internalType": "string",
              "name": "pic",
              "type": "string"
            },
            {
              "internalType": "enum Item.itemStatus",
              "name": "status",
              "type": "uint8"
            },
            {
              "internalType": "uint256",
              "name": "itemsArraySeq",
              "type": "uint256"
            },
            {
              "internalType": "uint256",
              "name": "myItemsMapSeq",
              "type": "uint256"
            },
            {
              "internalType": "bool",
              "name": "isLocked",
              "type": "bool"
            }
          ],
          "internalType": "struct Item.itemInfo",
          "name": "item",
          "type": "tuple"
        }
      ],
      "name": "deleteItem",
      "outputs": [],
      "stateMutability": "nonpayable",
      "type": "function"
    },
    {
      "inputs": [],
      "name": "getAllItems",
      "outputs": [
        {
          "components": [
            {
              "internalType": "string",
              "name": "itemNo",
              "type": "string"
            },
            {
              "internalType": "string",
              "name": "name",
              "type": "string"
            },
            {
              "internalType": "uint256",
              "name": "price",
              "type": "uint256"
            },
            {
              "internalType": "string",
              "name": "pic",
              "type": "string"
            },
            {
              "internalType": "enum Item.itemStatus",
              "name": "status",
              "type": "uint8"
            },
            {
              "internalType": "uint256",
              "name": "itemsArraySeq",
              "type": "uint256"
            },
            {
              "internalType": "uint256",
              "name": "myItemsMapSeq",
              "type": "uint256"
            },
            {
              "internalType": "bool",
              "name": "isLocked",
              "type": "bool"
            }
          ],
          "internalType": "struct Item.itemInfo[]",
          "name": "",
          "type": "tuple[]"
        }
      ],
      "stateMutability": "view",
      "type": "function",
      "constant": true
    },
    {
      "inputs": [
        {
          "internalType": "string",
          "name": "itemNo",
          "type": "string"
        }
      ],
      "name": "getItemOwner",
      "outputs": [
        {
          "internalType": "address",
          "name": "",
          "type": "address"
        }
      ],
      "stateMutability": "view",
      "type": "function",
      "constant": true
    },
    {
      "inputs": [],
      "name": "getMyItems",
      "outputs": [
        {
          "components": [
            {
              "internalType": "string",
              "name": "itemNo",
              "type": "string"
            },
            {
              "internalType": "string",
              "name": "name",
              "type": "string"
            },
            {
              "internalType": "uint256",
              "name": "price",
              "type": "uint256"
            },
            {
              "internalType": "string",
              "name": "pic",
              "type": "string"
            },
            {
              "internalType": "enum Item.itemStatus",
              "name": "status",
              "type": "uint8"
            },
            {
              "internalType": "uint256",
              "name": "itemsArraySeq",
              "type": "uint256"
            },
            {
              "internalType": "uint256",
              "name": "myItemsMapSeq",
              "type": "uint256"
            },
            {
              "internalType": "bool",
              "name": "isLocked",
              "type": "bool"
            }
          ],
          "internalType": "struct Item.itemInfo[]",
          "name": "",
          "type": "tuple[]"
        }
      ],
      "stateMutability": "view",
      "type": "function",
      "constant": true
    },
    {
      "inputs": [
        {
          "internalType": "string",
          "name": "itemNo",
          "type": "string"
        }
      ],
      "name": "getOneItem",
      "outputs": [
        {
          "components": [
            {
              "internalType": "string",
              "name": "itemNo",
              "type": "string"
            },
            {
              "internalType": "string",
              "name": "name",
              "type": "string"
            },
            {
              "internalType": "uint256",
              "name": "price",
              "type": "uint256"
            },
            {
              "internalType": "string",
              "name": "pic",
              "type": "string"
            },
            {
              "internalType": "enum Item.itemStatus",
              "name": "status",
              "type": "uint8"
            },
            {
              "internalType": "uint256",
              "name": "itemsArraySeq",
              "type": "uint256"
            },
            {
              "internalType": "uint256",
              "name": "myItemsMapSeq",
              "type": "uint256"
            },
            {
              "internalType": "bool",
              "name": "isLocked",
              "type": "bool"
            }
          ],
          "internalType": "struct Item.itemInfo",
          "name": "",
          "type": "tuple"
        }
      ],
      "stateMutability": "view",
      "type": "function",
      "constant": true
    },
    {
      "inputs": [],
      "name": "owner",
      "outputs": [
        {
          "internalType": "address",
          "name": "",
          "type": "address"
        }
      ],
      "stateMutability": "view",
      "type": "function",
      "constant": true
    },
    {
      "inputs": [
        {
          "internalType": "uint256",
          "name": "fee",
          "type": "uint256"
        }
      ],
      "name": "setTransactionFee",
      "outputs": [],
      "stateMutability": "nonpayable",
      "type": "function"
    },
    {
      "inputs": [],
      "name": "transctionFee",
      "outputs": [
        {
          "internalType": "uint256",
          "name": "",
          "type": "uint256"
        }
      ],
      "stateMutability": "view",
      "type": "function",
      "constant": true
    },
    {
      "inputs": [
        {
          "components": [
            {
              "internalType": "string",
              "name": "itemNo",
              "type": "string"
            },
            {
              "internalType": "string",
              "name": "name",
              "type": "string"
            },
            {
              "internalType": "uint256",
              "name": "price",
              "type": "uint256"
            },
            {
              "internalType": "string",
              "name": "pic",
              "type": "string"
            },
            {
              "internalType": "enum Item.itemStatus",
              "name": "status",
              "type": "uint8"
            },
            {
              "internalType": "uint256",
              "name": "itemsArraySeq",
              "type": "uint256"
            },
            {
              "internalType": "uint256",
              "name": "myItemsMapSeq",
              "type": "uint256"
            },
            {
              "internalType": "bool",
              "name": "isLocked",
              "type": "bool"
            }
          ],
          "internalType": "struct Item.itemInfo",
          "name": "item",
          "type": "tuple"
        }
      ],
      "name": "updateItem",
      "outputs": [],
      "stateMutability": "nonpayable",
      "type": "function"
    },
    {
      "inputs": [],
      "name": "withdraw",
      "outputs": [],
      "stateMutability": "payable",
      "type": "function",
      "payable": true
    },
    {
      "inputs": [],
      "name": "hello",
      "outputs": [
        {
          "internalType": "string",
          "name": "returnStr",
          "type": "string"
        }
      ],
      "stateMutability": "pure",
      "type": "function",
      "constant": true
    },
    {
      "inputs": [
        {
          "internalType": "string",
          "name": "itemNo",
          "type": "string"
        }
      ],
      "name": "buy",
      "outputs": [],
      "stateMutability": "payable",
      "type": "function",
      "payable": true
    },
    {
      "inputs": [
        {
          "internalType": "address payable",
          "name": "_to",
          "type": "address"
        },
        {
          "internalType": "uint256",
          "name": "price",
          "type": "uint256"
        }
      ],
      "name": "transfer",
      "outputs": [
        {
          "internalType": "bool",
          "name": "isSuccess",
          "type": "bool"
        },
        {
          "internalType": "bytes",
          "name": "data",
          "type": "bytes"
        }
      ],
      "stateMutability": "payable",
      "type": "function",
      "payable": true
    }
  ],
  "bytecode": "0x608060405234801561001057600080fd5b5033600460006101000a81548173ffffffffffffffffffffffffffffffffffffffff021916908373ffffffffffffffffffffffffffffffffffffffff160217905550614f21806100616000396000f3fe6080604052600436106100f35760003560e01c80638da5cb5b1161008a578063d7bb99ba11610059578063d7bb99ba146102dc578063d9dcef6e146102e6578063df49cb1914610311578063fa7a3bb51461034e576100f3565b80638da5cb5b1461022c578063a9059cbb14610257578063c5fb207d14610288578063c8c8670e146102b3576100f3565b8063492cc769116100c6578063492cc769146101935780634ba1d6aa146101af57806370718e16146101da5780637ee4237714610203576100f3565b8063096a8ab7146100f85780630e86773b1461012157806319ff1d211461015e5780633ccfd60b14610189575b600080fd5b34801561010457600080fd5b5061011f600480360381019061011a9190613944565b610379565b005b34801561012d57600080fd5b50610148600480360381019061014391906139d6565b610413565b6040516101559190613c1b565b60405180910390f35b34801561016a57600080fd5b50610173610679565b6040516101809190613c87565b60405180910390f35b6101916106b6565b005b6101ad60048036038101906101a891906139d6565b610817565b005b3480156101bb57600080fd5b506101c4610837565b6040516101d19190613e29565b60405180910390f35b3480156101e657600080fd5b5061020160048036038101906101fc91906140f4565b610ac1565b005b34801561020f57600080fd5b5061022a600480360381019061022591906140f4565b611270565b005b34801561023857600080fd5b50610241611d2b565b60405161024e919061417e565b60405180910390f35b610271600480360381019061026c91906141d7565b611d51565b60405161027f92919061427b565b60405180910390f35b34801561029457600080fd5b5061029d611eb0565b6040516102aa9190613e29565b60405180910390f35b3480156102bf57600080fd5b506102da60048036038101906102d591906140f4565b612177565b005b6102e4612c60565b005b3480156102f257600080fd5b506102fb612cb8565b60405161030891906142ba565b60405180910390f35b34801561031d57600080fd5b50610338600480360381019061033391906139d6565b612d50565b604051610345919061417e565b60405180910390f35b34801561035a57600080fd5b50610363612d9b565b60405161037091906142ba565b60405180910390f35b3373ffffffffffffffffffffffffffffffffffffffff16600460009054906101000a900473ffffffffffffffffffffffffffffffffffffffff1673ffffffffffffffffffffffffffffffffffffffff1614610409576040517f08c379a000000000000000000000000000000000000000000000000000000000815260040161040090614321565b60405180910390fd5b8060058190555050565b61041b6137fe565b6001838360405161042d929190614371565b908152602001604051809103902060405180610100016040529081600082018054610457906143b9565b80601f0160208091040260200160405190810160405280929190818152602001828054610483906143b9565b80156104d05780601f106104a5576101008083540402835291602001916104d0565b820191906000526020600020905b8154815290600101906020018083116104b357829003601f168201915b505050505081526020016001820180546104e9906143b9565b80601f0160208091040260200160405190810160405280929190818152602001828054610515906143b9565b80156105625780601f1061053757610100808354040283529160200191610562565b820191906000526020600020905b81548152906001019060200180831161054557829003601f168201915b5050505050815260200160028201548152602001600382018054610585906143b9565b80601f01602080910402602001604051908101604052809291908181526020018280546105b1906143b9565b80156105fe5780601f106105d3576101008083540402835291602001916105fe565b820191906000526020600020905b8154815290600101906020018083116105e157829003601f168201915b505050505081526020016004820160009054906101000a900460ff16600481111561062c5761062b613acb565b5b600481111561063e5761063d613acb565b5b815260200160058201548152602001600682015481526020016007820160009054906101000a900460ff161515151581525050905092915050565b60606040518060400160405280601d81526020017f48656c6c6f2c2074686973206973206465616c20636f6e747261637421000000815250905090565b3373ffffffffffffffffffffffffffffffffffffffff16600460009054906101000a900473ffffffffffffffffffffffffffffffffffffffff1673ffffffffffffffffffffffffffffffffffffffff1614610746576040517f08c379a000000000000000000000000000000000000000000000000000000000815260040161073d90614321565b60405180910390fd5b6000600460009054906101000a900473ffffffffffffffffffffffffffffffffffffffff1673ffffffffffffffffffffffffffffffffffffffff164760405161078e9061441c565b60006040518083038185875af1925050503d80600081146107cb576040519150601f19603f3d011682016040523d82523d6000602084013e6107d0565b606091505b5050905080610814576040517f08c379a000000000000000000000000000000000000000000000000000000000815260040161080b9061447d565b60405180910390fd5b50565b6108336108248383610413565b61082e8484612d50565b612da1565b5050565b60606000805480602002602001604051908101604052809291908181526020016000905b82821015610ab857838290600052602060002090600802016040518061010001604052908160008201805461088f906143b9565b80601f01602080910402602001604051908101604052809291908181526020018280546108bb906143b9565b80156109085780601f106108dd57610100808354040283529160200191610908565b820191906000526020600020905b8154815290600101906020018083116108eb57829003601f168201915b50505050508152602001600182018054610921906143b9565b80601f016020809104026020016040519081016040528092919081815260200182805461094d906143b9565b801561099a5780601f1061096f5761010080835404028352916020019161099a565b820191906000526020600020905b81548152906001019060200180831161097d57829003601f168201915b50505050508152602001600282015481526020016003820180546109bd906143b9565b80601f01602080910402602001604051908101604052809291908181526020018280546109e9906143b9565b8015610a365780601f10610a0b57610100808354040283529160200191610a36565b820191906000526020600020905b815481529060010190602001808311610a1957829003601f168201915b505050505081526020016004820160009054906101000a900460ff166004811115610a6457610a63613acb565b5b6004811115610a7657610a75613acb565b5b815260200160058201548152602001600682015481526020016007820160009054906101000a900460ff1615151515815250508152602001906001019061085b565b50505050905090565b806040518060400160405280600181526020017f640000000000000000000000000000000000000000000000000000000000000081525060001515826020015173__Stringhelper__________________________6360353db990916040518263ffffffff1660e01b8152600401610b39919061450a565b602060405180830381865af4158015610b56573d6000803e3d6000fd5b505050506040513d601f19601f82011682018060405250810190610b7a9190614554565b151514610bbc576040517f08c379a0000000000000000000000000000000000000000000000000000000008152600401610bb3906145cd565b60405180910390fd5b6000826040015111610c03576040517f08c379a0000000000000000000000000000000000000000000000000000000008152600401610bfa90614639565b60405180910390fd5b8073__Stringhelper__________________________6360353db990916040518263ffffffff1660e01b8152600401610c3c91906146a5565b602060405180830381865af4158015610c59573d6000803e3d6000fd5b505050506040513d601f19601f82011682018060405250810190610c7d9190614554565b80610cfe57508073__Stringhelper__________________________6360353db990916040518263ffffffff1660e01b8152600401610cbc9190614726565b602060405180830381865af4158015610cd9573d6000803e3d6000fd5b505050506040513d601f19601f82011682018060405250810190610cfd9190614554565b5b15610db4573373ffffffffffffffffffffffffffffffffffffffff1660028360000151604051610d2e919061478c565b908152602001604051809103902060009054906101000a900473ffffffffffffffffffffffffffffffffffffffff1673ffffffffffffffffffffffffffffffffffffffff1614610db3576040517f08c379a0000000000000000000000000000000000000000000000000000000008152600401610daa90614815565b60405180910390fd5b5b8073__Stringhelper__________________________6360353db990916040518263ffffffff1660e01b8152600401610ded91906146a5565b602060405180830381865af4158015610e0a573d6000803e3d6000fd5b505050506040513d601f19601f82011682018060405250810190610e2e9190614554565b80610eaf57508073__Stringhelper__________________________6360353db990916040518263ffffffff1660e01b8152600401610e6d9190614726565b602060405180830381865af4158015610e8a573d6000803e3d6000fd5b505050506040513d601f19601f82011682018060405250810190610eae9190614554565b5b80610f3057508073__Stringhelper__________________________6360353db990916040518263ffffffff1660e01b8152600401610eee9190614881565b602060405180830381865af4158015610f0b573d6000803e3d6000fd5b505050506040513d601f19601f82011682018060405250810190610f2f9190614554565b5b156110b05760001515826000015173__Stringhelper__________________________6360353db990916040518263ffffffff1660e01b8152600401610f76919061450a565b602060405180830381865af4158015610f93573d6000803e3d6000fd5b505050506040513d601f19601f82011682018060405250810190610fb79190614554565b151514610ff9576040517f08c379a0000000000000000000000000000000000000000000000000000000008152600401610ff090614902565b60405180910390fd5b6000151560018360000151604051611011919061478c565b908152602001604051809103902060070160009054906101000a900460ff16151514611072576040517f08c379a00000000000000000000000000000000000000000000000000000000081526004016110699061496e565b60405180910390fd5b6001808360000151604051611087919061478c565b908152602001604051809103902060070160006101000a81548160ff0219169083151502179055505b3373ffffffffffffffffffffffffffffffffffffffff167fa815cdb6099afc3b4263cedf6c749542ae525182249480a4d25a11643fc8c57e846040516110f69190613c1b565b60405180910390a2600460008460a00151815481106111185761111761498e565b5b906000526020600020906008020160040160006101000a81548160ff0219169083600481111561114b5761114a613acb565b5b0217905550600460018460000151604051611166919061478c565b908152602001604051809103902060040160006101000a81548160ff0219169083600481111561119957611198613acb565b5b02179055506004600360003373ffffffffffffffffffffffffffffffffffffffff1673ffffffffffffffffffffffffffffffffffffffff1681526020019081526020016000208460c00151815481106111f5576111f461498e565b5b906000526020600020906008020160040160006101000a81548160ff0219169083600481111561122857611227613acb565b5b0217905550600060018360000151604051611243919061478c565b908152602001604051809103902060070160006101000a81548160ff021916908315150217905550505050565b806040518060400160405280600181526020017f750000000000000000000000000000000000000000000000000000000000000081525060001515826020015173__Stringhelper__________________________6360353db990916040518263ffffffff1660e01b81526004016112e8919061450a565b602060405180830381865af4158015611305573d6000803e3d6000fd5b505050506040513d601f19601f820116820180604052508101906113299190614554565b15151461136b576040517f08c379a0000000000000000000000000000000000000000000000000000000008152600401611362906145cd565b60405180910390fd5b60008260400151116113b2576040517f08c379a00000000000000000000000000000000000000000000000000000000081526004016113a990614639565b60405180910390fd5b8073__Stringhelper__________________________6360353db990916040518263ffffffff1660e01b81526004016113eb91906146a5565b602060405180830381865af4158015611408573d6000803e3d6000fd5b505050506040513d601f19601f8201168201806040525081019061142c9190614554565b806114ad57508073__Stringhelper__________________________6360353db990916040518263ffffffff1660e01b815260040161146b9190614726565b602060405180830381865af4158015611488573d6000803e3d6000fd5b505050506040513d601f19601f820116820180604052508101906114ac9190614554565b5b15611563573373ffffffffffffffffffffffffffffffffffffffff16600283600001516040516114dd919061478c565b908152602001604051809103902060009054906101000a900473ffffffffffffffffffffffffffffffffffffffff1673ffffffffffffffffffffffffffffffffffffffff1614611562576040517f08c379a000000000000000000000000000000000000000000000000000000000815260040161155990614815565b60405180910390fd5b5b8073__Stringhelper__________________________6360353db990916040518263ffffffff1660e01b815260040161159c91906146a5565b602060405180830381865af41580156115b9573d6000803e3d6000fd5b505050506040513d601f19601f820116820180604052508101906115dd9190614554565b8061165e57508073__Stringhelper__________________________6360353db990916040518263ffffffff1660e01b815260040161161c9190614726565b602060405180830381865af4158015611639573d6000803e3d6000fd5b505050506040513d601f19601f8201168201806040525081019061165d9190614554565b5b806116df57508073__Stringhelper__________________________6360353db990916040518263ffffffff1660e01b815260040161169d9190614881565b602060405180830381865af41580156116ba573d6000803e3d6000fd5b505050506040513d601f19601f820116820180604052508101906116de9190614554565b5b1561185f5760001515826000015173__Stringhelper__________________________6360353db990916040518263ffffffff1660e01b8152600401611725919061450a565b602060405180830381865af4158015611742573d6000803e3d6000fd5b505050506040513d601f19601f820116820180604052508101906117669190614554565b1515146117a8576040517f08c379a000000000000000000000000000000000000000000000000000000000815260040161179f90614902565b60405180910390fd5b60001515600183600001516040516117c0919061478c565b908152602001604051809103902060070160009054906101000a900460ff16151514611821576040517f08c379a00000000000000000000000000000000000000000000000000000000081526004016118189061496e565b60405180910390fd5b6001808360000151604051611836919061478c565b908152602001604051809103902060070160006101000a81548160ff0219169083151502179055505b3373ffffffffffffffffffffffffffffffffffffffff167fa815cdb6099afc3b4263cedf6c749542ae525182249480a4d25a11643fc8c57e846040516118a59190613c1b565b60405180910390a26000600184600001516040516118c3919061478c565b90815260200160405180910390206005015490506000600185600001516040516118ed919061478c565b908152602001604051809103902060060154905084602001516000838154811061191a5761191961498e565b5b9060005260206000209060080201600101908051906020019061193e929190613857565b508460400151600083815481106119585761195761498e565b5b9060005260206000209060080201600201819055508460600151600083815481106119865761198561498e565b5b906000526020600020906008020160030190805190602001906119aa929190613857565b508460800151600083815481106119c4576119c361498e565b5b906000526020600020906008020160040160006101000a81548160ff021916908360048111156119f7576119f6613acb565b5b0217905550846020015160018660000151604051611a15919061478c565b90815260200160405180910390206001019080519060200190611a39929190613857565b50846040015160018660000151604051611a53919061478c565b908152602001604051809103902060020181905550846060015160018660000151604051611a81919061478c565b90815260200160405180910390206003019080519060200190611aa5929190613857565b50846080015160018660000151604051611abf919061478c565b908152602001604051809103902060040160006101000a81548160ff02191690836004811115611af257611af1613acb565b5b02179055508460200151600360003373ffffffffffffffffffffffffffffffffffffffff1673ffffffffffffffffffffffffffffffffffffffff1681526020019081526020016000208281548110611b4d57611b4c61498e565b5b90600052602060002090600802016001019080519060200190611b71929190613857565b508460400151600360003373ffffffffffffffffffffffffffffffffffffffff1673ffffffffffffffffffffffffffffffffffffffff1681526020019081526020016000208281548110611bc857611bc761498e565b5b9060005260206000209060080201600201819055508460600151600360003373ffffffffffffffffffffffffffffffffffffffff1673ffffffffffffffffffffffffffffffffffffffff1681526020019081526020016000208281548110611c3357611c3261498e565b5b90600052602060002090600802016003019080519060200190611c57929190613857565b508460800151600360003373ffffffffffffffffffffffffffffffffffffffff1673ffffffffffffffffffffffffffffffffffffffff1681526020019081526020016000208281548110611cae57611cad61498e565b5b906000526020600020906008020160040160006101000a81548160ff02191690836004811115611ce157611ce0613acb565b5b02179055505050600060018360000151604051611cfe919061478c565b908152602001604051809103902060070160006101000a81548160ff021916908315150217905550505050565b600460009054906101000a900473ffffffffffffffffffffffffffffffffffffffff1681565b6000606082471015611de8573373ffffffffffffffffffffffffffffffffffffffff167f4ae838182dca7ab024017a18f2617813502c400e568be4c2f2028919da3b6ef28585604051611da5929190614a8e565b60405180910390a26040517f08c379a0000000000000000000000000000000000000000000000000000000008152600401611ddf90614aca565b60405180910390fd5b8373ffffffffffffffffffffffffffffffffffffffff1683604051611e0c9061441c565b60006040518083038185875af1925050503d8060008114611e49576040519150601f19603f3d011682016040523d82523d6000602084013e611e4e565b606091505b5080925081935050503373ffffffffffffffffffffffffffffffffffffffff167fed3ba1780e70231014679b40b7ee7b7076ee1b16db9e0a9dc958c915abb614f7858585604051611ea193929190614b0d565b60405180910390a29250929050565b6060600360003373ffffffffffffffffffffffffffffffffffffffff1673ffffffffffffffffffffffffffffffffffffffff168152602001908152602001600020805480602002602001604051908101604052809291908181526020016000905b8282101561216e578382906000526020600020906008020160405180610100016040529081600082018054611f45906143b9565b80601f0160208091040260200160405190810160405280929190818152602001828054611f71906143b9565b8015611fbe5780601f10611f9357610100808354040283529160200191611fbe565b820191906000526020600020905b815481529060010190602001808311611fa157829003601f168201915b50505050508152602001600182018054611fd7906143b9565b80601f0160208091040260200160405190810160405280929190818152602001828054612003906143b9565b80156120505780601f1061202557610100808354040283529160200191612050565b820191906000526020600020905b81548152906001019060200180831161203357829003601f168201915b5050505050815260200160028201548152602001600382018054612073906143b9565b80601f016020809104026020016040519081016040528092919081815260200182805461209f906143b9565b80156120ec5780601f106120c1576101008083540402835291602001916120ec565b820191906000526020600020905b8154815290600101906020018083116120cf57829003601f168201915b505050505081526020016004820160009054906101000a900460ff16600481111561211a57612119613acb565b5b600481111561212c5761212b613acb565b5b815260200160058201548152602001600682015481526020016007820160009054906101000a900460ff16151515158152505081526020019060010190611f11565b50505050905090565b806040518060400160405280600181526020017f630000000000000000000000000000000000000000000000000000000000000081525060001515826020015173__Stringhelper__________________________6360353db990916040518263ffffffff1660e01b81526004016121ef919061450a565b602060405180830381865af415801561220c573d6000803e3d6000fd5b505050506040513d601f19601f820116820180604052508101906122309190614554565b151514612272576040517f08c379a0000000000000000000000000000000000000000000000000000000008152600401612269906145cd565b60405180910390fd5b60008260400151116122b9576040517f08c379a00000000000000000000000000000000000000000000000000000000081526004016122b090614639565b60405180910390fd5b8073__Stringhelper__________________________6360353db990916040518263ffffffff1660e01b81526004016122f291906146a5565b602060405180830381865af415801561230f573d6000803e3d6000fd5b505050506040513d601f19601f820116820180604052508101906123339190614554565b806123b457508073__Stringhelper__________________________6360353db990916040518263ffffffff1660e01b81526004016123729190614726565b602060405180830381865af415801561238f573d6000803e3d6000fd5b505050506040513d601f19601f820116820180604052508101906123b39190614554565b5b1561246a573373ffffffffffffffffffffffffffffffffffffffff16600283600001516040516123e4919061478c565b908152602001604051809103902060009054906101000a900473ffffffffffffffffffffffffffffffffffffffff1673ffffffffffffffffffffffffffffffffffffffff1614612469576040517f08c379a000000000000000000000000000000000000000000000000000000000815260040161246090614815565b60405180910390fd5b5b8073__Stringhelper__________________________6360353db990916040518263ffffffff1660e01b81526004016124a391906146a5565b602060405180830381865af41580156124c0573d6000803e3d6000fd5b505050506040513d601f19601f820116820180604052508101906124e49190614554565b8061256557508073__Stringhelper__________________________6360353db990916040518263ffffffff1660e01b81526004016125239190614726565b602060405180830381865af4158015612540573d6000803e3d6000fd5b505050506040513d601f19601f820116820180604052508101906125649190614554565b5b806125e657508073__Stringhelper__________________________6360353db990916040518263ffffffff1660e01b81526004016125a49190614881565b602060405180830381865af41580156125c1573d6000803e3d6000fd5b505050506040513d601f19601f820116820180604052508101906125e59190614554565b5b156127665760001515826000015173__Stringhelper__________________________6360353db990916040518263ffffffff1660e01b815260040161262c919061450a565b602060405180830381865af4158015612649573d6000803e3d6000fd5b505050506040513d601f19601f8201168201806040525081019061266d9190614554565b1515146126af576040517f08c379a00000000000000000000000000000000000000000000000000000000081526004016126a690614902565b60405180910390fd5b60001515600183600001516040516126c7919061478c565b908152602001604051809103902060070160009054906101000a900460ff16151514612728576040517f08c379a000000000000000000000000000000000000000000000000000000000815260040161271f9061496e565b60405180910390fd5b600180836000015160405161273d919061478c565b908152602001604051809103902060070160006101000a81548160ff0219169083151502179055505b600073__Stringhelper__________________________6366a4391661278b4261369d565b60006040518363ffffffff1660e01b81526004016127aa929190614bb2565b600060405180830381865af41580156127c7573d6000803e3d6000fd5b505050506040513d6000823e3d601f19601f820116820180604052508101906127f09190614c65565b90508084600001819052506000805490508460a0018181525050600360003373ffffffffffffffffffffffffffffffffffffffff1673ffffffffffffffffffffffffffffffffffffffff168152602001908152602001600020805490508460c001818152505060008460e00190151590811515815250503373ffffffffffffffffffffffffffffffffffffffff167f162a3b654c8435cfb9122a292ac053ee6a13758ace278272875a4e172c4ebf18856040516128ad9190613c1b565b60405180910390a2600084908060018154018082558091505060019003906000526020600020906008020160009091909190915060008201518160000190805190602001906128fd929190613857565b50602082015181600101908051906020019061291a929190613857565b50604082015181600201556060820151816003019080519060200190612941929190613857565b5060808201518160040160006101000a81548160ff0219169083600481111561296d5761296c613acb565b5b021790555060a0820151816005015560c0820151816006015560e08201518160070160006101000a81548160ff0219169083151502179055505050836001826040516129b9919061478c565b908152602001604051809103902060008201518160000190805190602001906129e3929190613857565b506020820151816001019080519060200190612a00929190613857565b50604082015181600201556060820151816003019080519060200190612a27929190613857565b5060808201518160040160006101000a81548160ff02191690836004811115612a5357612a52613acb565b5b021790555060a0820151816005015560c0820151816006015560e08201518160070160006101000a81548160ff02191690831515021790555090505033600282604051612aa0919061478c565b908152602001604051809103902060006101000a81548173ffffffffffffffffffffffffffffffffffffffff021916908373ffffffffffffffffffffffffffffffffffffffff160217905550600360003373ffffffffffffffffffffffffffffffffffffffff1673ffffffffffffffffffffffffffffffffffffffff1681526020019081526020016000208490806001815401808255809150506001900390600052602060002090600802016000909190919091506000820151816000019080519060200190612b71929190613857565b506020820151816001019080519060200190612b8e929190613857565b50604082015181600201556060820151816003019080519060200190612bb5929190613857565b5060808201518160040160006101000a81548160ff02191690836004811115612be157612be0613acb565b5b021790555060a0820151816005015560c0820151816006015560e08201518160070160006101000a81548160ff021916908315150217905550505050600060018360000151604051612c33919061478c565b908152602001604051809103902060070160006101000a81548160ff021916908315150217905550505050565b34600660003373ffffffffffffffffffffffffffffffffffffffff1673ffffffffffffffffffffffffffffffffffffffff1681526020019081526020016000206000828254612caf9190614cdd565b92505081905550565b60003373ffffffffffffffffffffffffffffffffffffffff16600460009054906101000a900473ffffffffffffffffffffffffffffffffffffffff1673ffffffffffffffffffffffffffffffffffffffff1614612d4a576040517f08c379a0000000000000000000000000000000000000000000000000000000008152600401612d4190614321565b60405180910390fd5b47905090565b600060028383604051612d64929190614371565b908152602001604051809103902060009054906101000a900473ffffffffffffffffffffffffffffffffffffffff16905092915050565b60055481565b816040518060400160405280600181526020017f620000000000000000000000000000000000000000000000000000000000000081525060001515826020015173__Stringhelper__________________________6360353db990916040518263ffffffff1660e01b8152600401612e19919061450a565b602060405180830381865af4158015612e36573d6000803e3d6000fd5b505050506040513d601f19601f82011682018060405250810190612e5a9190614554565b151514612e9c576040517f08c379a0000000000000000000000000000000000000000000000000000000008152600401612e93906145cd565b60405180910390fd5b6000826040015111612ee3576040517f08c379a0000000000000000000000000000000000000000000000000000000008152600401612eda90614639565b60405180910390fd5b8073__Stringhelper__________________________6360353db990916040518263ffffffff1660e01b8152600401612f1c91906146a5565b602060405180830381865af4158015612f39573d6000803e3d6000fd5b505050506040513d601f19601f82011682018060405250810190612f5d9190614554565b80612fde57508073__Stringhelper__________________________6360353db990916040518263ffffffff1660e01b8152600401612f9c9190614726565b602060405180830381865af4158015612fb9573d6000803e3d6000fd5b505050506040513d601f19601f82011682018060405250810190612fdd9190614554565b5b15613094573373ffffffffffffffffffffffffffffffffffffffff166002836000015160405161300e919061478c565b908152602001604051809103902060009054906101000a900473ffffffffffffffffffffffffffffffffffffffff1673ffffffffffffffffffffffffffffffffffffffff1614613093576040517f08c379a000000000000000000000000000000000000000000000000000000000815260040161308a90614815565b60405180910390fd5b5b8073__Stringhelper__________________________6360353db990916040518263ffffffff1660e01b81526004016130cd91906146a5565b602060405180830381865af41580156130ea573d6000803e3d6000fd5b505050506040513d601f19601f8201168201806040525081019061310e9190614554565b8061318f57508073__Stringhelper__________________________6360353db990916040518263ffffffff1660e01b815260040161314d9190614726565b602060405180830381865af415801561316a573d6000803e3d6000fd5b505050506040513d601f19601f8201168201806040525081019061318e9190614554565b5b8061321057508073__Stringhelper__________________________6360353db990916040518263ffffffff1660e01b81526004016131ce9190614881565b602060405180830381865af41580156131eb573d6000803e3d6000fd5b505050506040513d601f19601f8201168201806040525081019061320f9190614554565b5b156133905760001515826000015173__Stringhelper__________________________6360353db990916040518263ffffffff1660e01b8152600401613256919061450a565b602060405180830381865af4158015613273573d6000803e3d6000fd5b505050506040513d601f19601f820116820180604052508101906132979190614554565b1515146132d9576040517f08c379a00000000000000000000000000000000000000000000000000000000081526004016132d090614902565b60405180910390fd5b60001515600183600001516040516132f1919061478c565b908152602001604051809103902060070160009054906101000a900460ff16151514613352576040517f08c379a00000000000000000000000000000000000000000000000000000000081526004016133499061496e565b60405180910390fd5b6001808360000151604051613367919061478c565b908152602001604051809103902060070160006101000a81548160ff0219169083151502179055505b83604001513410156133d7576040517f08c379a00000000000000000000000000000000000000000000000000000000081526004016133ce90614d7f565b60405180910390fd5b3373ffffffffffffffffffffffffffffffffffffffff167f4ae838182dca7ab024017a18f2617813502c400e568be4c2f2028919da3b6ef2848660400151876000015160405161342993929190614d9f565b60405180910390a261343f838560400151611d51565b505060038460800190600481111561345a57613459613acb565b5b9081600481111561346e5761346d613acb565b5b81525050600060018560000151604051613488919061478c565b90815260200160405180910390206005015490506000600186600001516040516134b2919061478c565b90815260200160405180910390206006015490508560800151600083815481106134df576134de61498e565b5b906000526020600020906008020160040160006101000a81548160ff0219169083600481111561351257613511613acb565b5b0217905550856080015160018760000151604051613530919061478c565b908152602001604051809103902060040160006101000a81548160ff0219169083600481111561356357613562613acb565b5b02179055508560800151600360008773ffffffffffffffffffffffffffffffffffffffff1673ffffffffffffffffffffffffffffffffffffffff16815260200190815260200160002082815481106135be576135bd61498e565b5b906000526020600020906008020160040160006101000a81548160ff021916908360048111156135f1576135f0613acb565b5b0217905550336002876000015160405161360b919061478c565b908152602001604051809103902060006101000a81548173ffffffffffffffffffffffffffffffffffffffff021916908373ffffffffffffffffffffffffffffffffffffffff160217905550505060006001836000015160405161366f919061478c565b908152602001604051809103902060070160006101000a81548160ff02191690831515021790555050505050565b606060008214156136e5576040518060400160405280600181526020017f300000000000000000000000000000000000000000000000000000000000000081525090506137f9565b600082905060005b6000821461371757808061370090614ddd565b915050600a826137109190614e55565b91506136ed565b60008167ffffffffffffffff81111561373357613732613e50565b5b6040519080825280601f01601f1916602001820160405280156137655781602001600182028036833780820191505090505b5090505b600085146137f25760018261377e9190614e86565b9150600a8561378d9190614eba565b60306137999190614cdd565b60f81b8183815181106137af576137ae61498e565b5b60200101907effffffffffffffffffffffffffffffffffffffffffffffffffffffffffffff1916908160001a905350600a856137eb9190614e55565b9450613769565b8093505050505b919050565b604051806101000160405280606081526020016060815260200160008152602001606081526020016000600481111561383a57613839613acb565b5b815260200160008152602001600081526020016000151581525090565b828054613863906143b9565b90600052602060002090601f01602090048101928261388557600085556138cc565b82601f1061389e57805160ff19168380011785556138cc565b828001600101855582156138cc579182015b828111156138cb5782518255916020019190600101906138b0565b5b5090506138d991906138dd565b5090565b5b808211156138f65760008160009055506001016138de565b5090565b6000604051905090565b600080fd5b600080fd5b6000819050919050565b6139218161390e565b811461392c57600080fd5b50565b60008135905061393e81613918565b92915050565b60006020828403121561395a57613959613904565b5b60006139688482850161392f565b91505092915050565b600080fd5b600080fd5b600080fd5b60008083601f84011261399657613995613971565b5b8235905067ffffffffffffffff8111156139b3576139b2613976565b5b6020830191508360018202830111156139cf576139ce61397b565b5b9250929050565b600080602083850312156139ed576139ec613904565b5b600083013567ffffffffffffffff811115613a0b57613a0a613909565b5b613a1785828601613980565b92509250509250929050565b600081519050919050565b600082825260208201905092915050565b60005b83811015613a5d578082015181840152602081019050613a42565b83811115613a6c576000848401525b50505050565b6000601f19601f8301169050919050565b6000613a8e82613a23565b613a988185613a2e565b9350613aa8818560208601613a3f565b613ab181613a72565b840191505092915050565b613ac58161390e565b82525050565b7f4e487b7100000000000000000000000000000000000000000000000000000000600052602160045260246000fd5b60058110613b0b57613b0a613acb565b5b50565b6000819050613b1c82613afa565b919050565b6000613b2c82613b0e565b9050919050565b613b3c81613b21565b82525050565b60008115159050919050565b613b5781613b42565b82525050565b6000610100830160008301518482036000860152613b7b8282613a83565b91505060208301518482036020860152613b958282613a83565b9150506040830151613baa6040860182613abc565b5060608301518482036060860152613bc28282613a83565b9150506080830151613bd76080860182613b33565b5060a0830151613bea60a0860182613abc565b5060c0830151613bfd60c0860182613abc565b5060e0830151613c1060e0860182613b4e565b508091505092915050565b60006020820190508181036000830152613c358184613b5d565b905092915050565b600082825260208201905092915050565b6000613c5982613a23565b613c638185613c3d565b9350613c73818560208601613a3f565b613c7c81613a72565b840191505092915050565b60006020820190508181036000830152613ca18184613c4e565b905092915050565b600081519050919050565b600082825260208201905092915050565b6000819050602082019050919050565b6000610100830160008301518482036000860152613cf38282613a83565b91505060208301518482036020860152613d0d8282613a83565b9150506040830151613d226040860182613abc565b5060608301518482036060860152613d3a8282613a83565b9150506080830151613d4f6080860182613b33565b5060a0830151613d6260a0860182613abc565b5060c0830151613d7560c0860182613abc565b5060e0830151613d8860e0860182613b4e565b508091505092915050565b6000613d9f8383613cd5565b905092915050565b6000602082019050919050565b6000613dbf82613ca9565b613dc98185613cb4565b935083602082028501613ddb85613cc5565b8060005b85811015613e175784840389528151613df88582613d93565b9450613e0383613da7565b925060208a01995050600181019050613ddf565b50829750879550505050505092915050565b60006020820190508181036000830152613e438184613db4565b905092915050565b600080fd5b7f4e487b7100000000000000000000000000000000000000000000000000000000600052604160045260246000fd5b613e8882613a72565b810181811067ffffffffffffffff82111715613ea757613ea6613e50565b5b80604052505050565b6000613eba6138fa565b9050613ec68282613e7f565b919050565b600080fd5b600080fd5b600067ffffffffffffffff821115613ef057613eef613e50565b5b613ef982613a72565b9050602081019050919050565b82818337600083830152505050565b6000613f28613f2384613ed5565b613eb0565b905082815260208101848484011115613f4457613f43613ed0565b5b613f4f848285613f06565b509392505050565b600082601f830112613f6c57613f6b613971565b5b8135613f7c848260208601613f15565b91505092915050565b60058110613f9257600080fd5b50565b600081359050613fa481613f85565b92915050565b613fb381613b42565b8114613fbe57600080fd5b50565b600081359050613fd081613faa565b92915050565b60006101008284031215613fed57613fec613e4b565b5b613ff8610100613eb0565b9050600082013567ffffffffffffffff81111561401857614017613ecb565b5b61402484828501613f57565b600083015250602082013567ffffffffffffffff81111561404857614047613ecb565b5b61405484828501613f57565b60208301525060406140688482850161392f565b604083015250606082013567ffffffffffffffff81111561408c5761408b613ecb565b5b61409884828501613f57565b60608301525060806140ac84828501613f95565b60808301525060a06140c08482850161392f565b60a08301525060c06140d48482850161392f565b60c08301525060e06140e884828501613fc1565b60e08301525092915050565b60006020828403121561410a57614109613904565b5b600082013567ffffffffffffffff81111561412857614127613909565b5b61413484828501613fd6565b91505092915050565b600073ffffffffffffffffffffffffffffffffffffffff82169050919050565b60006141688261413d565b9050919050565b6141788161415d565b82525050565b6000602082019050614193600083018461416f565b92915050565b60006141a48261413d565b9050919050565b6141b481614199565b81146141bf57600080fd5b50565b6000813590506141d1816141ab565b92915050565b600080604083850312156141ee576141ed613904565b5b60006141fc858286016141c2565b925050602061420d8582860161392f565b9150509250929050565b61422081613b42565b82525050565b600081519050919050565b600082825260208201905092915050565b600061424d82614226565b6142578185614231565b9350614267818560208601613a3f565b61427081613a72565b840191505092915050565b60006040820190506142906000830185614217565b81810360208301526142a28184614242565b90509392505050565b6142b48161390e565b82525050565b60006020820190506142cf60008301846142ab565b92915050565b7f4f776e6572206f6e6c792e000000000000000000000000000000000000000000600082015250565b600061430b600b83613c3d565b9150614316826142d5565b602082019050919050565b6000602082019050818103600083015261433a816142fe565b9050919050565b600081905092915050565b60006143588385614341565b9350614365838584613f06565b82840190509392505050565b600061437e82848661434c565b91508190509392505050565b7f4e487b7100000000000000000000000000000000000000000000000000000000600052602260045260246000fd5b600060028204905060018216806143d157607f821691505b602082108114156143e5576143e461438a565b5b50919050565b600081905092915050565b50565b60006144066000836143eb565b9150614411826143f6565b600082019050919050565b6000614427826143f9565b9150819050919050565b7f4661696c656420746f2073656e64204574686572000000000000000000000000600082015250565b6000614467601483613c3d565b915061447282614431565b602082019050919050565b600060208201905081810360008301526144968161445a565b9050919050565b600082825260208201905092915050565b60006144b982613a23565b6144c3818561449d565b93506144d3818560208601613a3f565b6144dc81613a72565b840191505092915050565b60006144f460008361449d565b91506144ff826143f6565b600082019050919050565b6000604082019050818103600083015261452481846144ae565b90508181036020830152614537816144e7565b905092915050565b60008151905061454e81613faa565b92915050565b60006020828403121561456a57614569613904565b5b60006145788482850161453f565b91505092915050565b7f4974656d206e616d652063616e206e6f74206c6561766520626c616e6b2e0000600082015250565b60006145b7601e83613c3d565b91506145c282614581565b602082019050919050565b600060208201905081810360008301526145e6816145aa565b9050919050565b7f4974656d2070726963652063616e206e6f74206c6f776572207468656e20302e600082015250565b6000614623602083613c3d565b915061462e826145ed565b602082019050919050565b6000602082019050818103600083015261465281614616565b9050919050565b7f7500000000000000000000000000000000000000000000000000000000000000600082015250565b600061468f60018361449d565b915061469a82614659565b602082019050919050565b600060408201905081810360008301526146bf81846144ae565b905081810360208301526146d281614682565b905092915050565b7f6400000000000000000000000000000000000000000000000000000000000000600082015250565b600061471060018361449d565b915061471b826146da565b602082019050919050565b6000604082019050818103600083015261474081846144ae565b9050818103602083015261475381614703565b905092915050565b600061476682613a23565b6147708185614341565b9350614780818560208601613a3f565b80840191505092915050565b6000614798828461475b565b915081905092915050565b7f54686973206973206e6f7420796f7572206974656d206f72206974656d206e7560008201527f6d6265722069732077726f6e672e000000000000000000000000000000000000602082015250565b60006147ff602e83613c3d565b915061480a826147a3565b604082019050919050565b6000602082019050818103600083015261482e816147f2565b9050919050565b7f6200000000000000000000000000000000000000000000000000000000000000600082015250565b600061486b60018361449d565b915061487682614835565b602082019050919050565b6000604082019050818103600083015261489b81846144ae565b905081810360208301526148ae8161485e565b905092915050565b7f4974656d206e756d62657220697320626c616e6b000000000000000000000000600082015250565b60006148ec601483613c3d565b91506148f7826148b6565b602082019050919050565b6000602082019050818103600083015261491b816148df565b9050919050565b7f4974656d206973206c6f636b65642c206f706572617465206c617465722e0000600082015250565b6000614958601e83613c3d565b915061496382614922565b602082019050919050565b600060208201905081810360008301526149878161494b565b9050919050565b7f4e487b7100000000000000000000000000000000000000000000000000000000600052603260045260246000fd5b6000819050919050565b60006149e26149dd6149d88461413d565b6149bd565b61413d565b9050919050565b60006149f4826149c7565b9050919050565b6000614a06826149e9565b9050919050565b614a16816149fb565b82525050565b7f546869732076616c75652069732067726561746572207468616e20636f6e747260008201527f6163742077616c6c65742e000000000000000000000000000000000000000000602082015250565b6000614a78602b83613c3d565b9150614a8382614a1c565b604082019050919050565b6000606082019050614aa36000830185614a0d565b614ab060208301846142ab565b8181036040830152614ac181614a6b565b90509392505050565b60006020820190508181036000830152614ae381614a6b565b9050919050565b6000614af7600083613c3d565b9150614b02826143f6565b600082019050919050565b6000608082019050614b226000830186614a0d565b614b2f60208301856142ab565b614b3c6040830184614217565b8181036060830152614b4d81614aea565b9050949350505050565b7f6974656d00000000000000000000000000000000000000000000000000000000600082015250565b6000614b8d60048361449d565b9150614b9882614b57565b602082019050919050565b614bac81613b42565b82525050565b60006060820190508181036000830152614bcb81614b80565b90508181036020830152614bdf81856144ae565b9050614bee6040830184614ba3565b9392505050565b6000614c08614c0384613ed5565b613eb0565b905082815260208101848484011115614c2457614c23613ed0565b5b614c2f848285613a3f565b509392505050565b600082601f830112614c4c57614c4b613971565b5b8151614c5c848260208601614bf5565b91505092915050565b600060208284031215614c7b57614c7a613904565b5b600082015167ffffffffffffffff811115614c9957614c98613909565b5b614ca584828501614c37565b91505092915050565b7f4e487b7100000000000000000000000000000000000000000000000000000000600052601160045260246000fd5b6000614ce88261390e565b9150614cf38361390e565b9250827fffffffffffffffffffffffffffffffffffffffffffffffffffffffffffffffff03821115614d2857614d27614cae565b5b828201905092915050565b7f596f75722062616c616e636520697320496e73756666696369656e742e000000600082015250565b6000614d69601d83613c3d565b9150614d7482614d33565b602082019050919050565b60006020820190508181036000830152614d9881614d5c565b9050919050565b6000606082019050614db46000830186614a0d565b614dc160208301856142ab565b8181036040830152614dd38184613c4e565b9050949350505050565b6000614de88261390e565b91507fffffffffffffffffffffffffffffffffffffffffffffffffffffffffffffffff821415614e1b57614e1a614cae565b5b600182019050919050565b7f4e487b7100000000000000000000000000000000000000000000000000000000600052601260045260246000fd5b6000614e608261390e565b9150614e6b8361390e565b925082614e7b57614e7a614e26565b5b828204905092915050565b6000614e918261390e565b9150614e9c8361390e565b925082821015614eaf57614eae614cae565b5b828203905092915050565b6000614ec58261390e565b9150614ed08361390e565b925082614ee057614edf614e26565b5b82820690509291505056fea264697066735822122072dfa448b660c84311db3454fca92da6f6756fb63c4d918e0a7ebb3b8d732aa464736f6c634300080c0033",
  "immutableReferences": {},
  "source": "// SPDX-License-Identifier: MIT\r\npragma solidity >= 0.8.0;\r\n\r\nimport \"./Owner.sol\";\r\nimport \"./Item.sol\";\r\n\r\ncontract Deal is Item, Owner{\r\n\r\n    event buyLog(address indexed from, address to, uint value, string log);\r\n    event transferLog(address indexed from, address to, uint value, bool isSuccess, string log);\r\n\r\n    function hello() override public pure returns(string memory returnStr ){\r\n        returnStr = \"Hello, this is deal contract!\";\r\n    }\r\n\r\n    function buy(string calldata itemNo) public payable {\r\n        \r\n        buyProcess( getOneItem(itemNo), payable(getItemOwner(itemNo)) );\r\n        \r\n    }\r\n\r\n    function buyProcess(itemInfo memory item, address payable seller) private basicCheck(item, \"b\") {\r\n\r\n        require(msg.value >= item.price, \"Your balance is Insufficient.\");\r\n        \r\n        emit buyLog(msg.sender, seller, item.price, item.itemNo);\r\n\r\n        transfer(seller, item.price);\r\n\r\n        //update\r\n        item.status = itemStatus.close;\r\n        uint itemsArraySeq = itemNoMap[item.itemNo].itemsArraySeq;\r\n        uint myItemsMapSeq = itemNoMap[item.itemNo].myItemsMapSeq;\r\n\r\n        itemsArray[itemsArraySeq].status = item.status;\r\n        itemNoMap[item.itemNo].status = item.status;\r\n        myItemsMap[seller][myItemsMapSeq].status = item.status;\r\n        itemOwnerMap[item.itemNo] = msg.sender;\r\n\r\n    }\r\n\r\n    function transfer(address payable _to, uint price) public payable returns(bool isSuccess, bytes memory data){\r\n        \r\n        if(address(this).balance < price){\r\n            emit buyLog(msg.sender, _to, price, \"This value is greater than contract wallet.\");\r\n            revert(\"This value is greater than contract wallet.\");\r\n        }\r\n        \r\n        (isSuccess, data) = _to.call {value: price}(\"\");\r\n        emit transferLog(msg.sender, _to, price, isSuccess, \"\");\r\n\r\n    }\r\n}",
  "sourcePath": "C:\\Project\\simpleshop\\contracts\\Deal.sol",
  "compiler": {
    "name": "solc",
    "version": "0.8.12+commit.f00d7308.Emscripten.clang"
  },
  "schemaVersion": "3.4.6",
  "updatedAt": "2022-04-10T12:51:58.736Z",
  "networkType": "ethereum",
  "devdoc": {
    "kind": "dev",
    "methods": {},
    "version": 1
  },
  "userdoc": {
    "kind": "user",
    "methods": {},
    "version": 1
  }
}