{
  "contractName": "Deal",
  "abi": [
    {
      "anonymous": false,
      "inputs": [
        {
          "indexed": true,
          "internalType": "address",
          "name": "from",
          "type": "address"
        },
        {
          "indexed": false,
          "internalType": "address",
          "name": "to",
          "type": "address"
        },
        {
          "indexed": false,
          "internalType": "uint256",
          "name": "value",
          "type": "uint256"
        },
        {
          "indexed": false,
          "internalType": "string",
          "name": "log",
          "type": "string"
        }
      ],
      "name": "buyLog",
      "type": "event"
    },
    {
      "anonymous": false,
      "inputs": [
        {
          "indexed": true,
          "internalType": "address",
          "name": "",
          "type": "address"
        },
        {
          "components": [
            {
              "internalType": "string",
              "name": "itemNo",
              "type": "string"
            },
            {
              "internalType": "string",
              "name": "name",
              "type": "string"
            },
            {
              "internalType": "uint256",
              "name": "price",
              "type": "uint256"
            },
            {
              "internalType": "string",
              "name": "pic",
              "type": "string"
            },
            {
              "internalType": "enum Item.itemStatus",
              "name": "status",
              "type": "uint8"
            },
            {
              "internalType": "uint256",
              "name": "itemsArraySeq",
              "type": "uint256"
            },
            {
              "internalType": "uint256",
              "name": "myItemsMapSeq",
              "type": "uint256"
            },
            {
              "internalType": "bool",
              "name": "isLocked",
              "type": "bool"
            }
          ],
          "indexed": false,
          "internalType": "struct Item.itemInfo",
          "name": "",
          "type": "tuple"
        }
      ],
      "name": "createItemEvent",
      "type": "event"
    },
    {
      "anonymous": false,
      "inputs": [
        {
          "indexed": true,
          "internalType": "address",
          "name": "",
          "type": "address"
        },
        {
          "components": [
            {
              "internalType": "string",
              "name": "itemNo",
              "type": "string"
            },
            {
              "internalType": "string",
              "name": "name",
              "type": "string"
            },
            {
              "internalType": "uint256",
              "name": "price",
              "type": "uint256"
            },
            {
              "internalType": "string",
              "name": "pic",
              "type": "string"
            },
            {
              "internalType": "enum Item.itemStatus",
              "name": "status",
              "type": "uint8"
            },
            {
              "internalType": "uint256",
              "name": "itemsArraySeq",
              "type": "uint256"
            },
            {
              "internalType": "uint256",
              "name": "myItemsMapSeq",
              "type": "uint256"
            },
            {
              "internalType": "bool",
              "name": "isLocked",
              "type": "bool"
            }
          ],
          "indexed": false,
          "internalType": "struct Item.itemInfo",
          "name": "",
          "type": "tuple"
        }
      ],
      "name": "modifyItemEvent",
      "type": "event"
    },
    {
      "anonymous": false,
      "inputs": [
        {
          "indexed": true,
          "internalType": "address",
          "name": "from",
          "type": "address"
        },
        {
          "indexed": false,
          "internalType": "address",
          "name": "to",
          "type": "address"
        },
        {
          "indexed": false,
          "internalType": "uint256",
          "name": "value",
          "type": "uint256"
        },
        {
          "indexed": false,
          "internalType": "bool",
          "name": "isSuccess",
          "type": "bool"
        },
        {
          "indexed": false,
          "internalType": "string",
          "name": "log",
          "type": "string"
        }
      ],
      "name": "transferLog",
      "type": "event"
    },
    {
      "inputs": [],
      "name": "chkBalance",
      "outputs": [
        {
          "internalType": "uint256",
          "name": "",
          "type": "uint256"
        }
      ],
      "stateMutability": "view",
      "type": "function",
      "constant": true
    },
    {
      "inputs": [],
      "name": "contribute",
      "outputs": [],
      "stateMutability": "payable",
      "type": "function",
      "payable": true
    },
    {
      "inputs": [
        {
          "components": [
            {
              "internalType": "string",
              "name": "itemNo",
              "type": "string"
            },
            {
              "internalType": "string",
              "name": "name",
              "type": "string"
            },
            {
              "internalType": "uint256",
              "name": "price",
              "type": "uint256"
            },
            {
              "internalType": "string",
              "name": "pic",
              "type": "string"
            },
            {
              "internalType": "enum Item.itemStatus",
              "name": "status",
              "type": "uint8"
            },
            {
              "internalType": "uint256",
              "name": "itemsArraySeq",
              "type": "uint256"
            },
            {
              "internalType": "uint256",
              "name": "myItemsMapSeq",
              "type": "uint256"
            },
            {
              "internalType": "bool",
              "name": "isLocked",
              "type": "bool"
            }
          ],
          "internalType": "struct Item.itemInfo",
          "name": "item",
          "type": "tuple"
        }
      ],
      "name": "createItem",
      "outputs": [],
      "stateMutability": "nonpayable",
      "type": "function"
    },
    {
      "inputs": [
        {
          "components": [
            {
              "internalType": "string",
              "name": "itemNo",
              "type": "string"
            },
            {
              "internalType": "string",
              "name": "name",
              "type": "string"
            },
            {
              "internalType": "uint256",
              "name": "price",
              "type": "uint256"
            },
            {
              "internalType": "string",
              "name": "pic",
              "type": "string"
            },
            {
              "internalType": "enum Item.itemStatus",
              "name": "status",
              "type": "uint8"
            },
            {
              "internalType": "uint256",
              "name": "itemsArraySeq",
              "type": "uint256"
            },
            {
              "internalType": "uint256",
              "name": "myItemsMapSeq",
              "type": "uint256"
            },
            {
              "internalType": "bool",
              "name": "isLocked",
              "type": "bool"
            }
          ],
          "internalType": "struct Item.itemInfo",
          "name": "item",
          "type": "tuple"
        }
      ],
      "name": "deleteItem",
      "outputs": [],
      "stateMutability": "nonpayable",
      "type": "function"
    },
    {
      "inputs": [],
      "name": "getAllItems",
      "outputs": [
        {
          "components": [
            {
              "internalType": "string",
              "name": "itemNo",
              "type": "string"
            },
            {
              "internalType": "string",
              "name": "name",
              "type": "string"
            },
            {
              "internalType": "uint256",
              "name": "price",
              "type": "uint256"
            },
            {
              "internalType": "string",
              "name": "pic",
              "type": "string"
            },
            {
              "internalType": "enum Item.itemStatus",
              "name": "status",
              "type": "uint8"
            },
            {
              "internalType": "uint256",
              "name": "itemsArraySeq",
              "type": "uint256"
            },
            {
              "internalType": "uint256",
              "name": "myItemsMapSeq",
              "type": "uint256"
            },
            {
              "internalType": "bool",
              "name": "isLocked",
              "type": "bool"
            }
          ],
          "internalType": "struct Item.itemInfo[]",
          "name": "",
          "type": "tuple[]"
        }
      ],
      "stateMutability": "view",
      "type": "function",
      "constant": true
    },
    {
      "inputs": [
        {
          "internalType": "string",
          "name": "itemNo",
          "type": "string"
        }
      ],
      "name": "getItemOwner",
      "outputs": [
        {
          "internalType": "address",
          "name": "",
          "type": "address"
        }
      ],
      "stateMutability": "view",
      "type": "function",
      "constant": true
    },
    {
      "inputs": [],
      "name": "getMyItems",
      "outputs": [
        {
          "components": [
            {
              "internalType": "string",
              "name": "itemNo",
              "type": "string"
            },
            {
              "internalType": "string",
              "name": "name",
              "type": "string"
            },
            {
              "internalType": "uint256",
              "name": "price",
              "type": "uint256"
            },
            {
              "internalType": "string",
              "name": "pic",
              "type": "string"
            },
            {
              "internalType": "enum Item.itemStatus",
              "name": "status",
              "type": "uint8"
            },
            {
              "internalType": "uint256",
              "name": "itemsArraySeq",
              "type": "uint256"
            },
            {
              "internalType": "uint256",
              "name": "myItemsMapSeq",
              "type": "uint256"
            },
            {
              "internalType": "bool",
              "name": "isLocked",
              "type": "bool"
            }
          ],
          "internalType": "struct Item.itemInfo[]",
          "name": "",
          "type": "tuple[]"
        }
      ],
      "stateMutability": "view",
      "type": "function",
      "constant": true
    },
    {
      "inputs": [
        {
          "internalType": "string",
          "name": "itemNo",
          "type": "string"
        }
      ],
      "name": "getOneItem",
      "outputs": [
        {
          "components": [
            {
              "internalType": "string",
              "name": "itemNo",
              "type": "string"
            },
            {
              "internalType": "string",
              "name": "name",
              "type": "string"
            },
            {
              "internalType": "uint256",
              "name": "price",
              "type": "uint256"
            },
            {
              "internalType": "string",
              "name": "pic",
              "type": "string"
            },
            {
              "internalType": "enum Item.itemStatus",
              "name": "status",
              "type": "uint8"
            },
            {
              "internalType": "uint256",
              "name": "itemsArraySeq",
              "type": "uint256"
            },
            {
              "internalType": "uint256",
              "name": "myItemsMapSeq",
              "type": "uint256"
            },
            {
              "internalType": "bool",
              "name": "isLocked",
              "type": "bool"
            }
          ],
          "internalType": "struct Item.itemInfo",
          "name": "",
          "type": "tuple"
        }
      ],
      "stateMutability": "view",
      "type": "function",
      "constant": true
    },
    {
      "inputs": [],
      "name": "owner",
      "outputs": [
        {
          "internalType": "address",
          "name": "",
          "type": "address"
        }
      ],
      "stateMutability": "view",
      "type": "function",
      "constant": true
    },
    {
      "inputs": [
        {
          "internalType": "uint256",
          "name": "fee",
          "type": "uint256"
        }
      ],
      "name": "setTransactionFee",
      "outputs": [],
      "stateMutability": "nonpayable",
      "type": "function"
    },
    {
      "inputs": [],
      "name": "transctionFee",
      "outputs": [
        {
          "internalType": "uint256",
          "name": "",
          "type": "uint256"
        }
      ],
      "stateMutability": "view",
      "type": "function",
      "constant": true
    },
    {
      "inputs": [
        {
          "components": [
            {
              "internalType": "string",
              "name": "itemNo",
              "type": "string"
            },
            {
              "internalType": "string",
              "name": "name",
              "type": "string"
            },
            {
              "internalType": "uint256",
              "name": "price",
              "type": "uint256"
            },
            {
              "internalType": "string",
              "name": "pic",
              "type": "string"
            },
            {
              "internalType": "enum Item.itemStatus",
              "name": "status",
              "type": "uint8"
            },
            {
              "internalType": "uint256",
              "name": "itemsArraySeq",
              "type": "uint256"
            },
            {
              "internalType": "uint256",
              "name": "myItemsMapSeq",
              "type": "uint256"
            },
            {
              "internalType": "bool",
              "name": "isLocked",
              "type": "bool"
            }
          ],
          "internalType": "struct Item.itemInfo",
          "name": "item",
          "type": "tuple"
        }
      ],
      "name": "updateItem",
      "outputs": [],
      "stateMutability": "nonpayable",
      "type": "function"
    },
    {
      "inputs": [],
      "name": "withdraw",
      "outputs": [],
      "stateMutability": "payable",
      "type": "function",
      "payable": true
    },
    {
      "inputs": [],
      "name": "hello",
      "outputs": [
        {
          "internalType": "string",
          "name": "returnStr",
          "type": "string"
        }
      ],
      "stateMutability": "pure",
      "type": "function",
      "constant": true
    },
    {
      "inputs": [
        {
          "internalType": "string",
          "name": "itemNo",
          "type": "string"
        }
      ],
      "name": "buy",
      "outputs": [],
      "stateMutability": "payable",
      "type": "function",
      "payable": true
    },
    {
      "inputs": [
        {
          "internalType": "address payable",
          "name": "_to",
          "type": "address"
        },
        {
          "internalType": "uint256",
          "name": "price",
          "type": "uint256"
        }
      ],
      "name": "transfer",
      "outputs": [
        {
          "internalType": "bool",
          "name": "isSuccess",
          "type": "bool"
        },
        {
          "internalType": "bytes",
          "name": "data",
          "type": "bytes"
        }
      ],
      "stateMutability": "payable",
      "type": "function",
      "payable": true
    }
  ],
  "bytecode": "0x608060405234801561001057600080fd5b5033600460006101000a81548173ffffffffffffffffffffffffffffffffffffffff021916908373ffffffffffffffffffffffffffffffffffffffff1602179055506152bf806100616000396000f3fe6080604052600436106100f35760003560e01c80638da5cb5b1161008a578063d7bb99ba11610059578063d7bb99ba146102dc578063d9dcef6e146102e6578063df49cb1914610311578063fa7a3bb51461034e576100f3565b80638da5cb5b1461022c578063a9059cbb14610257578063c5fb207d14610288578063c8c8670e146102b3576100f3565b8063492cc769116100c6578063492cc769146101935780634ba1d6aa146101af57806370718e16146101da5780637ee4237714610203576100f3565b8063096a8ab7146100f85780630e86773b1461012157806319ff1d211461015e5780633ccfd60b14610189575b600080fd5b34801561010457600080fd5b5061011f600480360381019061011a9190613c5c565b610379565b005b34801561012d57600080fd5b5061014860048036038101906101439190613cee565b610413565b6040516101559190613f33565b60405180910390f35b34801561016a57600080fd5b50610173610679565b6040516101809190613f9f565b60405180910390f35b6101916106b6565b005b6101ad60048036038101906101a89190613cee565b610817565b005b3480156101bb57600080fd5b506101c4610837565b6040516101d19190614141565b60405180910390f35b3480156101e657600080fd5b5061020160048036038101906101fc919061440c565b610ac1565b005b34801561020f57600080fd5b5061022a6004803603810190610225919061440c565b61108b565b005b34801561023857600080fd5b50610241611961565b60405161024e9190614496565b60405180910390f35b610271600480360381019061026c91906144ef565b611987565b60405161027f929190614593565b60405180910390f35b34801561029457600080fd5b5061029d611ae6565b6040516102aa9190614141565b60405180910390f35b3480156102bf57600080fd5b506102da60048036038101906102d5919061440c565b611dad565b005b6102e46126b1565b005b3480156102f257600080fd5b506102fb612709565b60405161030891906145d2565b60405180910390f35b34801561031d57600080fd5b5061033860048036038101906103339190613cee565b6127a1565b6040516103459190614496565b60405180910390f35b34801561035a57600080fd5b506103636127ec565b60405161037091906145d2565b60405180910390f35b3373ffffffffffffffffffffffffffffffffffffffff16600460009054906101000a900473ffffffffffffffffffffffffffffffffffffffff1673ffffffffffffffffffffffffffffffffffffffff1614610409576040517f08c379a000000000000000000000000000000000000000000000000000000000815260040161040090614639565b60405180910390fd5b8060058190555050565b61041b613ad6565b6001838360405161042d929190614689565b908152602001604051809103902060405180610100016040529081600082018054610457906146d1565b80601f0160208091040260200160405190810160405280929190818152602001828054610483906146d1565b80156104d05780601f106104a5576101008083540402835291602001916104d0565b820191906000526020600020905b8154815290600101906020018083116104b357829003601f168201915b505050505081526020016001820180546104e9906146d1565b80601f0160208091040260200160405190810160405280929190818152602001828054610515906146d1565b80156105625780601f1061053757610100808354040283529160200191610562565b820191906000526020600020905b81548152906001019060200180831161054557829003601f168201915b5050505050815260200160028201548152602001600382018054610585906146d1565b80601f01602080910402602001604051908101604052809291908181526020018280546105b1906146d1565b80156105fe5780601f106105d3576101008083540402835291602001916105fe565b820191906000526020600020905b8154815290600101906020018083116105e157829003601f168201915b505050505081526020016004820160009054906101000a900460ff16600481111561062c5761062b613de3565b5b600481111561063e5761063d613de3565b5b815260200160058201548152602001600682015481526020016007820160009054906101000a900460ff161515151581525050905092915050565b60606040518060400160405280601d81526020017f48656c6c6f2c2074686973206973206465616c20636f6e747261637421000000815250905090565b3373ffffffffffffffffffffffffffffffffffffffff16600460009054906101000a900473ffffffffffffffffffffffffffffffffffffffff1673ffffffffffffffffffffffffffffffffffffffff1614610746576040517f08c379a000000000000000000000000000000000000000000000000000000000815260040161073d90614639565b60405180910390fd5b6000600460009054906101000a900473ffffffffffffffffffffffffffffffffffffffff1673ffffffffffffffffffffffffffffffffffffffff164760405161078e90614734565b60006040518083038185875af1925050503d80600081146107cb576040519150601f19603f3d011682016040523d82523d6000602084013e6107d0565b606091505b5050905080610814576040517f08c379a000000000000000000000000000000000000000000000000000000000815260040161080b90614795565b60405180910390fd5b50565b6108336108248383610413565b61082e84846127a1565b6127f2565b5050565b60606000805480602002602001604051908101604052809291908181526020016000905b82821015610ab857838290600052602060002090600802016040518061010001604052908160008201805461088f906146d1565b80601f01602080910402602001604051908101604052809291908181526020018280546108bb906146d1565b80156109085780601f106108dd57610100808354040283529160200191610908565b820191906000526020600020905b8154815290600101906020018083116108eb57829003601f168201915b50505050508152602001600182018054610921906146d1565b80601f016020809104026020016040519081016040528092919081815260200182805461094d906146d1565b801561099a5780601f1061096f5761010080835404028352916020019161099a565b820191906000526020600020905b81548152906001019060200180831161097d57829003601f168201915b50505050508152602001600282015481526020016003820180546109bd906146d1565b80601f01602080910402602001604051908101604052809291908181526020018280546109e9906146d1565b8015610a365780601f10610a0b57610100808354040283529160200191610a36565b820191906000526020600020905b815481529060010190602001808311610a1957829003601f168201915b505050505081526020016004820160009054906101000a900460ff166004811115610a6457610a63613de3565b5b6004811115610a7657610a75613de3565b5b815260200160058201548152602001600682015481526020016007820160009054906101000a900460ff1615151515815250508152602001906001019061085b565b50505050905090565b806040518060400160405280600181526020017f640000000000000000000000000000000000000000000000000000000000000081525060001515826020015173__Stringhelper__________________________6360353db990916040518263ffffffff1660e01b8152600401610b399190614822565b602060405180830381865af4158015610b56573d6000803e3d6000fd5b505050506040513d601f19601f82011682018060405250810190610b7a919061486c565b151514610bbc576040517f08c379a0000000000000000000000000000000000000000000000000000000008152600401610bb3906148e5565b60405180910390fd5b6000826040015111610c03576040517f08c379a0000000000000000000000000000000000000000000000000000000008152600401610bfa90614951565b60405180910390fd5b8073__Stringhelper__________________________6360353db990916040518263ffffffff1660e01b8152600401610c3c91906149bd565b602060405180830381865af4158015610c59573d6000803e3d6000fd5b505050506040513d601f19601f82011682018060405250810190610c7d919061486c565b80610cfe57508073__Stringhelper__________________________6360353db990916040518263ffffffff1660e01b8152600401610cbc9190614a3e565b602060405180830381865af4158015610cd9573d6000803e3d6000fd5b505050506040513d601f19601f82011682018060405250810190610cfd919061486c565b5b15610efd573373ffffffffffffffffffffffffffffffffffffffff1660028360000151604051610d2e9190614aa4565b908152602001604051809103902060009054906101000a900473ffffffffffffffffffffffffffffffffffffffff1673ffffffffffffffffffffffffffffffffffffffff1614610db3576040517f08c379a0000000000000000000000000000000000000000000000000000000008152600401610daa90614b2d565b60405180910390fd5b60001515826000015173__Stringhelper__________________________6360353db990916040518263ffffffff1660e01b8152600401610df49190614822565b602060405180830381865af4158015610e11573d6000803e3d6000fd5b505050506040513d601f19601f82011682018060405250810190610e35919061486c565b151514610e77576040517f08c379a0000000000000000000000000000000000000000000000000000000008152600401610e6e90614b99565b60405180910390fd5b6000151560018360000151604051610e8f9190614aa4565b908152602001604051809103902060070160009054906101000a900460ff16151514610ef0576040517f08c379a0000000000000000000000000000000000000000000000000000000008152600401610ee790614c05565b60405180910390fd5b610efc82600133612c31565b5b3373ffffffffffffffffffffffffffffffffffffffff167fa815cdb6099afc3b4263cedf6c749542ae525182249480a4d25a11643fc8c57e84604051610f439190613f33565b60405180910390a2600460008460a0015181548110610f6557610f64614c25565b5b906000526020600020906008020160040160006101000a81548160ff02191690836004811115610f9857610f97613de3565b5b0217905550600460018460000151604051610fb39190614aa4565b908152602001604051809103902060040160006101000a81548160ff02191690836004811115610fe657610fe5613de3565b5b02179055506004600360003373ffffffffffffffffffffffffffffffffffffffff1673ffffffffffffffffffffffffffffffffffffffff1681526020019081526020016000208460c001518154811061104257611041614c25565b5b906000526020600020906008020160040160006101000a81548160ff0219169083600481111561107557611074613de3565b5b021790555061108682600033612c31565b505050565b806040518060400160405280600181526020017f750000000000000000000000000000000000000000000000000000000000000081525060001515826020015173__Stringhelper__________________________6360353db990916040518263ffffffff1660e01b81526004016111039190614822565b602060405180830381865af4158015611120573d6000803e3d6000fd5b505050506040513d601f19601f82011682018060405250810190611144919061486c565b151514611186576040517f08c379a000000000000000000000000000000000000000000000000000000000815260040161117d906148e5565b60405180910390fd5b60008260400151116111cd576040517f08c379a00000000000000000000000000000000000000000000000000000000081526004016111c490614951565b60405180910390fd5b8073__Stringhelper__________________________6360353db990916040518263ffffffff1660e01b815260040161120691906149bd565b602060405180830381865af4158015611223573d6000803e3d6000fd5b505050506040513d601f19601f82011682018060405250810190611247919061486c565b806112c857508073__Stringhelper__________________________6360353db990916040518263ffffffff1660e01b81526004016112869190614a3e565b602060405180830381865af41580156112a3573d6000803e3d6000fd5b505050506040513d601f19601f820116820180604052508101906112c7919061486c565b5b156114c7573373ffffffffffffffffffffffffffffffffffffffff16600283600001516040516112f89190614aa4565b908152602001604051809103902060009054906101000a900473ffffffffffffffffffffffffffffffffffffffff1673ffffffffffffffffffffffffffffffffffffffff161461137d576040517f08c379a000000000000000000000000000000000000000000000000000000000815260040161137490614b2d565b60405180910390fd5b60001515826000015173__Stringhelper__________________________6360353db990916040518263ffffffff1660e01b81526004016113be9190614822565b602060405180830381865af41580156113db573d6000803e3d6000fd5b505050506040513d601f19601f820116820180604052508101906113ff919061486c565b151514611441576040517f08c379a000000000000000000000000000000000000000000000000000000000815260040161143890614b99565b60405180910390fd5b60001515600183600001516040516114599190614aa4565b908152602001604051809103902060070160009054906101000a900460ff161515146114ba576040517f08c379a00000000000000000000000000000000000000000000000000000000081526004016114b190614c05565b60405180910390fd5b6114c682600133612c31565b5b3373ffffffffffffffffffffffffffffffffffffffff167fa815cdb6099afc3b4263cedf6c749542ae525182249480a4d25a11643fc8c57e8460405161150d9190613f33565b60405180910390a260006001846000015160405161152b9190614aa4565b90815260200160405180910390206005015490506000600185600001516040516115559190614aa4565b908152602001604051809103902060060154905084602001516000838154811061158257611581614c25565b5b906000526020600020906008020160010190805190602001906115a6929190613b2f565b508460400151600083815481106115c0576115bf614c25565b5b9060005260206000209060080201600201819055508460600151600083815481106115ee576115ed614c25565b5b90600052602060002090600802016003019080519060200190611612929190613b2f565b5084608001516000838154811061162c5761162b614c25565b5b906000526020600020906008020160040160006101000a81548160ff0219169083600481111561165f5761165e613de3565b5b021790555084602001516001866000015160405161167d9190614aa4565b908152602001604051809103902060010190805190602001906116a1929190613b2f565b508460400151600186600001516040516116bb9190614aa4565b9081526020016040518091039020600201819055508460600151600186600001516040516116e99190614aa4565b9081526020016040518091039020600301908051906020019061170d929190613b2f565b508460800151600186600001516040516117279190614aa4565b908152602001604051809103902060040160006101000a81548160ff0219169083600481111561175a57611759613de3565b5b02179055508460200151600360003373ffffffffffffffffffffffffffffffffffffffff1673ffffffffffffffffffffffffffffffffffffffff16815260200190815260200160002082815481106117b5576117b4614c25565b5b906000526020600020906008020160010190805190602001906117d9929190613b2f565b508460400151600360003373ffffffffffffffffffffffffffffffffffffffff1673ffffffffffffffffffffffffffffffffffffffff16815260200190815260200160002082815481106118305761182f614c25565b5b9060005260206000209060080201600201819055508460600151600360003373ffffffffffffffffffffffffffffffffffffffff1673ffffffffffffffffffffffffffffffffffffffff168152602001908152602001600020828154811061189b5761189a614c25565b5b906000526020600020906008020160030190805190602001906118bf929190613b2f565b508460800151600360003373ffffffffffffffffffffffffffffffffffffffff1673ffffffffffffffffffffffffffffffffffffffff168152602001908152602001600020828154811061191657611915614c25565b5b906000526020600020906008020160040160006101000a81548160ff0219169083600481111561194957611948613de3565b5b0217905550505061195c82600033612c31565b505050565b600460009054906101000a900473ffffffffffffffffffffffffffffffffffffffff1681565b6000606082471015611a1e573373ffffffffffffffffffffffffffffffffffffffff167f4ae838182dca7ab024017a18f2617813502c400e568be4c2f2028919da3b6ef285856040516119db929190614d25565b60405180910390a26040517f08c379a0000000000000000000000000000000000000000000000000000000008152600401611a1590614d61565b60405180910390fd5b8373ffffffffffffffffffffffffffffffffffffffff1683604051611a4290614734565b60006040518083038185875af1925050503d8060008114611a7f576040519150601f19603f3d011682016040523d82523d6000602084013e611a84565b606091505b5080925081935050503373ffffffffffffffffffffffffffffffffffffffff167fed3ba1780e70231014679b40b7ee7b7076ee1b16db9e0a9dc958c915abb614f7858585604051611ad793929190614da4565b60405180910390a29250929050565b6060600360003373ffffffffffffffffffffffffffffffffffffffff1673ffffffffffffffffffffffffffffffffffffffff168152602001908152602001600020805480602002602001604051908101604052809291908181526020016000905b82821015611da4578382906000526020600020906008020160405180610100016040529081600082018054611b7b906146d1565b80601f0160208091040260200160405190810160405280929190818152602001828054611ba7906146d1565b8015611bf45780601f10611bc957610100808354040283529160200191611bf4565b820191906000526020600020905b815481529060010190602001808311611bd757829003601f168201915b50505050508152602001600182018054611c0d906146d1565b80601f0160208091040260200160405190810160405280929190818152602001828054611c39906146d1565b8015611c865780601f10611c5b57610100808354040283529160200191611c86565b820191906000526020600020905b815481529060010190602001808311611c6957829003601f168201915b5050505050815260200160028201548152602001600382018054611ca9906146d1565b80601f0160208091040260200160405190810160405280929190818152602001828054611cd5906146d1565b8015611d225780601f10611cf757610100808354040283529160200191611d22565b820191906000526020600020905b815481529060010190602001808311611d0557829003601f168201915b505050505081526020016004820160009054906101000a900460ff166004811115611d5057611d4f613de3565b5b6004811115611d6257611d61613de3565b5b815260200160058201548152602001600682015481526020016007820160009054906101000a900460ff16151515158152505081526020019060010190611b47565b50505050905090565b806040518060400160405280600181526020017f630000000000000000000000000000000000000000000000000000000000000081525060001515826020015173__Stringhelper__________________________6360353db990916040518263ffffffff1660e01b8152600401611e259190614822565b602060405180830381865af4158015611e42573d6000803e3d6000fd5b505050506040513d601f19601f82011682018060405250810190611e66919061486c565b151514611ea8576040517f08c379a0000000000000000000000000000000000000000000000000000000008152600401611e9f906148e5565b60405180910390fd5b6000826040015111611eef576040517f08c379a0000000000000000000000000000000000000000000000000000000008152600401611ee690614951565b60405180910390fd5b8073__Stringhelper__________________________6360353db990916040518263ffffffff1660e01b8152600401611f2891906149bd565b602060405180830381865af4158015611f45573d6000803e3d6000fd5b505050506040513d601f19601f82011682018060405250810190611f69919061486c565b80611fea57508073__Stringhelper__________________________6360353db990916040518263ffffffff1660e01b8152600401611fa89190614a3e565b602060405180830381865af4158015611fc5573d6000803e3d6000fd5b505050506040513d601f19601f82011682018060405250810190611fe9919061486c565b5b156121e9573373ffffffffffffffffffffffffffffffffffffffff166002836000015160405161201a9190614aa4565b908152602001604051809103902060009054906101000a900473ffffffffffffffffffffffffffffffffffffffff1673ffffffffffffffffffffffffffffffffffffffff161461209f576040517f08c379a000000000000000000000000000000000000000000000000000000000815260040161209690614b2d565b60405180910390fd5b60001515826000015173__Stringhelper__________________________6360353db990916040518263ffffffff1660e01b81526004016120e09190614822565b602060405180830381865af41580156120fd573d6000803e3d6000fd5b505050506040513d601f19601f82011682018060405250810190612121919061486c565b151514612163576040517f08c379a000000000000000000000000000000000000000000000000000000000815260040161215a90614b99565b60405180910390fd5b600015156001836000015160405161217b9190614aa4565b908152602001604051809103902060070160009054906101000a900460ff161515146121dc576040517f08c379a00000000000000000000000000000000000000000000000000000000081526004016121d390614c05565b60405180910390fd5b6121e882600133612c31565b5b600073__Stringhelper__________________________6366a4391661220e42612d32565b60006040518363ffffffff1660e01b815260040161222d929190614e49565b600060405180830381865af415801561224a573d6000803e3d6000fd5b505050506040513d6000823e3d601f19601f820116820180604052508101906122739190614efc565b90508084600001819052506000805490508460a0018181525050600360003373ffffffffffffffffffffffffffffffffffffffff1673ffffffffffffffffffffffffffffffffffffffff168152602001908152602001600020805490508460c001818152505060008460e00190151590811515815250503373ffffffffffffffffffffffffffffffffffffffff167f162a3b654c8435cfb9122a292ac053ee6a13758ace278272875a4e172c4ebf18856040516123309190613f33565b60405180910390a260008490806001815401808255809150506001900390600052602060002090600802016000909190919091506000820151816000019080519060200190612380929190613b2f565b50602082015181600101908051906020019061239d929190613b2f565b506040820151816002015560608201518160030190805190602001906123c4929190613b2f565b5060808201518160040160006101000a81548160ff021916908360048111156123f0576123ef613de3565b5b021790555060a0820151816005015560c0820151816006015560e08201518160070160006101000a81548160ff02191690831515021790555050508360018260405161243c9190614aa4565b90815260200160405180910390206000820151816000019080519060200190612466929190613b2f565b506020820151816001019080519060200190612483929190613b2f565b506040820151816002015560608201518160030190805190602001906124aa929190613b2f565b5060808201518160040160006101000a81548160ff021916908360048111156124d6576124d5613de3565b5b021790555060a0820151816005015560c0820151816006015560e08201518160070160006101000a81548160ff021916908315150217905550905050336002826040516125239190614aa4565b908152602001604051809103902060006101000a81548173ffffffffffffffffffffffffffffffffffffffff021916908373ffffffffffffffffffffffffffffffffffffffff160217905550600360003373ffffffffffffffffffffffffffffffffffffffff1673ffffffffffffffffffffffffffffffffffffffff16815260200190815260200160002084908060018154018082558091505060019003906000526020600020906008020160009091909190915060008201518160000190805190602001906125f4929190613b2f565b506020820151816001019080519060200190612611929190613b2f565b50604082015181600201556060820151816003019080519060200190612638929190613b2f565b5060808201518160040160006101000a81548160ff0219169083600481111561266457612663613de3565b5b021790555060a0820151816005015560c0820151816006015560e08201518160070160006101000a81548160ff0219169083151502179055505050506126ac82600033612c31565b505050565b34600660003373ffffffffffffffffffffffffffffffffffffffff1673ffffffffffffffffffffffffffffffffffffffff16815260200190815260200160002060008282546127009190614f74565b92505081905550565b60003373ffffffffffffffffffffffffffffffffffffffff16600460009054906101000a900473ffffffffffffffffffffffffffffffffffffffff1673ffffffffffffffffffffffffffffffffffffffff161461279b576040517f08c379a000000000000000000000000000000000000000000000000000000000815260040161279290614639565b60405180910390fd5b47905090565b6000600283836040516127b5929190614689565b908152602001604051809103902060009054906101000a900473ffffffffffffffffffffffffffffffffffffffff16905092915050565b60055481565b818160001515826020015173__Stringhelper__________________________6360353db990916040518263ffffffff1660e01b81526004016128359190614822565b602060405180830381865af4158015612852573d6000803e3d6000fd5b505050506040513d601f19601f82011682018060405250810190612876919061486c565b1515146128b8576040517f08c379a00000000000000000000000000000000000000000000000000000000081526004016128af906148e5565b60405180910390fd5b60008260400151116128ff576040517f08c379a00000000000000000000000000000000000000000000000000000000081526004016128f690614951565b60405180910390fd5b60001515826000015173__Stringhelper__________________________6360353db990916040518263ffffffff1660e01b81526004016129409190614822565b602060405180830381865af415801561295d573d6000803e3d6000fd5b505050506040513d601f19601f82011682018060405250810190612981919061486c565b1515146129c3576040517f08c379a00000000000000000000000000000000000000000000000000000000081526004016129ba90614b99565b60405180910390fd5b60001515600183600001516040516129db9190614aa4565b908152602001604051809103902060070160009054906101000a900460ff16151514612a3c576040517f08c379a0000000000000000000000000000000000000000000000000000000008152600401612a3390614c05565b60405180910390fd5b60006004811115612a5057612a4f613de3565b5b82608001516004811115612a6757612a66613de3565b5b14612aa7576040517f08c379a0000000000000000000000000000000000000000000000000000000008152600401612a9e90615016565b60405180910390fd5b60028260000151604051612abb9190614aa4565b908152602001604051809103902060009054906101000a900473ffffffffffffffffffffffffffffffffffffffff1673ffffffffffffffffffffffffffffffffffffffff163373ffffffffffffffffffffffffffffffffffffffff161415612b58576040517f08c379a0000000000000000000000000000000000000000000000000000000008152600401612b4f90615082565b60405180910390fd5b8160400151341015612b9f576040517f08c379a0000000000000000000000000000000000000000000000000000000008152600401612b96906150ee565b60405180910390fd5b612bab82600183612c31565b3373ffffffffffffffffffffffffffffffffffffffff167f4ae838182dca7ab024017a18f2617813502c400e568be4c2f2028919da3b6ef28486604001518760000151604051612bfd9392919061510e565b60405180910390a2612c13838560400151611987565b5050612c1f8484612e93565b612c2b82600033612c31565b50505050565b8160008460a0015181548110612c4a57612c49614c25565b5b906000526020600020906008020160070160006101000a81548160ff0219169083151502179055508160018460000151604051612c879190614aa4565b908152602001604051809103902060070160006101000a81548160ff02191690831515021790555081600360008373ffffffffffffffffffffffffffffffffffffffff1673ffffffffffffffffffffffffffffffffffffffff1681526020019081526020016000208460c0015181548110612d0557612d04614c25565b5b906000526020600020906008020160070160006101000a81548160ff021916908315150217905550505050565b60606000821415612d7a576040518060400160405280600181526020017f30000000000000000000000000000000000000000000000000000000000000008152509050612e8e565b600082905060005b60008214612dac578080612d959061514c565b915050600a82612da591906151c4565b9150612d82565b60008167ffffffffffffffff811115612dc857612dc7614168565b5b6040519080825280601f01601f191660200182016040528015612dfa5781602001600182028036833780820191505090505b5090505b60008514612e8757600182612e1391906151f5565b9150600a85612e229190615229565b6030612e2e9190614f74565b60f81b818381518110612e4457612e43614c25565b5b60200101907effffffffffffffffffffffffffffffffffffffffffffffffffffffffffffff1916908160001a905350600a85612e8091906151c4565b9450612dfe565b8093505050505b919050565b60008260c001519050600383608001906004811115612eb557612eb4613de3565b5b90816004811115612ec957612ec8613de3565b5b81525050600360003373ffffffffffffffffffffffffffffffffffffffff1673ffffffffffffffffffffffffffffffffffffffff168152602001908152602001600020805490508360c00181815250508260008460a0015181548110612f3257612f31614c25565b5b90600052602060002090600802016000820151816000019080519060200190612f5c929190613b2f565b506020820151816001019080519060200190612f79929190613b2f565b50604082015181600201556060820151816003019080519060200190612fa0929190613b2f565b5060808201518160040160006101000a81548160ff02191690836004811115612fcc57612fcb613de3565b5b021790555060a0820151816005015560c0820151816006015560e08201518160070160006101000a81548160ff021916908315150217905550905050826001846000015160405161301d9190614aa4565b90815260200160405180910390206000820151816000019080519060200190613047929190613b2f565b506020820151816001019080519060200190613064929190613b2f565b5060408201518160020155606082015181600301908051906020019061308b929190613b2f565b5060808201518160040160006101000a81548160ff021916908360048111156130b7576130b6613de3565b5b021790555060a0820151816005015560c0820151816006015560e08201518160070160006101000a81548160ff02191690831515021790555090505033600284600001516040516131089190614aa4565b908152602001604051809103902060006101000a81548173ffffffffffffffffffffffffffffffffffffffff021916908373ffffffffffffffffffffffffffffffffffffffff160217905550600360003373ffffffffffffffffffffffffffffffffffffffff1673ffffffffffffffffffffffffffffffffffffffff16815260200190815260200160002083908060018154018082558091505060019003906000526020600020906008020160009091909190915060008201518160000190805190602001906131d9929190613b2f565b5060208201518160010190805190602001906131f6929190613b2f565b5060408201518160020155606082015181600301908051906020019061321d929190613b2f565b5060808201518160040160006101000a81548160ff0219169083600481111561324957613248613de3565b5b021790555060a0820151816005015560c0820151816006015560e08201518160070160006101000a81548160ff02191690831515021790555050506001600360008473ffffffffffffffffffffffffffffffffffffffff1673ffffffffffffffffffffffffffffffffffffffff16815260200190815260200160002080549050148061332257506001600360008473ffffffffffffffffffffffffffffffffffffffff1673ffffffffffffffffffffffffffffffffffffffff1681526020019081526020016000208054905061331f91906151f5565b81145b1561340457600360008373ffffffffffffffffffffffffffffffffffffffff1673ffffffffffffffffffffffffffffffffffffffff1681526020019081526020016000208054806133765761337561525a565b5b60019003818190600052602060002090600802016000808201600061339b9190613bb5565b6001820160006133ab9190613bb5565b60028201600090556003820160006133c39190613bb5565b6004820160006101000a81549060ff0219169055600582016000905560068201600090556007820160006101000a81549060ff021916905550509055613ad1565b6000600360008473ffffffffffffffffffffffffffffffffffffffff1673ffffffffffffffffffffffffffffffffffffffff1681526020019081526020016000206001600360008673ffffffffffffffffffffffffffffffffffffffff1673ffffffffffffffffffffffffffffffffffffffff1681526020019081526020016000208054905061349491906151f5565b815481106134a5576134a4614c25565b5b9060005260206000209060080201604051806101000160405290816000820180546134cf906146d1565b80601f01602080910402602001604051908101604052809291908181526020018280546134fb906146d1565b80156135485780601f1061351d57610100808354040283529160200191613548565b820191906000526020600020905b81548152906001019060200180831161352b57829003601f168201915b50505050508152602001600182018054613561906146d1565b80601f016020809104026020016040519081016040528092919081815260200182805461358d906146d1565b80156135da5780601f106135af576101008083540402835291602001916135da565b820191906000526020600020905b8154815290600101906020018083116135bd57829003601f168201915b50505050508152602001600282015481526020016003820180546135fd906146d1565b80601f0160208091040260200160405190810160405280929190818152602001828054613629906146d1565b80156136765780601f1061364b57610100808354040283529160200191613676565b820191906000526020600020905b81548152906001019060200180831161365957829003601f168201915b505050505081526020016004820160009054906101000a900460ff1660048111156136a4576136a3613de3565b5b60048111156136b6576136b5613de3565b5b815260200160058201548152602001600682015481526020016007820160009054906101000a900460ff1615151515815250509050818160c00181815250508060008260a001518154811061370e5761370d614c25565b5b90600052602060002090600802016000820151816000019080519060200190613738929190613b2f565b506020820151816001019080519060200190613755929190613b2f565b5060408201518160020155606082015181600301908051906020019061377c929190613b2f565b5060808201518160040160006101000a81548160ff021916908360048111156137a8576137a7613de3565b5b021790555060a0820151816005015560c0820151816006015560e08201518160070160006101000a81548160ff02191690831515021790555090505080600182600001516040516137f99190614aa4565b90815260200160405180910390206000820151816000019080519060200190613823929190613b2f565b506020820151816001019080519060200190613840929190613b2f565b50604082015181600201556060820151816003019080519060200190613867929190613b2f565b5060808201518160040160006101000a81548160ff0219169083600481111561389357613892613de3565b5b021790555060a0820151816005015560c0820151816006015560e08201518160070160006101000a81548160ff02191690831515021790555090505080600360008573ffffffffffffffffffffffffffffffffffffffff1673ffffffffffffffffffffffffffffffffffffffff168152602001908152602001600020838154811061392157613920614c25565b5b9060005260206000209060080201600082015181600001908051906020019061394b929190613b2f565b506020820151816001019080519060200190613968929190613b2f565b5060408201518160020155606082015181600301908051906020019061398f929190613b2f565b5060808201518160040160006101000a81548160ff021916908360048111156139bb576139ba613de3565b5b021790555060a0820151816005015560c0820151816006015560e08201518160070160006101000a81548160ff021916908315150217905550905050600360008473ffffffffffffffffffffffffffffffffffffffff1673ffffffffffffffffffffffffffffffffffffffff168152602001908152602001600020805480613a4657613a4561525a565b5b600190038181906000526020600020906008020160008082016000613a6b9190613bb5565b600182016000613a7b9190613bb5565b6002820160009055600382016000613a939190613bb5565b6004820160006101000a81549060ff0219169055600582016000905560068201600090556007820160006101000a81549060ff021916905550509055505b505050565b6040518061010001604052806060815260200160608152602001600081526020016060815260200160006004811115613b1257613b11613de3565b5b815260200160008152602001600081526020016000151581525090565b828054613b3b906146d1565b90600052602060002090601f016020900481019282613b5d5760008555613ba4565b82601f10613b7657805160ff1916838001178555613ba4565b82800160010185558215613ba4579182015b82811115613ba3578251825591602001919060010190613b88565b5b509050613bb19190613bf5565b5090565b508054613bc1906146d1565b6000825580601f10613bd35750613bf2565b601f016020900490600052602060002090810190613bf19190613bf5565b5b50565b5b80821115613c0e576000816000905550600101613bf6565b5090565b6000604051905090565b600080fd5b600080fd5b6000819050919050565b613c3981613c26565b8114613c4457600080fd5b50565b600081359050613c5681613c30565b92915050565b600060208284031215613c7257613c71613c1c565b5b6000613c8084828501613c47565b91505092915050565b600080fd5b600080fd5b600080fd5b60008083601f840112613cae57613cad613c89565b5b8235905067ffffffffffffffff811115613ccb57613cca613c8e565b5b602083019150836001820283011115613ce757613ce6613c93565b5b9250929050565b60008060208385031215613d0557613d04613c1c565b5b600083013567ffffffffffffffff811115613d2357613d22613c21565b5b613d2f85828601613c98565b92509250509250929050565b600081519050919050565b600082825260208201905092915050565b60005b83811015613d75578082015181840152602081019050613d5a565b83811115613d84576000848401525b50505050565b6000601f19601f8301169050919050565b6000613da682613d3b565b613db08185613d46565b9350613dc0818560208601613d57565b613dc981613d8a565b840191505092915050565b613ddd81613c26565b82525050565b7f4e487b7100000000000000000000000000000000000000000000000000000000600052602160045260246000fd5b60058110613e2357613e22613de3565b5b50565b6000819050613e3482613e12565b919050565b6000613e4482613e26565b9050919050565b613e5481613e39565b82525050565b60008115159050919050565b613e6f81613e5a565b82525050565b6000610100830160008301518482036000860152613e938282613d9b565b91505060208301518482036020860152613ead8282613d9b565b9150506040830151613ec26040860182613dd4565b5060608301518482036060860152613eda8282613d9b565b9150506080830151613eef6080860182613e4b565b5060a0830151613f0260a0860182613dd4565b5060c0830151613f1560c0860182613dd4565b5060e0830151613f2860e0860182613e66565b508091505092915050565b60006020820190508181036000830152613f4d8184613e75565b905092915050565b600082825260208201905092915050565b6000613f7182613d3b565b613f7b8185613f55565b9350613f8b818560208601613d57565b613f9481613d8a565b840191505092915050565b60006020820190508181036000830152613fb98184613f66565b905092915050565b600081519050919050565b600082825260208201905092915050565b6000819050602082019050919050565b600061010083016000830151848203600086015261400b8282613d9b565b915050602083015184820360208601526140258282613d9b565b915050604083015161403a6040860182613dd4565b50606083015184820360608601526140528282613d9b565b91505060808301516140676080860182613e4b565b5060a083015161407a60a0860182613dd4565b5060c083015161408d60c0860182613dd4565b5060e08301516140a060e0860182613e66565b508091505092915050565b60006140b78383613fed565b905092915050565b6000602082019050919050565b60006140d782613fc1565b6140e18185613fcc565b9350836020820285016140f385613fdd565b8060005b8581101561412f578484038952815161411085826140ab565b945061411b836140bf565b925060208a019950506001810190506140f7565b50829750879550505050505092915050565b6000602082019050818103600083015261415b81846140cc565b905092915050565b600080fd5b7f4e487b7100000000000000000000000000000000000000000000000000000000600052604160045260246000fd5b6141a082613d8a565b810181811067ffffffffffffffff821117156141bf576141be614168565b5b80604052505050565b60006141d2613c12565b90506141de8282614197565b919050565b600080fd5b600080fd5b600067ffffffffffffffff82111561420857614207614168565b5b61421182613d8a565b9050602081019050919050565b82818337600083830152505050565b600061424061423b846141ed565b6141c8565b90508281526020810184848401111561425c5761425b6141e8565b5b61426784828561421e565b509392505050565b600082601f83011261428457614283613c89565b5b813561429484826020860161422d565b91505092915050565b600581106142aa57600080fd5b50565b6000813590506142bc8161429d565b92915050565b6142cb81613e5a565b81146142d657600080fd5b50565b6000813590506142e8816142c2565b92915050565b6000610100828403121561430557614304614163565b5b6143106101006141c8565b9050600082013567ffffffffffffffff8111156143305761432f6141e3565b5b61433c8482850161426f565b600083015250602082013567ffffffffffffffff8111156143605761435f6141e3565b5b61436c8482850161426f565b602083015250604061438084828501613c47565b604083015250606082013567ffffffffffffffff8111156143a4576143a36141e3565b5b6143b08482850161426f565b60608301525060806143c4848285016142ad565b60808301525060a06143d884828501613c47565b60a08301525060c06143ec84828501613c47565b60c08301525060e0614400848285016142d9565b60e08301525092915050565b60006020828403121561442257614421613c1c565b5b600082013567ffffffffffffffff8111156144405761443f613c21565b5b61444c848285016142ee565b91505092915050565b600073ffffffffffffffffffffffffffffffffffffffff82169050919050565b600061448082614455565b9050919050565b61449081614475565b82525050565b60006020820190506144ab6000830184614487565b92915050565b60006144bc82614455565b9050919050565b6144cc816144b1565b81146144d757600080fd5b50565b6000813590506144e9816144c3565b92915050565b6000806040838503121561450657614505613c1c565b5b6000614514858286016144da565b925050602061452585828601613c47565b9150509250929050565b61453881613e5a565b82525050565b600081519050919050565b600082825260208201905092915050565b60006145658261453e565b61456f8185614549565b935061457f818560208601613d57565b61458881613d8a565b840191505092915050565b60006040820190506145a8600083018561452f565b81810360208301526145ba818461455a565b90509392505050565b6145cc81613c26565b82525050565b60006020820190506145e760008301846145c3565b92915050565b7f4f776e6572206f6e6c792e000000000000000000000000000000000000000000600082015250565b6000614623600b83613f55565b915061462e826145ed565b602082019050919050565b6000602082019050818103600083015261465281614616565b9050919050565b600081905092915050565b60006146708385614659565b935061467d83858461421e565b82840190509392505050565b6000614696828486614664565b91508190509392505050565b7f4e487b7100000000000000000000000000000000000000000000000000000000600052602260045260246000fd5b600060028204905060018216806146e957607f821691505b602082108114156146fd576146fc6146a2565b5b50919050565b600081905092915050565b50565b600061471e600083614703565b91506147298261470e565b600082019050919050565b600061473f82614711565b9150819050919050565b7f4661696c656420746f2073656e64204574686572000000000000000000000000600082015250565b600061477f601483613f55565b915061478a82614749565b602082019050919050565b600060208201905081810360008301526147ae81614772565b9050919050565b600082825260208201905092915050565b60006147d182613d3b565b6147db81856147b5565b93506147eb818560208601613d57565b6147f481613d8a565b840191505092915050565b600061480c6000836147b5565b91506148178261470e565b600082019050919050565b6000604082019050818103600083015261483c81846147c6565b9050818103602083015261484f816147ff565b905092915050565b600081519050614866816142c2565b92915050565b60006020828403121561488257614881613c1c565b5b600061489084828501614857565b91505092915050565b7f4974656d206e616d652063616e206e6f74206c6561766520626c616e6b2e0000600082015250565b60006148cf601e83613f55565b91506148da82614899565b602082019050919050565b600060208201905081810360008301526148fe816148c2565b9050919050565b7f4974656d2070726963652063616e206e6f74206c6f776572207468656e20302e600082015250565b600061493b602083613f55565b915061494682614905565b602082019050919050565b6000602082019050818103600083015261496a8161492e565b9050919050565b7f7500000000000000000000000000000000000000000000000000000000000000600082015250565b60006149a76001836147b5565b91506149b282614971565b602082019050919050565b600060408201905081810360008301526149d781846147c6565b905081810360208301526149ea8161499a565b905092915050565b7f6400000000000000000000000000000000000000000000000000000000000000600082015250565b6000614a286001836147b5565b9150614a33826149f2565b602082019050919050565b60006040820190508181036000830152614a5881846147c6565b90508181036020830152614a6b81614a1b565b905092915050565b6000614a7e82613d3b565b614a888185614659565b9350614a98818560208601613d57565b80840191505092915050565b6000614ab08284614a73565b915081905092915050565b7f54686973206973206e6f7420796f7572206974656d206f72206974656d206e7560008201527f6d6265722069732077726f6e672e000000000000000000000000000000000000602082015250565b6000614b17602e83613f55565b9150614b2282614abb565b604082019050919050565b60006020820190508181036000830152614b4681614b0a565b9050919050565b7f4974656d206e756d62657220697320626c616e6b000000000000000000000000600082015250565b6000614b83601483613f55565b9150614b8e82614b4d565b602082019050919050565b60006020820190508181036000830152614bb281614b76565b9050919050565b7f4974656d206973206c6f636b65642c206f706572617465206c617465722e0000600082015250565b6000614bef601e83613f55565b9150614bfa82614bb9565b602082019050919050565b60006020820190508181036000830152614c1e81614be2565b9050919050565b7f4e487b7100000000000000000000000000000000000000000000000000000000600052603260045260246000fd5b6000819050919050565b6000614c79614c74614c6f84614455565b614c54565b614455565b9050919050565b6000614c8b82614c5e565b9050919050565b6000614c9d82614c80565b9050919050565b614cad81614c92565b82525050565b7f546869732076616c75652069732067726561746572207468616e20636f6e747260008201527f6163742077616c6c65742e000000000000000000000000000000000000000000602082015250565b6000614d0f602b83613f55565b9150614d1a82614cb3565b604082019050919050565b6000606082019050614d3a6000830185614ca4565b614d4760208301846145c3565b8181036040830152614d5881614d02565b90509392505050565b60006020820190508181036000830152614d7a81614d02565b9050919050565b6000614d8e600083613f55565b9150614d998261470e565b600082019050919050565b6000608082019050614db96000830186614ca4565b614dc660208301856145c3565b614dd3604083018461452f565b8181036060830152614de481614d81565b9050949350505050565b7f6974656d00000000000000000000000000000000000000000000000000000000600082015250565b6000614e246004836147b5565b9150614e2f82614dee565b602082019050919050565b614e4381613e5a565b82525050565b60006060820190508181036000830152614e6281614e17565b90508181036020830152614e7681856147c6565b9050614e856040830184614e3a565b9392505050565b6000614e9f614e9a846141ed565b6141c8565b905082815260208101848484011115614ebb57614eba6141e8565b5b614ec6848285613d57565b509392505050565b600082601f830112614ee357614ee2613c89565b5b8151614ef3848260208601614e8c565b91505092915050565b600060208284031215614f1257614f11613c1c565b5b600082015167ffffffffffffffff811115614f3057614f2f613c21565b5b614f3c84828501614ece565b91505092915050565b7f4e487b7100000000000000000000000000000000000000000000000000000000600052601160045260246000fd5b6000614f7f82613c26565b9150614f8a83613c26565b9250827fffffffffffffffffffffffffffffffffffffffffffffffffffffffffffffffff03821115614fbf57614fbe614f45565b5b828201905092915050565b7f4974656d20737461747573206973206e6f74206f70656e000000000000000000600082015250565b6000615000601783613f55565b915061500b82614fca565b602082019050919050565b6000602082019050818103600083015261502f81614ff3565b9050919050565b7f446f6e27742062757920796f7572207374756666000000000000000000000000600082015250565b600061506c601483613f55565b915061507782615036565b602082019050919050565b6000602082019050818103600083015261509b8161505f565b9050919050565b7f596f75722062616c616e636520697320496e73756666696369656e742e000000600082015250565b60006150d8601d83613f55565b91506150e3826150a2565b602082019050919050565b60006020820190508181036000830152615107816150cb565b9050919050565b60006060820190506151236000830186614ca4565b61513060208301856145c3565b81810360408301526151428184613f66565b9050949350505050565b600061515782613c26565b91507fffffffffffffffffffffffffffffffffffffffffffffffffffffffffffffffff82141561518a57615189614f45565b5b600182019050919050565b7f4e487b7100000000000000000000000000000000000000000000000000000000600052601260045260246000fd5b60006151cf82613c26565b91506151da83613c26565b9250826151ea576151e9615195565b5b828204905092915050565b600061520082613c26565b915061520b83613c26565b92508282101561521e5761521d614f45565b5b828203905092915050565b600061523482613c26565b915061523f83613c26565b92508261524f5761524e615195565b5b828206905092915050565b7f4e487b7100000000000000000000000000000000000000000000000000000000600052603160045260246000fdfea2646970667358221220ad597d86e7d07e6a07a46765cfcb903591f08e43e467adcd13d956e22de5d96364736f6c634300080c0033",
  "immutableReferences": {},
  "source": "// SPDX-License-Identifier: UNLICENSED\r\npragma solidity >= 0.8.0;\r\n\r\nimport \"./Owner.sol\";\r\nimport \"./Item.sol\";\r\n\r\ncontract Deal is Item, Owner{\r\n\r\n    event buyLog(address indexed from, address to, uint value, string log);\r\n    event transferLog(address indexed from, address to, uint value, bool isSuccess, string log);\r\n\r\n    function hello() override public pure returns(string memory returnStr ){\r\n        returnStr = \"Hello, this is deal contract!\";\r\n    }\r\n\r\n    function buy(string calldata itemNo) public payable {\r\n        \r\n        buyProcess( getOneItem(itemNo), payable(getItemOwner(itemNo)) );\r\n        \r\n    }\r\n\r\n    function buyProcess(itemInfo memory item, address payable seller) private buyChk(item, seller) {\r\n\r\n        emit buyLog(msg.sender, seller, item.price, item.itemNo);\r\n\r\n        transfer(seller, item.price);\r\n\r\n        changeItemOwner(item, seller);\r\n\r\n    }\r\n\r\n    function transfer(address payable _to, uint price) public payable returns(bool isSuccess, bytes memory data){\r\n        \r\n        if(address(this).balance < price){\r\n            emit buyLog(msg.sender, _to, price, \"This value is greater than contract wallet.\");\r\n            revert(\"This value is greater than contract wallet.\");\r\n        }\r\n        \r\n        (isSuccess, data) = _to.call {value: price}(\"\");\r\n        emit transferLog(msg.sender, _to, price, isSuccess, \"\");\r\n\r\n    }\r\n\r\n}",
  "sourcePath": "C:\\Project\\simpleshop\\contract\\contracts\\Deal.sol",
  "compiler": {
    "name": "solc",
    "version": "0.8.12+commit.f00d7308.Emscripten.clang"
  },
  "schemaVersion": "3.4.6",
  "updatedAt": "2022-04-11T12:29:03.605Z",
  "networkType": "ethereum",
  "devdoc": {
    "kind": "dev",
    "methods": {},
    "version": 1
  },
  "userdoc": {
    "kind": "user",
    "methods": {},
    "version": 1
  }
}