{
  "contractName": "Item",
  "abi": [
    {
      "anonymous": false,
      "inputs": [
        {
          "indexed": true,
          "internalType": "address",
          "name": "",
          "type": "address"
        },
        {
          "components": [
            {
              "internalType": "string",
              "name": "itemNo",
              "type": "string"
            },
            {
              "internalType": "string",
              "name": "name",
              "type": "string"
            },
            {
              "internalType": "uint256",
              "name": "price",
              "type": "uint256"
            },
            {
              "internalType": "string",
              "name": "pic",
              "type": "string"
            },
            {
              "internalType": "enum Item.itemStatus",
              "name": "status",
              "type": "uint8"
            },
            {
              "internalType": "uint256",
              "name": "itemsArraySeq",
              "type": "uint256"
            },
            {
              "internalType": "uint256",
              "name": "myItemsMapSeq",
              "type": "uint256"
            },
            {
              "internalType": "bool",
              "name": "isLocked",
              "type": "bool"
            }
          ],
          "indexed": false,
          "internalType": "struct Item.itemInfo",
          "name": "",
          "type": "tuple"
        }
      ],
      "name": "createItemEvent",
      "type": "event"
    },
    {
      "anonymous": false,
      "inputs": [
        {
          "indexed": true,
          "internalType": "address",
          "name": "",
          "type": "address"
        },
        {
          "components": [
            {
              "internalType": "string",
              "name": "itemNo",
              "type": "string"
            },
            {
              "internalType": "string",
              "name": "name",
              "type": "string"
            },
            {
              "internalType": "uint256",
              "name": "price",
              "type": "uint256"
            },
            {
              "internalType": "string",
              "name": "pic",
              "type": "string"
            },
            {
              "internalType": "enum Item.itemStatus",
              "name": "status",
              "type": "uint8"
            },
            {
              "internalType": "uint256",
              "name": "itemsArraySeq",
              "type": "uint256"
            },
            {
              "internalType": "uint256",
              "name": "myItemsMapSeq",
              "type": "uint256"
            },
            {
              "internalType": "bool",
              "name": "isLocked",
              "type": "bool"
            }
          ],
          "indexed": false,
          "internalType": "struct Item.itemInfo",
          "name": "",
          "type": "tuple"
        }
      ],
      "name": "modifyItemEvent",
      "type": "event"
    },
    {
      "inputs": [],
      "name": "hello",
      "outputs": [
        {
          "internalType": "string",
          "name": "returnStr",
          "type": "string"
        }
      ],
      "stateMutability": "pure",
      "type": "function",
      "constant": true
    },
    {
      "inputs": [],
      "name": "getAllItems",
      "outputs": [
        {
          "components": [
            {
              "internalType": "string",
              "name": "itemNo",
              "type": "string"
            },
            {
              "internalType": "string",
              "name": "name",
              "type": "string"
            },
            {
              "internalType": "uint256",
              "name": "price",
              "type": "uint256"
            },
            {
              "internalType": "string",
              "name": "pic",
              "type": "string"
            },
            {
              "internalType": "enum Item.itemStatus",
              "name": "status",
              "type": "uint8"
            },
            {
              "internalType": "uint256",
              "name": "itemsArraySeq",
              "type": "uint256"
            },
            {
              "internalType": "uint256",
              "name": "myItemsMapSeq",
              "type": "uint256"
            },
            {
              "internalType": "bool",
              "name": "isLocked",
              "type": "bool"
            }
          ],
          "internalType": "struct Item.itemInfo[]",
          "name": "",
          "type": "tuple[]"
        }
      ],
      "stateMutability": "view",
      "type": "function",
      "constant": true
    },
    {
      "inputs": [
        {
          "internalType": "string",
          "name": "itemNo",
          "type": "string"
        }
      ],
      "name": "getOneItem",
      "outputs": [
        {
          "components": [
            {
              "internalType": "string",
              "name": "itemNo",
              "type": "string"
            },
            {
              "internalType": "string",
              "name": "name",
              "type": "string"
            },
            {
              "internalType": "uint256",
              "name": "price",
              "type": "uint256"
            },
            {
              "internalType": "string",
              "name": "pic",
              "type": "string"
            },
            {
              "internalType": "enum Item.itemStatus",
              "name": "status",
              "type": "uint8"
            },
            {
              "internalType": "uint256",
              "name": "itemsArraySeq",
              "type": "uint256"
            },
            {
              "internalType": "uint256",
              "name": "myItemsMapSeq",
              "type": "uint256"
            },
            {
              "internalType": "bool",
              "name": "isLocked",
              "type": "bool"
            }
          ],
          "internalType": "struct Item.itemInfo",
          "name": "",
          "type": "tuple"
        }
      ],
      "stateMutability": "view",
      "type": "function",
      "constant": true
    },
    {
      "inputs": [
        {
          "internalType": "string",
          "name": "itemNo",
          "type": "string"
        }
      ],
      "name": "getItemOwner",
      "outputs": [
        {
          "internalType": "address",
          "name": "",
          "type": "address"
        }
      ],
      "stateMutability": "view",
      "type": "function",
      "constant": true
    },
    {
      "inputs": [],
      "name": "getMyItems",
      "outputs": [
        {
          "components": [
            {
              "internalType": "string",
              "name": "itemNo",
              "type": "string"
            },
            {
              "internalType": "string",
              "name": "name",
              "type": "string"
            },
            {
              "internalType": "uint256",
              "name": "price",
              "type": "uint256"
            },
            {
              "internalType": "string",
              "name": "pic",
              "type": "string"
            },
            {
              "internalType": "enum Item.itemStatus",
              "name": "status",
              "type": "uint8"
            },
            {
              "internalType": "uint256",
              "name": "itemsArraySeq",
              "type": "uint256"
            },
            {
              "internalType": "uint256",
              "name": "myItemsMapSeq",
              "type": "uint256"
            },
            {
              "internalType": "bool",
              "name": "isLocked",
              "type": "bool"
            }
          ],
          "internalType": "struct Item.itemInfo[]",
          "name": "",
          "type": "tuple[]"
        }
      ],
      "stateMutability": "view",
      "type": "function",
      "constant": true
    },
    {
      "inputs": [
        {
          "components": [
            {
              "internalType": "string",
              "name": "itemNo",
              "type": "string"
            },
            {
              "internalType": "string",
              "name": "name",
              "type": "string"
            },
            {
              "internalType": "uint256",
              "name": "price",
              "type": "uint256"
            },
            {
              "internalType": "string",
              "name": "pic",
              "type": "string"
            },
            {
              "internalType": "enum Item.itemStatus",
              "name": "status",
              "type": "uint8"
            },
            {
              "internalType": "uint256",
              "name": "itemsArraySeq",
              "type": "uint256"
            },
            {
              "internalType": "uint256",
              "name": "myItemsMapSeq",
              "type": "uint256"
            },
            {
              "internalType": "bool",
              "name": "isLocked",
              "type": "bool"
            }
          ],
          "internalType": "struct Item.itemInfo",
          "name": "item",
          "type": "tuple"
        }
      ],
      "name": "createItem",
      "outputs": [],
      "stateMutability": "nonpayable",
      "type": "function"
    },
    {
      "inputs": [
        {
          "components": [
            {
              "internalType": "string",
              "name": "itemNo",
              "type": "string"
            },
            {
              "internalType": "string",
              "name": "name",
              "type": "string"
            },
            {
              "internalType": "uint256",
              "name": "price",
              "type": "uint256"
            },
            {
              "internalType": "string",
              "name": "pic",
              "type": "string"
            },
            {
              "internalType": "enum Item.itemStatus",
              "name": "status",
              "type": "uint8"
            },
            {
              "internalType": "uint256",
              "name": "itemsArraySeq",
              "type": "uint256"
            },
            {
              "internalType": "uint256",
              "name": "myItemsMapSeq",
              "type": "uint256"
            },
            {
              "internalType": "bool",
              "name": "isLocked",
              "type": "bool"
            }
          ],
          "internalType": "struct Item.itemInfo",
          "name": "item",
          "type": "tuple"
        }
      ],
      "name": "updateItem",
      "outputs": [],
      "stateMutability": "nonpayable",
      "type": "function"
    },
    {
      "inputs": [
        {
          "components": [
            {
              "internalType": "string",
              "name": "itemNo",
              "type": "string"
            },
            {
              "internalType": "string",
              "name": "name",
              "type": "string"
            },
            {
              "internalType": "uint256",
              "name": "price",
              "type": "uint256"
            },
            {
              "internalType": "string",
              "name": "pic",
              "type": "string"
            },
            {
              "internalType": "enum Item.itemStatus",
              "name": "status",
              "type": "uint8"
            },
            {
              "internalType": "uint256",
              "name": "itemsArraySeq",
              "type": "uint256"
            },
            {
              "internalType": "uint256",
              "name": "myItemsMapSeq",
              "type": "uint256"
            },
            {
              "internalType": "bool",
              "name": "isLocked",
              "type": "bool"
            }
          ],
          "internalType": "struct Item.itemInfo",
          "name": "item",
          "type": "tuple"
        }
      ],
      "name": "deleteItem",
      "outputs": [],
      "stateMutability": "nonpayable",
      "type": "function"
    }
  ],
  "bytecode": "0x608060405234801561001057600080fd5b506135ba806100206000396000f3fe608060405234801561001057600080fd5b50600436106100885760003560e01c80637ee423771161005b5780637ee4237714610115578063c5fb207d14610131578063c8c8670e1461014f578063df49cb191461016b57610088565b80630e86773b1461008d57806319ff1d21146100bd5780634ba1d6aa146100db57806370718e16146100f9575b600080fd5b6100a760048036038101906100a29190612555565b61019b565b6040516100b491906127a4565b60405180910390f35b6100c5610401565b6040516100d29190612810565b60405180910390f35b6100e361043e565b6040516100f091906129b2565b60405180910390f35b610113600480360381019061010e9190612ca9565b6106c8565b005b61012f600480360381019061012a9190612ca9565b610c92565b005b610139611568565b60405161014691906129b2565b60405180910390f35b61016960048036038101906101649190612ca9565b61182f565b005b61018560048036038101906101809190612555565b612133565b6040516101929190612d33565b60405180910390f35b6101a36123e0565b600183836040516101b5929190612d7e565b9081526020016040518091039020604051806101000160405290816000820180546101df90612dc6565b80601f016020809104026020016040519081016040528092919081815260200182805461020b90612dc6565b80156102585780601f1061022d57610100808354040283529160200191610258565b820191906000526020600020905b81548152906001019060200180831161023b57829003601f168201915b5050505050815260200160018201805461027190612dc6565b80601f016020809104026020016040519081016040528092919081815260200182805461029d90612dc6565b80156102ea5780601f106102bf576101008083540402835291602001916102ea565b820191906000526020600020905b8154815290600101906020018083116102cd57829003601f168201915b505050505081526020016002820154815260200160038201805461030d90612dc6565b80601f016020809104026020016040519081016040528092919081815260200182805461033990612dc6565b80156103865780601f1061035b57610100808354040283529160200191610386565b820191906000526020600020905b81548152906001019060200180831161036957829003601f168201915b505050505081526020016004820160009054906101000a900460ff1660048111156103b4576103b3612654565b5b60048111156103c6576103c5612654565b5b815260200160058201548152602001600682015481526020016007820160009054906101000a900460ff161515151581525050905092915050565b60606040518060400160405280601d81526020017f48656c6c6f2c2074686973206973206974656d20636f6e747261637421000000815250905090565b60606000805480602002602001604051908101604052809291908181526020016000905b828210156106bf57838290600052602060002090600802016040518061010001604052908160008201805461049690612dc6565b80601f01602080910402602001604051908101604052809291908181526020018280546104c290612dc6565b801561050f5780601f106104e45761010080835404028352916020019161050f565b820191906000526020600020905b8154815290600101906020018083116104f257829003601f168201915b5050505050815260200160018201805461052890612dc6565b80601f016020809104026020016040519081016040528092919081815260200182805461055490612dc6565b80156105a15780601f10610576576101008083540402835291602001916105a1565b820191906000526020600020905b81548152906001019060200180831161058457829003601f168201915b50505050508152602001600282015481526020016003820180546105c490612dc6565b80601f01602080910402602001604051908101604052809291908181526020018280546105f090612dc6565b801561063d5780601f106106125761010080835404028352916020019161063d565b820191906000526020600020905b81548152906001019060200180831161062057829003601f168201915b505050505081526020016004820160009054906101000a900460ff16600481111561066b5761066a612654565b5b600481111561067d5761067c612654565b5b815260200160058201548152602001600682015481526020016007820160009054906101000a900460ff16151515158152505081526020019060010190610462565b50505050905090565b806040518060400160405280600181526020017f640000000000000000000000000000000000000000000000000000000000000081525060001515826020015173__Stringhelper__________________________6360353db990916040518263ffffffff1660e01b81526004016107409190612e68565b602060405180830381865af415801561075d573d6000803e3d6000fd5b505050506040513d601f19601f820116820180604052508101906107819190612eb2565b1515146107c3576040517f08c379a00000000000000000000000000000000000000000000000000000000081526004016107ba90612f2b565b60405180910390fd5b600082604001511161080a576040517f08c379a000000000000000000000000000000000000000000000000000000000815260040161080190612f97565b60405180910390fd5b8073__Stringhelper__________________________6360353db990916040518263ffffffff1660e01b81526004016108439190613003565b602060405180830381865af4158015610860573d6000803e3d6000fd5b505050506040513d601f19601f820116820180604052508101906108849190612eb2565b8061090557508073__Stringhelper__________________________6360353db990916040518263ffffffff1660e01b81526004016108c39190613084565b602060405180830381865af41580156108e0573d6000803e3d6000fd5b505050506040513d601f19601f820116820180604052508101906109049190612eb2565b5b15610b04573373ffffffffffffffffffffffffffffffffffffffff166002836000015160405161093591906130ea565b908152602001604051809103902060009054906101000a900473ffffffffffffffffffffffffffffffffffffffff1673ffffffffffffffffffffffffffffffffffffffff16146109ba576040517f08c379a00000000000000000000000000000000000000000000000000000000081526004016109b190613173565b60405180910390fd5b60001515826000015173__Stringhelper__________________________6360353db990916040518263ffffffff1660e01b81526004016109fb9190612e68565b602060405180830381865af4158015610a18573d6000803e3d6000fd5b505050506040513d601f19601f82011682018060405250810190610a3c9190612eb2565b151514610a7e576040517f08c379a0000000000000000000000000000000000000000000000000000000008152600401610a75906131df565b60405180910390fd5b6000151560018360000151604051610a9691906130ea565b908152602001604051809103902060070160009054906101000a900460ff16151514610af7576040517f08c379a0000000000000000000000000000000000000000000000000000000008152600401610aee9061324b565b60405180910390fd5b610b038260013361217e565b5b3373ffffffffffffffffffffffffffffffffffffffff167fa815cdb6099afc3b4263cedf6c749542ae525182249480a4d25a11643fc8c57e84604051610b4a91906127a4565b60405180910390a2600460008460a0015181548110610b6c57610b6b61326b565b5b906000526020600020906008020160040160006101000a81548160ff02191690836004811115610b9f57610b9e612654565b5b0217905550600460018460000151604051610bba91906130ea565b908152602001604051809103902060040160006101000a81548160ff02191690836004811115610bed57610bec612654565b5b02179055506004600360003373ffffffffffffffffffffffffffffffffffffffff1673ffffffffffffffffffffffffffffffffffffffff1681526020019081526020016000208460c0015181548110610c4957610c4861326b565b5b906000526020600020906008020160040160006101000a81548160ff02191690836004811115610c7c57610c7b612654565b5b0217905550610c8d8260003361217e565b505050565b806040518060400160405280600181526020017f750000000000000000000000000000000000000000000000000000000000000081525060001515826020015173__Stringhelper__________________________6360353db990916040518263ffffffff1660e01b8152600401610d0a9190612e68565b602060405180830381865af4158015610d27573d6000803e3d6000fd5b505050506040513d601f19601f82011682018060405250810190610d4b9190612eb2565b151514610d8d576040517f08c379a0000000000000000000000000000000000000000000000000000000008152600401610d8490612f2b565b60405180910390fd5b6000826040015111610dd4576040517f08c379a0000000000000000000000000000000000000000000000000000000008152600401610dcb90612f97565b60405180910390fd5b8073__Stringhelper__________________________6360353db990916040518263ffffffff1660e01b8152600401610e0d9190613003565b602060405180830381865af4158015610e2a573d6000803e3d6000fd5b505050506040513d601f19601f82011682018060405250810190610e4e9190612eb2565b80610ecf57508073__Stringhelper__________________________6360353db990916040518263ffffffff1660e01b8152600401610e8d9190613084565b602060405180830381865af4158015610eaa573d6000803e3d6000fd5b505050506040513d601f19601f82011682018060405250810190610ece9190612eb2565b5b156110ce573373ffffffffffffffffffffffffffffffffffffffff1660028360000151604051610eff91906130ea565b908152602001604051809103902060009054906101000a900473ffffffffffffffffffffffffffffffffffffffff1673ffffffffffffffffffffffffffffffffffffffff1614610f84576040517f08c379a0000000000000000000000000000000000000000000000000000000008152600401610f7b90613173565b60405180910390fd5b60001515826000015173__Stringhelper__________________________6360353db990916040518263ffffffff1660e01b8152600401610fc59190612e68565b602060405180830381865af4158015610fe2573d6000803e3d6000fd5b505050506040513d601f19601f820116820180604052508101906110069190612eb2565b151514611048576040517f08c379a000000000000000000000000000000000000000000000000000000000815260040161103f906131df565b60405180910390fd5b600015156001836000015160405161106091906130ea565b908152602001604051809103902060070160009054906101000a900460ff161515146110c1576040517f08c379a00000000000000000000000000000000000000000000000000000000081526004016110b89061324b565b60405180910390fd5b6110cd8260013361217e565b5b3373ffffffffffffffffffffffffffffffffffffffff167fa815cdb6099afc3b4263cedf6c749542ae525182249480a4d25a11643fc8c57e8460405161111491906127a4565b60405180910390a260006001846000015160405161113291906130ea565b908152602001604051809103902060050154905060006001856000015160405161115c91906130ea565b90815260200160405180910390206006015490508460200151600083815481106111895761118861326b565b5b906000526020600020906008020160010190805190602001906111ad929190612439565b508460400151600083815481106111c7576111c661326b565b5b9060005260206000209060080201600201819055508460600151600083815481106111f5576111f461326b565b5b90600052602060002090600802016003019080519060200190611219929190612439565b508460800151600083815481106112335761123261326b565b5b906000526020600020906008020160040160006101000a81548160ff0219169083600481111561126657611265612654565b5b021790555084602001516001866000015160405161128491906130ea565b908152602001604051809103902060010190805190602001906112a8929190612439565b508460400151600186600001516040516112c291906130ea565b9081526020016040518091039020600201819055508460600151600186600001516040516112f091906130ea565b90815260200160405180910390206003019080519060200190611314929190612439565b5084608001516001866000015160405161132e91906130ea565b908152602001604051809103902060040160006101000a81548160ff0219169083600481111561136157611360612654565b5b02179055508460200151600360003373ffffffffffffffffffffffffffffffffffffffff1673ffffffffffffffffffffffffffffffffffffffff16815260200190815260200160002082815481106113bc576113bb61326b565b5b906000526020600020906008020160010190805190602001906113e0929190612439565b508460400151600360003373ffffffffffffffffffffffffffffffffffffffff1673ffffffffffffffffffffffffffffffffffffffff16815260200190815260200160002082815481106114375761143661326b565b5b9060005260206000209060080201600201819055508460600151600360003373ffffffffffffffffffffffffffffffffffffffff1673ffffffffffffffffffffffffffffffffffffffff16815260200190815260200160002082815481106114a2576114a161326b565b5b906000526020600020906008020160030190805190602001906114c6929190612439565b508460800151600360003373ffffffffffffffffffffffffffffffffffffffff1673ffffffffffffffffffffffffffffffffffffffff168152602001908152602001600020828154811061151d5761151c61326b565b5b906000526020600020906008020160040160006101000a81548160ff021916908360048111156115505761154f612654565b5b021790555050506115638260003361217e565b505050565b6060600360003373ffffffffffffffffffffffffffffffffffffffff1673ffffffffffffffffffffffffffffffffffffffff168152602001908152602001600020805480602002602001604051908101604052809291908181526020016000905b828210156118265783829060005260206000209060080201604051806101000160405290816000820180546115fd90612dc6565b80601f016020809104026020016040519081016040528092919081815260200182805461162990612dc6565b80156116765780601f1061164b57610100808354040283529160200191611676565b820191906000526020600020905b81548152906001019060200180831161165957829003601f168201915b5050505050815260200160018201805461168f90612dc6565b80601f01602080910402602001604051908101604052809291908181526020018280546116bb90612dc6565b80156117085780601f106116dd57610100808354040283529160200191611708565b820191906000526020600020905b8154815290600101906020018083116116eb57829003601f168201915b505050505081526020016002820154815260200160038201805461172b90612dc6565b80601f016020809104026020016040519081016040528092919081815260200182805461175790612dc6565b80156117a45780601f10611779576101008083540402835291602001916117a4565b820191906000526020600020905b81548152906001019060200180831161178757829003601f168201915b505050505081526020016004820160009054906101000a900460ff1660048111156117d2576117d1612654565b5b60048111156117e4576117e3612654565b5b815260200160058201548152602001600682015481526020016007820160009054906101000a900460ff161515151581525050815260200190600101906115c9565b50505050905090565b806040518060400160405280600181526020017f630000000000000000000000000000000000000000000000000000000000000081525060001515826020015173__Stringhelper__________________________6360353db990916040518263ffffffff1660e01b81526004016118a79190612e68565b602060405180830381865af41580156118c4573d6000803e3d6000fd5b505050506040513d601f19601f820116820180604052508101906118e89190612eb2565b15151461192a576040517f08c379a000000000000000000000000000000000000000000000000000000000815260040161192190612f2b565b60405180910390fd5b6000826040015111611971576040517f08c379a000000000000000000000000000000000000000000000000000000000815260040161196890612f97565b60405180910390fd5b8073__Stringhelper__________________________6360353db990916040518263ffffffff1660e01b81526004016119aa9190613003565b602060405180830381865af41580156119c7573d6000803e3d6000fd5b505050506040513d601f19601f820116820180604052508101906119eb9190612eb2565b80611a6c57508073__Stringhelper__________________________6360353db990916040518263ffffffff1660e01b8152600401611a2a9190613084565b602060405180830381865af4158015611a47573d6000803e3d6000fd5b505050506040513d601f19601f82011682018060405250810190611a6b9190612eb2565b5b15611c6b573373ffffffffffffffffffffffffffffffffffffffff1660028360000151604051611a9c91906130ea565b908152602001604051809103902060009054906101000a900473ffffffffffffffffffffffffffffffffffffffff1673ffffffffffffffffffffffffffffffffffffffff1614611b21576040517f08c379a0000000000000000000000000000000000000000000000000000000008152600401611b1890613173565b60405180910390fd5b60001515826000015173__Stringhelper__________________________6360353db990916040518263ffffffff1660e01b8152600401611b629190612e68565b602060405180830381865af4158015611b7f573d6000803e3d6000fd5b505050506040513d601f19601f82011682018060405250810190611ba39190612eb2565b151514611be5576040517f08c379a0000000000000000000000000000000000000000000000000000000008152600401611bdc906131df565b60405180910390fd5b6000151560018360000151604051611bfd91906130ea565b908152602001604051809103902060070160009054906101000a900460ff16151514611c5e576040517f08c379a0000000000000000000000000000000000000000000000000000000008152600401611c559061324b565b60405180910390fd5b611c6a8260013361217e565b5b600073__Stringhelper__________________________6366a43916611c904261227f565b60006040518363ffffffff1660e01b8152600401611caf9291906132f5565b600060405180830381865af4158015611ccc573d6000803e3d6000fd5b505050506040513d6000823e3d601f19601f82011682018060405250810190611cf591906133a8565b90508084600001819052506000805490508460a0018181525050600360003373ffffffffffffffffffffffffffffffffffffffff1673ffffffffffffffffffffffffffffffffffffffff168152602001908152602001600020805490508460c001818152505060008460e00190151590811515815250503373ffffffffffffffffffffffffffffffffffffffff167f162a3b654c8435cfb9122a292ac053ee6a13758ace278272875a4e172c4ebf1885604051611db291906127a4565b60405180910390a260008490806001815401808255809150506001900390600052602060002090600802016000909190919091506000820151816000019080519060200190611e02929190612439565b506020820151816001019080519060200190611e1f929190612439565b50604082015181600201556060820151816003019080519060200190611e46929190612439565b5060808201518160040160006101000a81548160ff02191690836004811115611e7257611e71612654565b5b021790555060a0820151816005015560c0820151816006015560e08201518160070160006101000a81548160ff021916908315150217905550505083600182604051611ebe91906130ea565b90815260200160405180910390206000820151816000019080519060200190611ee8929190612439565b506020820151816001019080519060200190611f05929190612439565b50604082015181600201556060820151816003019080519060200190611f2c929190612439565b5060808201518160040160006101000a81548160ff02191690836004811115611f5857611f57612654565b5b021790555060a0820151816005015560c0820151816006015560e08201518160070160006101000a81548160ff02191690831515021790555090505033600282604051611fa591906130ea565b908152602001604051809103902060006101000a81548173ffffffffffffffffffffffffffffffffffffffff021916908373ffffffffffffffffffffffffffffffffffffffff160217905550600360003373ffffffffffffffffffffffffffffffffffffffff1673ffffffffffffffffffffffffffffffffffffffff1681526020019081526020016000208490806001815401808255809150506001900390600052602060002090600802016000909190919091506000820151816000019080519060200190612076929190612439565b506020820151816001019080519060200190612093929190612439565b506040820151816002015560608201518160030190805190602001906120ba929190612439565b5060808201518160040160006101000a81548160ff021916908360048111156120e6576120e5612654565b5b021790555060a0820151816005015560c0820151816006015560e08201518160070160006101000a81548160ff02191690831515021790555050505061212e8260003361217e565b505050565b600060028383604051612147929190612d7e565b908152602001604051809103902060009054906101000a900473ffffffffffffffffffffffffffffffffffffffff16905092915050565b8160008460a00151815481106121975761219661326b565b5b906000526020600020906008020160070160006101000a81548160ff02191690831515021790555081600184600001516040516121d491906130ea565b908152602001604051809103902060070160006101000a81548160ff02191690831515021790555081600360008373ffffffffffffffffffffffffffffffffffffffff1673ffffffffffffffffffffffffffffffffffffffff1681526020019081526020016000208460c00151815481106122525761225161326b565b5b906000526020600020906008020160070160006101000a81548160ff021916908315150217905550505050565b606060008214156122c7576040518060400160405280600181526020017f300000000000000000000000000000000000000000000000000000000000000081525090506123db565b600082905060005b600082146122f95780806122e290613420565b915050600a826122f29190613498565b91506122cf565b60008167ffffffffffffffff811115612315576123146129d9565b5b6040519080825280601f01601f1916602001820160405280156123475781602001600182028036833780820191505090505b5090505b600085146123d45760018261236091906134c9565b9150600a8561236f91906134fd565b603061237b919061352e565b60f81b8183815181106123915761239061326b565b5b60200101907effffffffffffffffffffffffffffffffffffffffffffffffffffffffffffff1916908160001a905350600a856123cd9190613498565b945061234b565b8093505050505b919050565b604051806101000160405280606081526020016060815260200160008152602001606081526020016000600481111561241c5761241b612654565b5b815260200160008152602001600081526020016000151581525090565b82805461244590612dc6565b90600052602060002090601f01602090048101928261246757600085556124ae565b82601f1061248057805160ff19168380011785556124ae565b828001600101855582156124ae579182015b828111156124ad578251825591602001919060010190612492565b5b5090506124bb91906124bf565b5090565b5b808211156124d85760008160009055506001016124c0565b5090565b6000604051905090565b600080fd5b600080fd5b600080fd5b600080fd5b600080fd5b60008083601f840112612515576125146124f0565b5b8235905067ffffffffffffffff811115612532576125316124f5565b5b60208301915083600182028301111561254e5761254d6124fa565b5b9250929050565b6000806020838503121561256c5761256b6124e6565b5b600083013567ffffffffffffffff81111561258a576125896124eb565b5b612596858286016124ff565b92509250509250929050565b600081519050919050565b600082825260208201905092915050565b60005b838110156125dc5780820151818401526020810190506125c1565b838111156125eb576000848401525b50505050565b6000601f19601f8301169050919050565b600061260d826125a2565b61261781856125ad565b93506126278185602086016125be565b612630816125f1565b840191505092915050565b6000819050919050565b61264e8161263b565b82525050565b7f4e487b7100000000000000000000000000000000000000000000000000000000600052602160045260246000fd5b6005811061269457612693612654565b5b50565b60008190506126a582612683565b919050565b60006126b582612697565b9050919050565b6126c5816126aa565b82525050565b60008115159050919050565b6126e0816126cb565b82525050565b60006101008301600083015184820360008601526127048282612602565b9150506020830151848203602086015261271e8282612602565b91505060408301516127336040860182612645565b506060830151848203606086015261274b8282612602565b915050608083015161276060808601826126bc565b5060a083015161277360a0860182612645565b5060c083015161278660c0860182612645565b5060e083015161279960e08601826126d7565b508091505092915050565b600060208201905081810360008301526127be81846126e6565b905092915050565b600082825260208201905092915050565b60006127e2826125a2565b6127ec81856127c6565b93506127fc8185602086016125be565b612805816125f1565b840191505092915050565b6000602082019050818103600083015261282a81846127d7565b905092915050565b600081519050919050565b600082825260208201905092915050565b6000819050602082019050919050565b600061010083016000830151848203600086015261287c8282612602565b915050602083015184820360208601526128968282612602565b91505060408301516128ab6040860182612645565b50606083015184820360608601526128c38282612602565b91505060808301516128d860808601826126bc565b5060a08301516128eb60a0860182612645565b5060c08301516128fe60c0860182612645565b5060e083015161291160e08601826126d7565b508091505092915050565b6000612928838361285e565b905092915050565b6000602082019050919050565b600061294882612832565b612952818561283d565b9350836020820285016129648561284e565b8060005b858110156129a05784840389528151612981858261291c565b945061298c83612930565b925060208a01995050600181019050612968565b50829750879550505050505092915050565b600060208201905081810360008301526129cc818461293d565b905092915050565b600080fd5b7f4e487b7100000000000000000000000000000000000000000000000000000000600052604160045260246000fd5b612a11826125f1565b810181811067ffffffffffffffff82111715612a3057612a2f6129d9565b5b80604052505050565b6000612a436124dc565b9050612a4f8282612a08565b919050565b600080fd5b600080fd5b600067ffffffffffffffff821115612a7957612a786129d9565b5b612a82826125f1565b9050602081019050919050565b82818337600083830152505050565b6000612ab1612aac84612a5e565b612a39565b905082815260208101848484011115612acd57612acc612a59565b5b612ad8848285612a8f565b509392505050565b600082601f830112612af557612af46124f0565b5b8135612b05848260208601612a9e565b91505092915050565b612b178161263b565b8114612b2257600080fd5b50565b600081359050612b3481612b0e565b92915050565b60058110612b4757600080fd5b50565b600081359050612b5981612b3a565b92915050565b612b68816126cb565b8114612b7357600080fd5b50565b600081359050612b8581612b5f565b92915050565b60006101008284031215612ba257612ba16129d4565b5b612bad610100612a39565b9050600082013567ffffffffffffffff811115612bcd57612bcc612a54565b5b612bd984828501612ae0565b600083015250602082013567ffffffffffffffff811115612bfd57612bfc612a54565b5b612c0984828501612ae0565b6020830152506040612c1d84828501612b25565b604083015250606082013567ffffffffffffffff811115612c4157612c40612a54565b5b612c4d84828501612ae0565b6060830152506080612c6184828501612b4a565b60808301525060a0612c7584828501612b25565b60a08301525060c0612c8984828501612b25565b60c08301525060e0612c9d84828501612b76565b60e08301525092915050565b600060208284031215612cbf57612cbe6124e6565b5b600082013567ffffffffffffffff811115612cdd57612cdc6124eb565b5b612ce984828501612b8b565b91505092915050565b600073ffffffffffffffffffffffffffffffffffffffff82169050919050565b6000612d1d82612cf2565b9050919050565b612d2d81612d12565b82525050565b6000602082019050612d486000830184612d24565b92915050565b600081905092915050565b6000612d658385612d4e565b9350612d72838584612a8f565b82840190509392505050565b6000612d8b828486612d59565b91508190509392505050565b7f4e487b7100000000000000000000000000000000000000000000000000000000600052602260045260246000fd5b60006002820490506001821680612dde57607f821691505b60208210811415612df257612df1612d97565b5b50919050565b600082825260208201905092915050565b6000612e14826125a2565b612e1e8185612df8565b9350612e2e8185602086016125be565b612e37816125f1565b840191505092915050565b50565b6000612e52600083612df8565b9150612e5d82612e42565b600082019050919050565b60006040820190508181036000830152612e828184612e09565b90508181036020830152612e9581612e45565b905092915050565b600081519050612eac81612b5f565b92915050565b600060208284031215612ec857612ec76124e6565b5b6000612ed684828501612e9d565b91505092915050565b7f4974656d206e616d652063616e206e6f74206c6561766520626c616e6b2e0000600082015250565b6000612f15601e836127c6565b9150612f2082612edf565b602082019050919050565b60006020820190508181036000830152612f4481612f08565b9050919050565b7f4974656d2070726963652063616e206e6f74206c6f776572207468656e20302e600082015250565b6000612f816020836127c6565b9150612f8c82612f4b565b602082019050919050565b60006020820190508181036000830152612fb081612f74565b9050919050565b7f7500000000000000000000000000000000000000000000000000000000000000600082015250565b6000612fed600183612df8565b9150612ff882612fb7565b602082019050919050565b6000604082019050818103600083015261301d8184612e09565b9050818103602083015261303081612fe0565b905092915050565b7f6400000000000000000000000000000000000000000000000000000000000000600082015250565b600061306e600183612df8565b915061307982613038565b602082019050919050565b6000604082019050818103600083015261309e8184612e09565b905081810360208301526130b181613061565b905092915050565b60006130c4826125a2565b6130ce8185612d4e565b93506130de8185602086016125be565b80840191505092915050565b60006130f682846130b9565b915081905092915050565b7f54686973206973206e6f7420796f7572206974656d206f72206974656d206e7560008201527f6d6265722069732077726f6e672e000000000000000000000000000000000000602082015250565b600061315d602e836127c6565b915061316882613101565b604082019050919050565b6000602082019050818103600083015261318c81613150565b9050919050565b7f4974656d206e756d62657220697320626c616e6b000000000000000000000000600082015250565b60006131c96014836127c6565b91506131d482613193565b602082019050919050565b600060208201905081810360008301526131f8816131bc565b9050919050565b7f4974656d206973206c6f636b65642c206f706572617465206c617465722e0000600082015250565b6000613235601e836127c6565b9150613240826131ff565b602082019050919050565b6000602082019050818103600083015261326481613228565b9050919050565b7f4e487b7100000000000000000000000000000000000000000000000000000000600052603260045260246000fd5b7f6974656d00000000000000000000000000000000000000000000000000000000600082015250565b60006132d0600483612df8565b91506132db8261329a565b602082019050919050565b6132ef816126cb565b82525050565b6000606082019050818103600083015261330e816132c3565b905081810360208301526133228185612e09565b905061333160408301846132e6565b9392505050565b600061334b61334684612a5e565b612a39565b90508281526020810184848401111561336757613366612a59565b5b6133728482856125be565b509392505050565b600082601f83011261338f5761338e6124f0565b5b815161339f848260208601613338565b91505092915050565b6000602082840312156133be576133bd6124e6565b5b600082015167ffffffffffffffff8111156133dc576133db6124eb565b5b6133e88482850161337a565b91505092915050565b7f4e487b7100000000000000000000000000000000000000000000000000000000600052601160045260246000fd5b600061342b8261263b565b91507fffffffffffffffffffffffffffffffffffffffffffffffffffffffffffffffff82141561345e5761345d6133f1565b5b600182019050919050565b7f4e487b7100000000000000000000000000000000000000000000000000000000600052601260045260246000fd5b60006134a38261263b565b91506134ae8361263b565b9250826134be576134bd613469565b5b828204905092915050565b60006134d48261263b565b91506134df8361263b565b9250828210156134f2576134f16133f1565b5b828203905092915050565b60006135088261263b565b91506135138361263b565b92508261352357613522613469565b5b828206905092915050565b60006135398261263b565b91506135448361263b565b9250827fffffffffffffffffffffffffffffffffffffffffffffffffffffffffffffffff03821115613579576135786133f1565b5b82820190509291505056fea26469706673582212203d049d59d72c99791eb34e6d260eb7d6cb2c76222e661755b092422bc648ecbb64736f6c634300080c0033",
  "immutableReferences": {},
  "source": "// SPDX-License-Identifier: UNLICENSED\r\npragma solidity >= 0.8.0;\r\n\r\nimport \"./helper/Stringhelper.sol\";\r\nimport \"@openzeppelin/contracts/utils/Strings.sol\";\r\n\r\ncontract Item{\r\n\r\n    using Stringhelper for string;\r\n\r\n    enum itemStatus {\r\n        open, // 0\r\n        pedding, // 1\r\n        sold, // 2\r\n        close, // 3\r\n        del //4\r\n    }\r\n\r\n    struct itemInfo {\r\n        string itemNo;\r\n        string name;\r\n        uint256 price; //wei\r\n        string pic;\r\n        itemStatus status;\r\n        uint itemsArraySeq;\r\n        uint myItemsMapSeq;\r\n        bool isLocked;\r\n    }\r\n\r\n    // Get all items\r\n    itemInfo[] internal itemsArray;\r\n\r\n    // Get one item and locked status chk\r\n    // itemNo => itemInfo\r\n    mapping(string => itemInfo) internal itemNoMap;\r\n\r\n    // Auth or get item owner address for selling\r\n    // itemNo => item owner\r\n    mapping(string => address) internal itemOwnerMap;\r\n\r\n    // Get my all items\r\n    mapping(address => itemInfo[]) internal myItemsMap;\r\n\r\n    // EVENT (owner, itemInfo)\r\n    event createItemEvent(address indexed, itemInfo);\r\n    event modifyItemEvent(address indexed, itemInfo);\r\n\r\n    // c:create, u:update, d:delete, b:buy, ut:afterTx\r\n    modifier basicCheck(itemInfo memory item, string memory method){\r\n        \r\n        require(item.name.stringCompare(\"\") == false, \"Item name can not leave blank.\");\r\n        require(item.price > 0, \"Item price can not lower then 0.\");\r\n\r\n        if(method.stringCompare(\"u\") || method.stringCompare(\"d\")){\r\n            require(itemOwnerMap[item.itemNo] == msg.sender, \"This is not your item or item number is wrong.\");\r\n            require(item.itemNo.stringCompare(\"\") == false, \"Item number is blank\");\r\n            require(itemNoMap[item.itemNo].isLocked == false, \"Item is locked, operate later.\");\r\n\r\n            lockStatus(item, true, msg.sender);\r\n        }\r\n\r\n        _;\r\n\r\n        lockStatus(item, false,  msg.sender);\r\n    }\r\n\r\n    modifier buyChk(itemInfo memory item, address seller){\r\n\r\n        require(item.name.stringCompare(\"\") == false, \"Item name can not leave blank.\");\r\n        require(item.price > 0, \"Item price can not lower then 0.\");\r\n\r\n        require(item.itemNo.stringCompare(\"\") == false, \"Item number is blank\");\r\n        require(itemNoMap[item.itemNo].isLocked == false, \"Item is locked, operate later.\");\r\n        require(item.status == itemStatus.open, \"Item status is not open\");\r\n        require(msg.sender != itemOwnerMap[item.itemNo], \"Don't buy your stuff\");\r\n        require(msg.value >= item.price, \"Your balance is Insufficient.\");\r\n\r\n        lockStatus(item, true,  seller);\r\n\r\n        _;\r\n\r\n        lockStatus(item, false,  msg.sender);\r\n\r\n    }\r\n\r\n    function lockStatus(itemInfo memory item, bool lock, address addr) private {\r\n        \r\n        itemsArray[item.itemsArraySeq].isLocked = lock;\r\n        itemNoMap[item.itemNo].isLocked = lock;\r\n        myItemsMap[addr][item.myItemsMapSeq].isLocked = lock;\r\n\r\n    }\r\n\r\n    function hello() virtual public pure returns(string memory returnStr) {\r\n        returnStr = \"Hello, this is item contract!\";\r\n    }\r\n\r\n    function getAllItems() public view returns(itemInfo[] memory) {\r\n        return itemsArray;\r\n    }\r\n\r\n    function getOneItem(string calldata itemNo) public view returns(itemInfo memory) {\r\n        return itemNoMap[itemNo];\r\n    }\r\n\r\n    function getItemOwner(string calldata itemNo) public view returns(address) {\r\n        return itemOwnerMap[itemNo];\r\n    }\r\n\r\n    function getMyItems() public view returns(itemInfo[] memory) {\r\n        return myItemsMap[msg.sender];\r\n    }\r\n\r\n    function createItem(itemInfo memory item) public basicCheck(item, \"c\") {\r\n        \r\n        // generate item_no\r\n        string memory itemNo = Stringhelper.concate(\"item\", Strings.toString(block.timestamp), false);\r\n\r\n        item.itemNo = itemNo;\r\n        item.itemsArraySeq = itemsArray.length;\r\n        item.myItemsMapSeq = myItemsMap[msg.sender].length;\r\n        item.isLocked = false;\r\n\r\n        // create\r\n        emit createItemEvent(msg.sender, item);\r\n\r\n        itemsArray.push(item);\r\n        itemNoMap[itemNo] = item;\r\n        itemOwnerMap[itemNo] = msg.sender;\r\n        myItemsMap[msg.sender].push(item);\r\n    }\r\n\r\n    function updateItem(itemInfo memory item) public basicCheck(item, \"u\") {\r\n        emit modifyItemEvent(msg.sender, item);\r\n        uint itemsArraySeq = itemNoMap[item.itemNo].itemsArraySeq;\r\n        uint myItemsMapSeq = itemNoMap[item.itemNo].myItemsMapSeq;\r\n\r\n        itemsArray[itemsArraySeq].name = item.name;\r\n        itemsArray[itemsArraySeq].price = item.price;\r\n        itemsArray[itemsArraySeq].pic = item.pic;\r\n        itemsArray[itemsArraySeq].status = item.status;\r\n\r\n        itemNoMap[item.itemNo].name = item.name;\r\n        itemNoMap[item.itemNo].price = item.price;\r\n        itemNoMap[item.itemNo].pic = item.pic;\r\n        itemNoMap[item.itemNo].status = item.status;\r\n\r\n        myItemsMap[msg.sender][myItemsMapSeq].name = item.name;\r\n        myItemsMap[msg.sender][myItemsMapSeq].price = item.price;\r\n        myItemsMap[msg.sender][myItemsMapSeq].pic = item.pic;\r\n        myItemsMap[msg.sender][myItemsMapSeq].status = item.status;\r\n    }\r\n\r\n    function deleteItem(itemInfo memory item) public basicCheck(item, \"d\") {\r\n        /**incomplete */\r\n        emit modifyItemEvent(msg.sender, item);\r\n\r\n        itemsArray[item.itemsArraySeq].status = itemStatus.del;\r\n        \r\n        itemNoMap[item.itemNo].status = itemStatus.del;\r\n        \r\n        myItemsMap[msg.sender][item.myItemsMapSeq].status = itemStatus.del;\r\n    }\r\n\r\n    function changeItemOwner(itemInfo memory boughtItem, address oriOwner) internal {\r\n\r\n        uint oriMyItemSeq = boughtItem.myItemsMapSeq;\r\n\r\n        // update boughtItem parameters\r\n        boughtItem.status = itemStatus.close;\r\n        boughtItem.myItemsMapSeq = myItemsMap[msg.sender].length;\r\n\r\n        // update itemsArray , itemNoMap and itemOwnerMap\r\n        itemsArray[boughtItem.itemsArraySeq] = boughtItem;\r\n        itemNoMap[boughtItem.itemNo] = boughtItem;\r\n        itemOwnerMap[boughtItem.itemNo] = msg.sender;\r\n\r\n        // create item to myItemsMap ( for buyer )\r\n        myItemsMap[msg.sender].push(boughtItem);\r\n\r\n        /* using last item to replace the original item position ( for seller )*/\r\n        // original owner only have one or just sell last one\r\n        if(myItemsMap[oriOwner].length == 1 || oriMyItemSeq == myItemsMap[oriOwner].length-1){\r\n            myItemsMap[oriOwner].pop();\r\n        }\r\n        else {\r\n            // get last item info\r\n            itemInfo memory lastItem = myItemsMap[oriOwner][myItemsMap[oriOwner].length-1];\r\n\r\n            // update lastItem seq\r\n            lastItem.myItemsMapSeq = oriMyItemSeq;\r\n            itemsArray[lastItem.itemsArraySeq] = lastItem;\r\n            itemNoMap[lastItem.itemNo] = lastItem;\r\n\r\n            // replace and pop last item\r\n            myItemsMap[oriOwner][oriMyItemSeq] = lastItem;\r\n            myItemsMap[oriOwner].pop();\r\n        }\r\n\r\n    }\r\n\r\n}",
  "sourcePath": "C:\\Project\\simpleshop\\contract\\contracts\\Item.sol",
  "compiler": {
    "name": "solc",
    "version": "0.8.12+commit.f00d7308.Emscripten.clang"
  },
  "schemaVersion": "3.4.6",
  "updatedAt": "2022-04-11T12:29:03.643Z",
  "networkType": "ethereum",
  "devdoc": {
    "kind": "dev",
    "methods": {},
    "version": 1
  },
  "userdoc": {
    "kind": "user",
    "methods": {},
    "version": 1
  }
}