{
  "contractName": "Item",
  "abi": [
    {
      "anonymous": false,
      "inputs": [
        {
          "indexed": true,
          "internalType": "address",
          "name": "",
          "type": "address"
        },
        {
          "components": [
            {
              "internalType": "string",
              "name": "itemNo",
              "type": "string"
            },
            {
              "internalType": "string",
              "name": "name",
              "type": "string"
            },
            {
              "internalType": "uint256",
              "name": "price",
              "type": "uint256"
            },
            {
              "internalType": "string",
              "name": "pic",
              "type": "string"
            },
            {
              "internalType": "enum Item.itemStatus",
              "name": "status",
              "type": "uint8"
            },
            {
              "internalType": "uint256",
              "name": "itemsArraySeq",
              "type": "uint256"
            },
            {
              "internalType": "uint256",
              "name": "myItemsMapSeq",
              "type": "uint256"
            },
            {
              "internalType": "bool",
              "name": "isLocked",
              "type": "bool"
            }
          ],
          "indexed": false,
          "internalType": "struct Item.itemInfo",
          "name": "",
          "type": "tuple"
        }
      ],
      "name": "createItemEvent",
      "type": "event"
    },
    {
      "anonymous": false,
      "inputs": [
        {
          "indexed": true,
          "internalType": "address",
          "name": "",
          "type": "address"
        },
        {
          "components": [
            {
              "internalType": "string",
              "name": "itemNo",
              "type": "string"
            },
            {
              "internalType": "string",
              "name": "name",
              "type": "string"
            },
            {
              "internalType": "uint256",
              "name": "price",
              "type": "uint256"
            },
            {
              "internalType": "string",
              "name": "pic",
              "type": "string"
            },
            {
              "internalType": "enum Item.itemStatus",
              "name": "status",
              "type": "uint8"
            },
            {
              "internalType": "uint256",
              "name": "itemsArraySeq",
              "type": "uint256"
            },
            {
              "internalType": "uint256",
              "name": "myItemsMapSeq",
              "type": "uint256"
            },
            {
              "internalType": "bool",
              "name": "isLocked",
              "type": "bool"
            }
          ],
          "indexed": false,
          "internalType": "struct Item.itemInfo",
          "name": "",
          "type": "tuple"
        }
      ],
      "name": "modifyItemEvent",
      "type": "event"
    },
    {
      "inputs": [],
      "name": "hello",
      "outputs": [
        {
          "internalType": "string",
          "name": "returnStr",
          "type": "string"
        }
      ],
      "stateMutability": "pure",
      "type": "function",
      "constant": true
    },
    {
      "inputs": [],
      "name": "getAllItems",
      "outputs": [
        {
          "components": [
            {
              "internalType": "string",
              "name": "itemNo",
              "type": "string"
            },
            {
              "internalType": "string",
              "name": "name",
              "type": "string"
            },
            {
              "internalType": "uint256",
              "name": "price",
              "type": "uint256"
            },
            {
              "internalType": "string",
              "name": "pic",
              "type": "string"
            },
            {
              "internalType": "enum Item.itemStatus",
              "name": "status",
              "type": "uint8"
            },
            {
              "internalType": "uint256",
              "name": "itemsArraySeq",
              "type": "uint256"
            },
            {
              "internalType": "uint256",
              "name": "myItemsMapSeq",
              "type": "uint256"
            },
            {
              "internalType": "bool",
              "name": "isLocked",
              "type": "bool"
            }
          ],
          "internalType": "struct Item.itemInfo[]",
          "name": "",
          "type": "tuple[]"
        }
      ],
      "stateMutability": "view",
      "type": "function",
      "constant": true
    },
    {
      "inputs": [
        {
          "internalType": "string",
          "name": "itemNo",
          "type": "string"
        }
      ],
      "name": "getOneItem",
      "outputs": [
        {
          "components": [
            {
              "internalType": "string",
              "name": "itemNo",
              "type": "string"
            },
            {
              "internalType": "string",
              "name": "name",
              "type": "string"
            },
            {
              "internalType": "uint256",
              "name": "price",
              "type": "uint256"
            },
            {
              "internalType": "string",
              "name": "pic",
              "type": "string"
            },
            {
              "internalType": "enum Item.itemStatus",
              "name": "status",
              "type": "uint8"
            },
            {
              "internalType": "uint256",
              "name": "itemsArraySeq",
              "type": "uint256"
            },
            {
              "internalType": "uint256",
              "name": "myItemsMapSeq",
              "type": "uint256"
            },
            {
              "internalType": "bool",
              "name": "isLocked",
              "type": "bool"
            }
          ],
          "internalType": "struct Item.itemInfo",
          "name": "",
          "type": "tuple"
        }
      ],
      "stateMutability": "view",
      "type": "function",
      "constant": true
    },
    {
      "inputs": [
        {
          "internalType": "string",
          "name": "itemNo",
          "type": "string"
        }
      ],
      "name": "getItemOwner",
      "outputs": [
        {
          "internalType": "address",
          "name": "",
          "type": "address"
        }
      ],
      "stateMutability": "view",
      "type": "function",
      "constant": true
    },
    {
      "inputs": [],
      "name": "getMyItems",
      "outputs": [
        {
          "components": [
            {
              "internalType": "string",
              "name": "itemNo",
              "type": "string"
            },
            {
              "internalType": "string",
              "name": "name",
              "type": "string"
            },
            {
              "internalType": "uint256",
              "name": "price",
              "type": "uint256"
            },
            {
              "internalType": "string",
              "name": "pic",
              "type": "string"
            },
            {
              "internalType": "enum Item.itemStatus",
              "name": "status",
              "type": "uint8"
            },
            {
              "internalType": "uint256",
              "name": "itemsArraySeq",
              "type": "uint256"
            },
            {
              "internalType": "uint256",
              "name": "myItemsMapSeq",
              "type": "uint256"
            },
            {
              "internalType": "bool",
              "name": "isLocked",
              "type": "bool"
            }
          ],
          "internalType": "struct Item.itemInfo[]",
          "name": "",
          "type": "tuple[]"
        }
      ],
      "stateMutability": "view",
      "type": "function",
      "constant": true
    },
    {
      "inputs": [
        {
          "components": [
            {
              "internalType": "string",
              "name": "itemNo",
              "type": "string"
            },
            {
              "internalType": "string",
              "name": "name",
              "type": "string"
            },
            {
              "internalType": "uint256",
              "name": "price",
              "type": "uint256"
            },
            {
              "internalType": "string",
              "name": "pic",
              "type": "string"
            },
            {
              "internalType": "enum Item.itemStatus",
              "name": "status",
              "type": "uint8"
            },
            {
              "internalType": "uint256",
              "name": "itemsArraySeq",
              "type": "uint256"
            },
            {
              "internalType": "uint256",
              "name": "myItemsMapSeq",
              "type": "uint256"
            },
            {
              "internalType": "bool",
              "name": "isLocked",
              "type": "bool"
            }
          ],
          "internalType": "struct Item.itemInfo",
          "name": "item",
          "type": "tuple"
        }
      ],
      "name": "createItem",
      "outputs": [],
      "stateMutability": "nonpayable",
      "type": "function"
    },
    {
      "inputs": [
        {
          "components": [
            {
              "internalType": "string",
              "name": "itemNo",
              "type": "string"
            },
            {
              "internalType": "string",
              "name": "name",
              "type": "string"
            },
            {
              "internalType": "uint256",
              "name": "price",
              "type": "uint256"
            },
            {
              "internalType": "string",
              "name": "pic",
              "type": "string"
            },
            {
              "internalType": "enum Item.itemStatus",
              "name": "status",
              "type": "uint8"
            },
            {
              "internalType": "uint256",
              "name": "itemsArraySeq",
              "type": "uint256"
            },
            {
              "internalType": "uint256",
              "name": "myItemsMapSeq",
              "type": "uint256"
            },
            {
              "internalType": "bool",
              "name": "isLocked",
              "type": "bool"
            }
          ],
          "internalType": "struct Item.itemInfo",
          "name": "item",
          "type": "tuple"
        }
      ],
      "name": "updateItem",
      "outputs": [],
      "stateMutability": "nonpayable",
      "type": "function"
    },
    {
      "inputs": [
        {
          "components": [
            {
              "internalType": "string",
              "name": "itemNo",
              "type": "string"
            },
            {
              "internalType": "string",
              "name": "name",
              "type": "string"
            },
            {
              "internalType": "uint256",
              "name": "price",
              "type": "uint256"
            },
            {
              "internalType": "string",
              "name": "pic",
              "type": "string"
            },
            {
              "internalType": "enum Item.itemStatus",
              "name": "status",
              "type": "uint8"
            },
            {
              "internalType": "uint256",
              "name": "itemsArraySeq",
              "type": "uint256"
            },
            {
              "internalType": "uint256",
              "name": "myItemsMapSeq",
              "type": "uint256"
            },
            {
              "internalType": "bool",
              "name": "isLocked",
              "type": "bool"
            }
          ],
          "internalType": "struct Item.itemInfo",
          "name": "item",
          "type": "tuple"
        }
      ],
      "name": "deleteItem",
      "outputs": [],
      "stateMutability": "nonpayable",
      "type": "function"
    }
  ],
  "bytecode": "0x608060405234801561001057600080fd5b50613ae9806100206000396000f3fe608060405234801561001057600080fd5b50600436106100885760003560e01c80637ee423771161005b5780637ee4237714610115578063c5fb207d14610131578063c8c8670e1461014f578063df49cb191461016b57610088565b80630e86773b1461008d57806319ff1d21146100bd5780634ba1d6aa146100db57806370718e16146100f9575b600080fd5b6100a760048036038101906100a29190612a03565b61019b565b6040516100b49190612c52565b60405180910390f35b6100c5610401565b6040516100d29190612cbe565b60405180910390f35b6100e361043e565b6040516100f09190612e60565b60405180910390f35b610113600480360381019061010e9190613157565b6106c8565b005b61012f600480360381019061012a9190613157565b610e77565b005b610139611932565b6040516101469190612e60565b60405180910390f35b61016960048036038101906101649190613157565b611bf9565b005b61018560048036038101906101809190612a03565b6126e2565b60405161019291906131e1565b60405180910390f35b6101a361288e565b600183836040516101b592919061322c565b9081526020016040518091039020604051806101000160405290816000820180546101df90613274565b80601f016020809104026020016040519081016040528092919081815260200182805461020b90613274565b80156102585780601f1061022d57610100808354040283529160200191610258565b820191906000526020600020905b81548152906001019060200180831161023b57829003601f168201915b5050505050815260200160018201805461027190613274565b80601f016020809104026020016040519081016040528092919081815260200182805461029d90613274565b80156102ea5780601f106102bf576101008083540402835291602001916102ea565b820191906000526020600020905b8154815290600101906020018083116102cd57829003601f168201915b505050505081526020016002820154815260200160038201805461030d90613274565b80601f016020809104026020016040519081016040528092919081815260200182805461033990613274565b80156103865780601f1061035b57610100808354040283529160200191610386565b820191906000526020600020905b81548152906001019060200180831161036957829003601f168201915b505050505081526020016004820160009054906101000a900460ff1660048111156103b4576103b3612b02565b5b60048111156103c6576103c5612b02565b5b815260200160058201548152602001600682015481526020016007820160009054906101000a900460ff161515151581525050905092915050565b60606040518060400160405280601d81526020017f48656c6c6f2c2074686973206973206974656d20636f6e747261637421000000815250905090565b60606000805480602002602001604051908101604052809291908181526020016000905b828210156106bf57838290600052602060002090600802016040518061010001604052908160008201805461049690613274565b80601f01602080910402602001604051908101604052809291908181526020018280546104c290613274565b801561050f5780601f106104e45761010080835404028352916020019161050f565b820191906000526020600020905b8154815290600101906020018083116104f257829003601f168201915b5050505050815260200160018201805461052890613274565b80601f016020809104026020016040519081016040528092919081815260200182805461055490613274565b80156105a15780601f10610576576101008083540402835291602001916105a1565b820191906000526020600020905b81548152906001019060200180831161058457829003601f168201915b50505050508152602001600282015481526020016003820180546105c490613274565b80601f01602080910402602001604051908101604052809291908181526020018280546105f090613274565b801561063d5780601f106106125761010080835404028352916020019161063d565b820191906000526020600020905b81548152906001019060200180831161062057829003601f168201915b505050505081526020016004820160009054906101000a900460ff16600481111561066b5761066a612b02565b5b600481111561067d5761067c612b02565b5b815260200160058201548152602001600682015481526020016007820160009054906101000a900460ff16151515158152505081526020019060010190610462565b50505050905090565b806040518060400160405280600181526020017f640000000000000000000000000000000000000000000000000000000000000081525060001515826020015173__Stringhelper__________________________6360353db990916040518263ffffffff1660e01b81526004016107409190613316565b602060405180830381865af415801561075d573d6000803e3d6000fd5b505050506040513d601f19601f820116820180604052508101906107819190613360565b1515146107c3576040517f08c379a00000000000000000000000000000000000000000000000000000000081526004016107ba906133d9565b60405180910390fd5b600082604001511161080a576040517f08c379a000000000000000000000000000000000000000000000000000000000815260040161080190613445565b60405180910390fd5b8073__Stringhelper__________________________6360353db990916040518263ffffffff1660e01b815260040161084391906134b1565b602060405180830381865af4158015610860573d6000803e3d6000fd5b505050506040513d601f19601f820116820180604052508101906108849190613360565b8061090557508073__Stringhelper__________________________6360353db990916040518263ffffffff1660e01b81526004016108c39190613532565b602060405180830381865af41580156108e0573d6000803e3d6000fd5b505050506040513d601f19601f820116820180604052508101906109049190613360565b5b156109bb573373ffffffffffffffffffffffffffffffffffffffff16600283600001516040516109359190613598565b908152602001604051809103902060009054906101000a900473ffffffffffffffffffffffffffffffffffffffff1673ffffffffffffffffffffffffffffffffffffffff16146109ba576040517f08c379a00000000000000000000000000000000000000000000000000000000081526004016109b190613621565b60405180910390fd5b5b8073__Stringhelper__________________________6360353db990916040518263ffffffff1660e01b81526004016109f491906134b1565b602060405180830381865af4158015610a11573d6000803e3d6000fd5b505050506040513d601f19601f82011682018060405250810190610a359190613360565b80610ab657508073__Stringhelper__________________________6360353db990916040518263ffffffff1660e01b8152600401610a749190613532565b602060405180830381865af4158015610a91573d6000803e3d6000fd5b505050506040513d601f19601f82011682018060405250810190610ab59190613360565b5b80610b3757508073__Stringhelper__________________________6360353db990916040518263ffffffff1660e01b8152600401610af5919061368d565b602060405180830381865af4158015610b12573d6000803e3d6000fd5b505050506040513d601f19601f82011682018060405250810190610b369190613360565b5b15610cb75760001515826000015173__Stringhelper__________________________6360353db990916040518263ffffffff1660e01b8152600401610b7d9190613316565b602060405180830381865af4158015610b9a573d6000803e3d6000fd5b505050506040513d601f19601f82011682018060405250810190610bbe9190613360565b151514610c00576040517f08c379a0000000000000000000000000000000000000000000000000000000008152600401610bf79061370e565b60405180910390fd5b6000151560018360000151604051610c189190613598565b908152602001604051809103902060070160009054906101000a900460ff16151514610c79576040517f08c379a0000000000000000000000000000000000000000000000000000000008152600401610c709061377a565b60405180910390fd5b6001808360000151604051610c8e9190613598565b908152602001604051809103902060070160006101000a81548160ff0219169083151502179055505b3373ffffffffffffffffffffffffffffffffffffffff167fa815cdb6099afc3b4263cedf6c749542ae525182249480a4d25a11643fc8c57e84604051610cfd9190612c52565b60405180910390a2600460008460a0015181548110610d1f57610d1e61379a565b5b906000526020600020906008020160040160006101000a81548160ff02191690836004811115610d5257610d51612b02565b5b0217905550600460018460000151604051610d6d9190613598565b908152602001604051809103902060040160006101000a81548160ff02191690836004811115610da057610d9f612b02565b5b02179055506004600360003373ffffffffffffffffffffffffffffffffffffffff1673ffffffffffffffffffffffffffffffffffffffff1681526020019081526020016000208460c0015181548110610dfc57610dfb61379a565b5b906000526020600020906008020160040160006101000a81548160ff02191690836004811115610e2f57610e2e612b02565b5b0217905550600060018360000151604051610e4a9190613598565b908152602001604051809103902060070160006101000a81548160ff021916908315150217905550505050565b806040518060400160405280600181526020017f750000000000000000000000000000000000000000000000000000000000000081525060001515826020015173__Stringhelper__________________________6360353db990916040518263ffffffff1660e01b8152600401610eef9190613316565b602060405180830381865af4158015610f0c573d6000803e3d6000fd5b505050506040513d601f19601f82011682018060405250810190610f309190613360565b151514610f72576040517f08c379a0000000000000000000000000000000000000000000000000000000008152600401610f69906133d9565b60405180910390fd5b6000826040015111610fb9576040517f08c379a0000000000000000000000000000000000000000000000000000000008152600401610fb090613445565b60405180910390fd5b8073__Stringhelper__________________________6360353db990916040518263ffffffff1660e01b8152600401610ff291906134b1565b602060405180830381865af415801561100f573d6000803e3d6000fd5b505050506040513d601f19601f820116820180604052508101906110339190613360565b806110b457508073__Stringhelper__________________________6360353db990916040518263ffffffff1660e01b81526004016110729190613532565b602060405180830381865af415801561108f573d6000803e3d6000fd5b505050506040513d601f19601f820116820180604052508101906110b39190613360565b5b1561116a573373ffffffffffffffffffffffffffffffffffffffff16600283600001516040516110e49190613598565b908152602001604051809103902060009054906101000a900473ffffffffffffffffffffffffffffffffffffffff1673ffffffffffffffffffffffffffffffffffffffff1614611169576040517f08c379a000000000000000000000000000000000000000000000000000000000815260040161116090613621565b60405180910390fd5b5b8073__Stringhelper__________________________6360353db990916040518263ffffffff1660e01b81526004016111a391906134b1565b602060405180830381865af41580156111c0573d6000803e3d6000fd5b505050506040513d601f19601f820116820180604052508101906111e49190613360565b8061126557508073__Stringhelper__________________________6360353db990916040518263ffffffff1660e01b81526004016112239190613532565b602060405180830381865af4158015611240573d6000803e3d6000fd5b505050506040513d601f19601f820116820180604052508101906112649190613360565b5b806112e657508073__Stringhelper__________________________6360353db990916040518263ffffffff1660e01b81526004016112a4919061368d565b602060405180830381865af41580156112c1573d6000803e3d6000fd5b505050506040513d601f19601f820116820180604052508101906112e59190613360565b5b156114665760001515826000015173__Stringhelper__________________________6360353db990916040518263ffffffff1660e01b815260040161132c9190613316565b602060405180830381865af4158015611349573d6000803e3d6000fd5b505050506040513d601f19601f8201168201806040525081019061136d9190613360565b1515146113af576040517f08c379a00000000000000000000000000000000000000000000000000000000081526004016113a69061370e565b60405180910390fd5b60001515600183600001516040516113c79190613598565b908152602001604051809103902060070160009054906101000a900460ff16151514611428576040517f08c379a000000000000000000000000000000000000000000000000000000000815260040161141f9061377a565b60405180910390fd5b600180836000015160405161143d9190613598565b908152602001604051809103902060070160006101000a81548160ff0219169083151502179055505b3373ffffffffffffffffffffffffffffffffffffffff167fa815cdb6099afc3b4263cedf6c749542ae525182249480a4d25a11643fc8c57e846040516114ac9190612c52565b60405180910390a26000600184600001516040516114ca9190613598565b90815260200160405180910390206005015490506000600185600001516040516114f49190613598565b90815260200160405180910390206006015490508460200151600083815481106115215761152061379a565b5b906000526020600020906008020160010190805190602001906115459291906128e7565b5084604001516000838154811061155f5761155e61379a565b5b90600052602060002090600802016002018190555084606001516000838154811061158d5761158c61379a565b5b906000526020600020906008020160030190805190602001906115b19291906128e7565b508460800151600083815481106115cb576115ca61379a565b5b906000526020600020906008020160040160006101000a81548160ff021916908360048111156115fe576115fd612b02565b5b021790555084602001516001866000015160405161161c9190613598565b908152602001604051809103902060010190805190602001906116409291906128e7565b5084604001516001866000015160405161165a9190613598565b9081526020016040518091039020600201819055508460600151600186600001516040516116889190613598565b908152602001604051809103902060030190805190602001906116ac9291906128e7565b508460800151600186600001516040516116c69190613598565b908152602001604051809103902060040160006101000a81548160ff021916908360048111156116f9576116f8612b02565b5b02179055508460200151600360003373ffffffffffffffffffffffffffffffffffffffff1673ffffffffffffffffffffffffffffffffffffffff16815260200190815260200160002082815481106117545761175361379a565b5b906000526020600020906008020160010190805190602001906117789291906128e7565b508460400151600360003373ffffffffffffffffffffffffffffffffffffffff1673ffffffffffffffffffffffffffffffffffffffff16815260200190815260200160002082815481106117cf576117ce61379a565b5b9060005260206000209060080201600201819055508460600151600360003373ffffffffffffffffffffffffffffffffffffffff1673ffffffffffffffffffffffffffffffffffffffff168152602001908152602001600020828154811061183a5761183961379a565b5b9060005260206000209060080201600301908051906020019061185e9291906128e7565b508460800151600360003373ffffffffffffffffffffffffffffffffffffffff1673ffffffffffffffffffffffffffffffffffffffff16815260200190815260200160002082815481106118b5576118b461379a565b5b906000526020600020906008020160040160006101000a81548160ff021916908360048111156118e8576118e7612b02565b5b021790555050506000600183600001516040516119059190613598565b908152602001604051809103902060070160006101000a81548160ff021916908315150217905550505050565b6060600360003373ffffffffffffffffffffffffffffffffffffffff1673ffffffffffffffffffffffffffffffffffffffff168152602001908152602001600020805480602002602001604051908101604052809291908181526020016000905b82821015611bf05783829060005260206000209060080201604051806101000160405290816000820180546119c790613274565b80601f01602080910402602001604051908101604052809291908181526020018280546119f390613274565b8015611a405780601f10611a1557610100808354040283529160200191611a40565b820191906000526020600020905b815481529060010190602001808311611a2357829003601f168201915b50505050508152602001600182018054611a5990613274565b80601f0160208091040260200160405190810160405280929190818152602001828054611a8590613274565b8015611ad25780601f10611aa757610100808354040283529160200191611ad2565b820191906000526020600020905b815481529060010190602001808311611ab557829003601f168201915b5050505050815260200160028201548152602001600382018054611af590613274565b80601f0160208091040260200160405190810160405280929190818152602001828054611b2190613274565b8015611b6e5780601f10611b4357610100808354040283529160200191611b6e565b820191906000526020600020905b815481529060010190602001808311611b5157829003601f168201915b505050505081526020016004820160009054906101000a900460ff166004811115611b9c57611b9b612b02565b5b6004811115611bae57611bad612b02565b5b815260200160058201548152602001600682015481526020016007820160009054906101000a900460ff16151515158152505081526020019060010190611993565b50505050905090565b806040518060400160405280600181526020017f630000000000000000000000000000000000000000000000000000000000000081525060001515826020015173__Stringhelper__________________________6360353db990916040518263ffffffff1660e01b8152600401611c719190613316565b602060405180830381865af4158015611c8e573d6000803e3d6000fd5b505050506040513d601f19601f82011682018060405250810190611cb29190613360565b151514611cf4576040517f08c379a0000000000000000000000000000000000000000000000000000000008152600401611ceb906133d9565b60405180910390fd5b6000826040015111611d3b576040517f08c379a0000000000000000000000000000000000000000000000000000000008152600401611d3290613445565b60405180910390fd5b8073__Stringhelper__________________________6360353db990916040518263ffffffff1660e01b8152600401611d7491906134b1565b602060405180830381865af4158015611d91573d6000803e3d6000fd5b505050506040513d601f19601f82011682018060405250810190611db59190613360565b80611e3657508073__Stringhelper__________________________6360353db990916040518263ffffffff1660e01b8152600401611df49190613532565b602060405180830381865af4158015611e11573d6000803e3d6000fd5b505050506040513d601f19601f82011682018060405250810190611e359190613360565b5b15611eec573373ffffffffffffffffffffffffffffffffffffffff1660028360000151604051611e669190613598565b908152602001604051809103902060009054906101000a900473ffffffffffffffffffffffffffffffffffffffff1673ffffffffffffffffffffffffffffffffffffffff1614611eeb576040517f08c379a0000000000000000000000000000000000000000000000000000000008152600401611ee290613621565b60405180910390fd5b5b8073__Stringhelper__________________________6360353db990916040518263ffffffff1660e01b8152600401611f2591906134b1565b602060405180830381865af4158015611f42573d6000803e3d6000fd5b505050506040513d601f19601f82011682018060405250810190611f669190613360565b80611fe757508073__Stringhelper__________________________6360353db990916040518263ffffffff1660e01b8152600401611fa59190613532565b602060405180830381865af4158015611fc2573d6000803e3d6000fd5b505050506040513d601f19601f82011682018060405250810190611fe69190613360565b5b8061206857508073__Stringhelper__________________________6360353db990916040518263ffffffff1660e01b8152600401612026919061368d565b602060405180830381865af4158015612043573d6000803e3d6000fd5b505050506040513d601f19601f820116820180604052508101906120679190613360565b5b156121e85760001515826000015173__Stringhelper__________________________6360353db990916040518263ffffffff1660e01b81526004016120ae9190613316565b602060405180830381865af41580156120cb573d6000803e3d6000fd5b505050506040513d601f19601f820116820180604052508101906120ef9190613360565b151514612131576040517f08c379a00000000000000000000000000000000000000000000000000000000081526004016121289061370e565b60405180910390fd5b60001515600183600001516040516121499190613598565b908152602001604051809103902060070160009054906101000a900460ff161515146121aa576040517f08c379a00000000000000000000000000000000000000000000000000000000081526004016121a19061377a565b60405180910390fd5b60018083600001516040516121bf9190613598565b908152602001604051809103902060070160006101000a81548160ff0219169083151502179055505b600073__Stringhelper__________________________6366a4391661220d4261272d565b60006040518363ffffffff1660e01b815260040161222c929190613824565b600060405180830381865af4158015612249573d6000803e3d6000fd5b505050506040513d6000823e3d601f19601f8201168201806040525081019061227291906138d7565b90508084600001819052506000805490508460a0018181525050600360003373ffffffffffffffffffffffffffffffffffffffff1673ffffffffffffffffffffffffffffffffffffffff168152602001908152602001600020805490508460c001818152505060008460e00190151590811515815250503373ffffffffffffffffffffffffffffffffffffffff167f162a3b654c8435cfb9122a292ac053ee6a13758ace278272875a4e172c4ebf188560405161232f9190612c52565b60405180910390a26000849080600181540180825580915050600190039060005260206000209060080201600090919091909150600082015181600001908051906020019061237f9291906128e7565b50602082015181600101908051906020019061239c9291906128e7565b506040820151816002015560608201518160030190805190602001906123c39291906128e7565b5060808201518160040160006101000a81548160ff021916908360048111156123ef576123ee612b02565b5b021790555060a0820151816005015560c0820151816006015560e08201518160070160006101000a81548160ff02191690831515021790555050508360018260405161243b9190613598565b908152602001604051809103902060008201518160000190805190602001906124659291906128e7565b5060208201518160010190805190602001906124829291906128e7565b506040820151816002015560608201518160030190805190602001906124a99291906128e7565b5060808201518160040160006101000a81548160ff021916908360048111156124d5576124d4612b02565b5b021790555060a0820151816005015560c0820151816006015560e08201518160070160006101000a81548160ff021916908315150217905550905050336002826040516125229190613598565b908152602001604051809103902060006101000a81548173ffffffffffffffffffffffffffffffffffffffff021916908373ffffffffffffffffffffffffffffffffffffffff160217905550600360003373ffffffffffffffffffffffffffffffffffffffff1673ffffffffffffffffffffffffffffffffffffffff16815260200190815260200160002084908060018154018082558091505060019003906000526020600020906008020160009091909190915060008201518160000190805190602001906125f39291906128e7565b5060208201518160010190805190602001906126109291906128e7565b506040820151816002015560608201518160030190805190602001906126379291906128e7565b5060808201518160040160006101000a81548160ff0219169083600481111561266357612662612b02565b5b021790555060a0820151816005015560c0820151816006015560e08201518160070160006101000a81548160ff0219169083151502179055505050506000600183600001516040516126b59190613598565b908152602001604051809103902060070160006101000a81548160ff021916908315150217905550505050565b6000600283836040516126f692919061322c565b908152602001604051809103902060009054906101000a900473ffffffffffffffffffffffffffffffffffffffff16905092915050565b60606000821415612775576040518060400160405280600181526020017f30000000000000000000000000000000000000000000000000000000000000008152509050612889565b600082905060005b600082146127a75780806127909061394f565b915050600a826127a091906139c7565b915061277d565b60008167ffffffffffffffff8111156127c3576127c2612e87565b5b6040519080825280601f01601f1916602001820160405280156127f55781602001600182028036833780820191505090505b5090505b600085146128825760018261280e91906139f8565b9150600a8561281d9190613a2c565b60306128299190613a5d565b60f81b81838151811061283f5761283e61379a565b5b60200101907effffffffffffffffffffffffffffffffffffffffffffffffffffffffffffff1916908160001a905350600a8561287b91906139c7565b94506127f9565b8093505050505b919050565b60405180610100016040528060608152602001606081526020016000815260200160608152602001600060048111156128ca576128c9612b02565b5b815260200160008152602001600081526020016000151581525090565b8280546128f390613274565b90600052602060002090601f016020900481019282612915576000855561295c565b82601f1061292e57805160ff191683800117855561295c565b8280016001018555821561295c579182015b8281111561295b578251825591602001919060010190612940565b5b509050612969919061296d565b5090565b5b8082111561298657600081600090555060010161296e565b5090565b6000604051905090565b600080fd5b600080fd5b600080fd5b600080fd5b600080fd5b60008083601f8401126129c3576129c261299e565b5b8235905067ffffffffffffffff8111156129e0576129df6129a3565b5b6020830191508360018202830111156129fc576129fb6129a8565b5b9250929050565b60008060208385031215612a1a57612a19612994565b5b600083013567ffffffffffffffff811115612a3857612a37612999565b5b612a44858286016129ad565b92509250509250929050565b600081519050919050565b600082825260208201905092915050565b60005b83811015612a8a578082015181840152602081019050612a6f565b83811115612a99576000848401525b50505050565b6000601f19601f8301169050919050565b6000612abb82612a50565b612ac58185612a5b565b9350612ad5818560208601612a6c565b612ade81612a9f565b840191505092915050565b6000819050919050565b612afc81612ae9565b82525050565b7f4e487b7100000000000000000000000000000000000000000000000000000000600052602160045260246000fd5b60058110612b4257612b41612b02565b5b50565b6000819050612b5382612b31565b919050565b6000612b6382612b45565b9050919050565b612b7381612b58565b82525050565b60008115159050919050565b612b8e81612b79565b82525050565b6000610100830160008301518482036000860152612bb28282612ab0565b91505060208301518482036020860152612bcc8282612ab0565b9150506040830151612be16040860182612af3565b5060608301518482036060860152612bf98282612ab0565b9150506080830151612c0e6080860182612b6a565b5060a0830151612c2160a0860182612af3565b5060c0830151612c3460c0860182612af3565b5060e0830151612c4760e0860182612b85565b508091505092915050565b60006020820190508181036000830152612c6c8184612b94565b905092915050565b600082825260208201905092915050565b6000612c9082612a50565b612c9a8185612c74565b9350612caa818560208601612a6c565b612cb381612a9f565b840191505092915050565b60006020820190508181036000830152612cd88184612c85565b905092915050565b600081519050919050565b600082825260208201905092915050565b6000819050602082019050919050565b6000610100830160008301518482036000860152612d2a8282612ab0565b91505060208301518482036020860152612d448282612ab0565b9150506040830151612d596040860182612af3565b5060608301518482036060860152612d718282612ab0565b9150506080830151612d866080860182612b6a565b5060a0830151612d9960a0860182612af3565b5060c0830151612dac60c0860182612af3565b5060e0830151612dbf60e0860182612b85565b508091505092915050565b6000612dd68383612d0c565b905092915050565b6000602082019050919050565b6000612df682612ce0565b612e008185612ceb565b935083602082028501612e1285612cfc565b8060005b85811015612e4e5784840389528151612e2f8582612dca565b9450612e3a83612dde565b925060208a01995050600181019050612e16565b50829750879550505050505092915050565b60006020820190508181036000830152612e7a8184612deb565b905092915050565b600080fd5b7f4e487b7100000000000000000000000000000000000000000000000000000000600052604160045260246000fd5b612ebf82612a9f565b810181811067ffffffffffffffff82111715612ede57612edd612e87565b5b80604052505050565b6000612ef161298a565b9050612efd8282612eb6565b919050565b600080fd5b600080fd5b600067ffffffffffffffff821115612f2757612f26612e87565b5b612f3082612a9f565b9050602081019050919050565b82818337600083830152505050565b6000612f5f612f5a84612f0c565b612ee7565b905082815260208101848484011115612f7b57612f7a612f07565b5b612f86848285612f3d565b509392505050565b600082601f830112612fa357612fa261299e565b5b8135612fb3848260208601612f4c565b91505092915050565b612fc581612ae9565b8114612fd057600080fd5b50565b600081359050612fe281612fbc565b92915050565b60058110612ff557600080fd5b50565b60008135905061300781612fe8565b92915050565b61301681612b79565b811461302157600080fd5b50565b6000813590506130338161300d565b92915050565b600061010082840312156130505761304f612e82565b5b61305b610100612ee7565b9050600082013567ffffffffffffffff81111561307b5761307a612f02565b5b61308784828501612f8e565b600083015250602082013567ffffffffffffffff8111156130ab576130aa612f02565b5b6130b784828501612f8e565b60208301525060406130cb84828501612fd3565b604083015250606082013567ffffffffffffffff8111156130ef576130ee612f02565b5b6130fb84828501612f8e565b606083015250608061310f84828501612ff8565b60808301525060a061312384828501612fd3565b60a08301525060c061313784828501612fd3565b60c08301525060e061314b84828501613024565b60e08301525092915050565b60006020828403121561316d5761316c612994565b5b600082013567ffffffffffffffff81111561318b5761318a612999565b5b61319784828501613039565b91505092915050565b600073ffffffffffffffffffffffffffffffffffffffff82169050919050565b60006131cb826131a0565b9050919050565b6131db816131c0565b82525050565b60006020820190506131f660008301846131d2565b92915050565b600081905092915050565b600061321383856131fc565b9350613220838584612f3d565b82840190509392505050565b6000613239828486613207565b91508190509392505050565b7f4e487b7100000000000000000000000000000000000000000000000000000000600052602260045260246000fd5b6000600282049050600182168061328c57607f821691505b602082108114156132a05761329f613245565b5b50919050565b600082825260208201905092915050565b60006132c282612a50565b6132cc81856132a6565b93506132dc818560208601612a6c565b6132e581612a9f565b840191505092915050565b50565b60006133006000836132a6565b915061330b826132f0565b600082019050919050565b6000604082019050818103600083015261333081846132b7565b90508181036020830152613343816132f3565b905092915050565b60008151905061335a8161300d565b92915050565b60006020828403121561337657613375612994565b5b60006133848482850161334b565b91505092915050565b7f4974656d206e616d652063616e206e6f74206c6561766520626c616e6b2e0000600082015250565b60006133c3601e83612c74565b91506133ce8261338d565b602082019050919050565b600060208201905081810360008301526133f2816133b6565b9050919050565b7f4974656d2070726963652063616e206e6f74206c6f776572207468656e20302e600082015250565b600061342f602083612c74565b915061343a826133f9565b602082019050919050565b6000602082019050818103600083015261345e81613422565b9050919050565b7f7500000000000000000000000000000000000000000000000000000000000000600082015250565b600061349b6001836132a6565b91506134a682613465565b602082019050919050565b600060408201905081810360008301526134cb81846132b7565b905081810360208301526134de8161348e565b905092915050565b7f6400000000000000000000000000000000000000000000000000000000000000600082015250565b600061351c6001836132a6565b9150613527826134e6565b602082019050919050565b6000604082019050818103600083015261354c81846132b7565b9050818103602083015261355f8161350f565b905092915050565b600061357282612a50565b61357c81856131fc565b935061358c818560208601612a6c565b80840191505092915050565b60006135a48284613567565b915081905092915050565b7f54686973206973206e6f7420796f7572206974656d206f72206974656d206e7560008201527f6d6265722069732077726f6e672e000000000000000000000000000000000000602082015250565b600061360b602e83612c74565b9150613616826135af565b604082019050919050565b6000602082019050818103600083015261363a816135fe565b9050919050565b7f6200000000000000000000000000000000000000000000000000000000000000600082015250565b60006136776001836132a6565b915061368282613641565b602082019050919050565b600060408201905081810360008301526136a781846132b7565b905081810360208301526136ba8161366a565b905092915050565b7f4974656d206e756d62657220697320626c616e6b000000000000000000000000600082015250565b60006136f8601483612c74565b9150613703826136c2565b602082019050919050565b60006020820190508181036000830152613727816136eb565b9050919050565b7f4974656d206973206c6f636b65642c206f706572617465206c617465722e0000600082015250565b6000613764601e83612c74565b915061376f8261372e565b602082019050919050565b6000602082019050818103600083015261379381613757565b9050919050565b7f4e487b7100000000000000000000000000000000000000000000000000000000600052603260045260246000fd5b7f6974656d00000000000000000000000000000000000000000000000000000000600082015250565b60006137ff6004836132a6565b915061380a826137c9565b602082019050919050565b61381e81612b79565b82525050565b6000606082019050818103600083015261383d816137f2565b9050818103602083015261385181856132b7565b90506138606040830184613815565b9392505050565b600061387a61387584612f0c565b612ee7565b90508281526020810184848401111561389657613895612f07565b5b6138a1848285612a6c565b509392505050565b600082601f8301126138be576138bd61299e565b5b81516138ce848260208601613867565b91505092915050565b6000602082840312156138ed576138ec612994565b5b600082015167ffffffffffffffff81111561390b5761390a612999565b5b613917848285016138a9565b91505092915050565b7f4e487b7100000000000000000000000000000000000000000000000000000000600052601160045260246000fd5b600061395a82612ae9565b91507fffffffffffffffffffffffffffffffffffffffffffffffffffffffffffffffff82141561398d5761398c613920565b5b600182019050919050565b7f4e487b7100000000000000000000000000000000000000000000000000000000600052601260045260246000fd5b60006139d282612ae9565b91506139dd83612ae9565b9250826139ed576139ec613998565b5b828204905092915050565b6000613a0382612ae9565b9150613a0e83612ae9565b925082821015613a2157613a20613920565b5b828203905092915050565b6000613a3782612ae9565b9150613a4283612ae9565b925082613a5257613a51613998565b5b828206905092915050565b6000613a6882612ae9565b9150613a7383612ae9565b9250827fffffffffffffffffffffffffffffffffffffffffffffffffffffffffffffffff03821115613aa857613aa7613920565b5b82820190509291505056fea26469706673582212203699eb31073ff336f0ca833a49dae1240862baee86cb82b3e07d1eaa33ea9efb64736f6c634300080c0033",
  "immutableReferences": {},
  "source": "// SPDX-License-Identifier: UNLICENSED\r\npragma solidity >= 0.8.0;\r\n\r\nimport \"./helper/Stringhelper.sol\";\r\nimport \"@openzeppelin/contracts/utils/Strings.sol\";\r\n\r\ncontract Item{\r\n\r\n    using Stringhelper for string;\r\n\r\n    enum itemStatus {\r\n        open, // 0\r\n        pedding, // 1\r\n        sold, // 2\r\n        close, // 3\r\n        del //4\r\n    }\r\n    // [\"item1649255614\",\"Name 1\",30000000000,\"\",\"0\",0,\"0\",false]\r\n    // [\"\",\"Name 2\",1000000000000000000,\"\",\"0\",0,\"0\",false]\r\n    struct itemInfo {\r\n        string itemNo;\r\n        string name;\r\n        uint256 price; //wei\r\n        string pic;\r\n        itemStatus status;\r\n        uint itemsArraySeq;\r\n        uint myItemsMapSeq;\r\n        bool isLocked;\r\n    }\r\n\r\n    // Get all items\r\n    itemInfo[] internal itemsArray;\r\n\r\n    // Get one item and locked status chk\r\n    // itemNo => itemInfo\r\n    mapping(string => itemInfo) internal itemNoMap;\r\n\r\n    // Auth or get item owner address for selling\r\n    // itemNo => item owner\r\n    mapping(string => address) internal itemOwnerMap;\r\n\r\n    // Get my all items\r\n    mapping(address => itemInfo[]) internal myItemsMap;\r\n\r\n    // EVENT (owner, itemInfo)\r\n    event createItemEvent(address indexed, itemInfo);\r\n    event modifyItemEvent(address indexed, itemInfo);\r\n\r\n    // c:create, u:update, d:delete, b:buy, ut:afterTx\r\n    modifier basicCheck(itemInfo memory item, string memory method){\r\n        require(item.name.stringCompare(\"\") == false, \"Item name can not leave blank.\");\r\n        require(item.price > 0, \"Item price can not lower then 0.\");\r\n\r\n        if(method.stringCompare(\"u\") || method.stringCompare(\"d\")){\r\n            require(itemOwnerMap[item.itemNo] == msg.sender, \"This is not your item or item number is wrong.\");\r\n        }\r\n\r\n        if(method.stringCompare(\"u\") || method.stringCompare(\"d\") || method.stringCompare(\"b\")){\r\n            require(item.itemNo.stringCompare(\"\") == false, \"Item number is blank\");\r\n            require(itemNoMap[item.itemNo].isLocked == false, \"Item is locked, operate later.\");\r\n            itemNoMap[item.itemNo].isLocked = true;\r\n        }\r\n\r\n        _;\r\n\r\n        itemNoMap[item.itemNo].isLocked = false;\r\n    }\r\n\r\n    function hello() virtual public pure returns(string memory returnStr) {\r\n        returnStr = \"Hello, this is item contract!\";\r\n    }\r\n\r\n    function getAllItems() public view returns(itemInfo[] memory) {\r\n        return itemsArray;\r\n    }\r\n\r\n    function getOneItem(string calldata itemNo) public view returns(itemInfo memory) {\r\n        return itemNoMap[itemNo];\r\n    }\r\n\r\n    function getItemOwner(string calldata itemNo) public view returns(address) {\r\n        return itemOwnerMap[itemNo];\r\n    }\r\n\r\n    function getMyItems() public view returns(itemInfo[] memory) {\r\n        return myItemsMap[msg.sender];\r\n    }\r\n\r\n    function createItem(itemInfo memory item) public basicCheck(item, \"c\") {\r\n        \r\n        // generate item_no\r\n        string memory itemNo = Stringhelper.concate(\"item\", Strings.toString(block.timestamp), false);\r\n\r\n        item.itemNo = itemNo;\r\n        item.itemsArraySeq = itemsArray.length;\r\n        item.myItemsMapSeq = myItemsMap[msg.sender].length;\r\n        item.isLocked = false;\r\n\r\n        // create\r\n        emit createItemEvent(msg.sender, item);\r\n\r\n        itemsArray.push(item);\r\n        itemNoMap[itemNo] = item;\r\n        itemOwnerMap[itemNo] = msg.sender;\r\n        myItemsMap[msg.sender].push(item);\r\n    }\r\n\r\n    function updateItem(itemInfo memory item) public basicCheck(item, \"u\") {\r\n        emit modifyItemEvent(msg.sender, item);\r\n        uint itemsArraySeq = itemNoMap[item.itemNo].itemsArraySeq;\r\n        uint myItemsMapSeq = itemNoMap[item.itemNo].myItemsMapSeq;\r\n\r\n        itemsArray[itemsArraySeq].name = item.name;\r\n        itemsArray[itemsArraySeq].price = item.price;\r\n        itemsArray[itemsArraySeq].pic = item.pic;\r\n        itemsArray[itemsArraySeq].status = item.status;\r\n\r\n        itemNoMap[item.itemNo].name = item.name;\r\n        itemNoMap[item.itemNo].price = item.price;\r\n        itemNoMap[item.itemNo].pic = item.pic;\r\n        itemNoMap[item.itemNo].status = item.status;\r\n\r\n        myItemsMap[msg.sender][myItemsMapSeq].name = item.name;\r\n        myItemsMap[msg.sender][myItemsMapSeq].price = item.price;\r\n        myItemsMap[msg.sender][myItemsMapSeq].pic = item.pic;\r\n        myItemsMap[msg.sender][myItemsMapSeq].status = item.status;\r\n    }\r\n\r\n    function deleteItem(itemInfo memory item) public basicCheck(item, \"d\") {\r\n        emit modifyItemEvent(msg.sender, item);\r\n\r\n        itemsArray[item.itemsArraySeq].status = itemStatus.del;\r\n        \r\n        itemNoMap[item.itemNo].status = itemStatus.del;\r\n        \r\n        myItemsMap[msg.sender][item.myItemsMapSeq].status = itemStatus.del;\r\n    }\r\n}",
  "sourcePath": "C:\\Project\\simpleshop\\contracts\\Item.sol",
  "compiler": {
    "name": "solc",
    "version": "0.8.12+commit.f00d7308.Emscripten.clang"
  },
  "schemaVersion": "3.4.6",
  "updatedAt": "2022-04-10T12:51:58.775Z",
  "networkType": "ethereum",
  "devdoc": {
    "kind": "dev",
    "methods": {},
    "version": 1
  },
  "userdoc": {
    "kind": "user",
    "methods": {},
    "version": 1
  }
}