{
  "contractName": "Owner",
  "abi": [
    {
      "inputs": [],
      "stateMutability": "nonpayable",
      "type": "constructor"
    },
    {
      "inputs": [],
      "name": "owner",
      "outputs": [
        {
          "internalType": "address",
          "name": "",
          "type": "address"
        }
      ],
      "stateMutability": "view",
      "type": "function",
      "constant": true
    },
    {
      "inputs": [],
      "name": "transctionFee",
      "outputs": [
        {
          "internalType": "uint256",
          "name": "",
          "type": "uint256"
        }
      ],
      "stateMutability": "view",
      "type": "function",
      "constant": true
    },
    {
      "inputs": [
        {
          "internalType": "uint256",
          "name": "fee",
          "type": "uint256"
        }
      ],
      "name": "setTransactionFee",
      "outputs": [],
      "stateMutability": "nonpayable",
      "type": "function"
    },
    {
      "inputs": [],
      "name": "withdraw",
      "outputs": [],
      "stateMutability": "payable",
      "type": "function",
      "payable": true
    },
    {
      "inputs": [],
      "name": "contribute",
      "outputs": [],
      "stateMutability": "payable",
      "type": "function",
      "payable": true
    },
    {
      "inputs": [],
      "name": "chkBalance",
      "outputs": [
        {
          "internalType": "uint256",
          "name": "",
          "type": "uint256"
        }
      ],
      "stateMutability": "view",
      "type": "function",
      "constant": true
    }
  ],
  "bytecode": "0x608060405234801561001057600080fd5b50336000806101000a81548173ffffffffffffffffffffffffffffffffffffffff021916908373ffffffffffffffffffffffffffffffffffffffff1602179055506106fe806100606000396000f3fe6080604052600436106100555760003560e01c8063096a8ab71461005a5780633ccfd60b146100835780638da5cb5b1461008d578063d7bb99ba146100b8578063d9dcef6e146100c2578063fa7a3bb5146100ed575b600080fd5b34801561006657600080fd5b50610081600480360381019061007c9190610461565b610118565b005b61008b6101b0565b005b34801561009957600080fd5b506100a261030e565b6040516100af91906104cf565b60405180910390f35b6100c0610332565b005b3480156100ce57600080fd5b506100d761038a565b6040516100e491906104f9565b60405180910390f35b3480156100f957600080fd5b50610102610420565b60405161010f91906104f9565b60405180910390f35b3373ffffffffffffffffffffffffffffffffffffffff1660008054906101000a900473ffffffffffffffffffffffffffffffffffffffff1673ffffffffffffffffffffffffffffffffffffffff16146101a6576040517f08c379a000000000000000000000000000000000000000000000000000000000815260040161019d90610571565b60405180910390fd5b8060018190555050565b3373ffffffffffffffffffffffffffffffffffffffff1660008054906101000a900473ffffffffffffffffffffffffffffffffffffffff1673ffffffffffffffffffffffffffffffffffffffff161461023e576040517f08c379a000000000000000000000000000000000000000000000000000000000815260040161023590610571565b60405180910390fd5b60008060009054906101000a900473ffffffffffffffffffffffffffffffffffffffff1673ffffffffffffffffffffffffffffffffffffffff1647604051610285906105c2565b60006040518083038185875af1925050503d80600081146102c2576040519150601f19603f3d011682016040523d82523d6000602084013e6102c7565b606091505b505090508061030b576040517f08c379a000000000000000000000000000000000000000000000000000000000815260040161030290610623565b60405180910390fd5b50565b60008054906101000a900473ffffffffffffffffffffffffffffffffffffffff1681565b34600260003373ffffffffffffffffffffffffffffffffffffffff1673ffffffffffffffffffffffffffffffffffffffff16815260200190815260200160002060008282546103819190610672565b92505081905550565b60003373ffffffffffffffffffffffffffffffffffffffff1660008054906101000a900473ffffffffffffffffffffffffffffffffffffffff1673ffffffffffffffffffffffffffffffffffffffff161461041a576040517f08c379a000000000000000000000000000000000000000000000000000000000815260040161041190610571565b60405180910390fd5b47905090565b60015481565b600080fd5b6000819050919050565b61043e8161042b565b811461044957600080fd5b50565b60008135905061045b81610435565b92915050565b60006020828403121561047757610476610426565b5b60006104858482850161044c565b91505092915050565b600073ffffffffffffffffffffffffffffffffffffffff82169050919050565b60006104b98261048e565b9050919050565b6104c9816104ae565b82525050565b60006020820190506104e460008301846104c0565b92915050565b6104f38161042b565b82525050565b600060208201905061050e60008301846104ea565b92915050565b600082825260208201905092915050565b7f4f776e6572206f6e6c792e000000000000000000000000000000000000000000600082015250565b600061055b600b83610514565b915061056682610525565b602082019050919050565b6000602082019050818103600083015261058a8161054e565b9050919050565b600081905092915050565b50565b60006105ac600083610591565b91506105b78261059c565b600082019050919050565b60006105cd8261059f565b9150819050919050565b7f4661696c656420746f2073656e64204574686572000000000000000000000000600082015250565b600061060d601483610514565b9150610618826105d7565b602082019050919050565b6000602082019050818103600083015261063c81610600565b9050919050565b7f4e487b7100000000000000000000000000000000000000000000000000000000600052601160045260246000fd5b600061067d8261042b565b91506106888361042b565b9250827fffffffffffffffffffffffffffffffffffffffffffffffffffffffffffffffff038211156106bd576106bc610643565b5b82820190509291505056fea264697066735822122054fec3da6619c82b863282f0d85925ed4e53325586cbc5b270ac3617b02b738f64736f6c634300080c0033",
  "immutableReferences": {},
  "source": "// SPDX-License-Identifier: UNLICENSED\r\npragma solidity >= 0.8.0;\r\n\r\ncontract Owner {\r\n\r\n    address public owner;\r\n    uint public transctionFee;\r\n    mapping (address=> uint) contributeMap;\r\n\r\n    constructor(){\r\n        owner = msg.sender;\r\n    }\r\n\r\n    modifier onlyOwner{\r\n        require(owner == msg.sender, \"Owner only.\");\r\n        _;\r\n    }\r\n\r\n    function setTransactionFee(uint fee) public onlyOwner{\r\n        transctionFee = fee;\r\n    }\r\n    \r\n    function withdraw() public payable onlyOwner{\r\n        (bool success, ) = owner.call{value: address(this).balance}(\"\");\r\n        require(success, \"Failed to send Ether\");\r\n    }\r\n\r\n    function contribute() public payable{\r\n        contributeMap[msg.sender] += msg.value;\r\n    }\r\n\r\n    function chkBalance() public view onlyOwner returns(uint) {\r\n        return address(this).balance;\r\n    }\r\n    \r\n}",
  "sourcePath": "C:\\Project\\simpleshop\\contract\\contracts\\Owner.sol",
  "compiler": {
    "name": "solc",
    "version": "0.8.12+commit.f00d7308.Emscripten.clang"
  },
  "schemaVersion": "3.4.6",
  "updatedAt": "2022-04-11T12:29:03.681Z",
  "networkType": "ethereum",
  "devdoc": {
    "kind": "dev",
    "methods": {},
    "version": 1
  },
  "userdoc": {
    "kind": "user",
    "methods": {},
    "version": 1
  }
}