{
  "contractName": "Simpleshop",
  "abi": [
    {
      "inputs": [],
      "name": "wordStr",
      "outputs": [
        {
          "internalType": "string",
          "name": "",
          "type": "string"
        }
      ],
      "stateMutability": "view",
      "type": "function"
    },
    {
      "inputs": [
        {
          "internalType": "string",
          "name": "str",
          "type": "string"
        }
      ],
      "name": "setWord",
      "outputs": [],
      "stateMutability": "nonpayable",
      "type": "function"
    }
  ],
  "bytecode": "0x60806040526040518060400160405280600c81526020017f48656c6c6f20576f726c642100000000000000000000000000000000000000008152506000908051906020019061004f929190610062565b5034801561005c57600080fd5b50610166565b82805461006e90610134565b90600052602060002090601f01602090048101928261009057600085556100d7565b82601f106100a957805160ff19168380011785556100d7565b828001600101855582156100d7579182015b828111156100d65782518255916020019190600101906100bb565b5b5090506100e491906100e8565b5090565b5b808211156101015760008160009055506001016100e9565b5090565b7f4e487b7100000000000000000000000000000000000000000000000000000000600052602260045260246000fd5b6000600282049050600182168061014c57607f821691505b602082108114156101605761015f610105565b5b50919050565b6103ca806101756000396000f3fe608060405234801561001057600080fd5b50600436106100365760003560e01c8063820bfbf21461003b578063cd048de614610059575b600080fd5b610043610075565b6040516100509190610255565b60405180910390f35b610073600480360381019061006e91906102e6565b610103565b005b6000805461008290610362565b80601f01602080910402602001604051908101604052809291908181526020018280546100ae90610362565b80156100fb5780601f106100d0576101008083540402835291602001916100fb565b820191906000526020600020905b8154815290600101906020018083116100de57829003601f168201915b505050505081565b818160009190610114929190610119565b505050565b82805461012590610362565b90600052602060002090601f016020900481019282610147576000855561018e565b82601f1061016057803560ff191683800117855561018e565b8280016001018555821561018e579182015b8281111561018d578235825591602001919060010190610172565b5b50905061019b919061019f565b5090565b5b808211156101b85760008160009055506001016101a0565b5090565b600081519050919050565b600082825260208201905092915050565b60005b838110156101f65780820151818401526020810190506101db565b83811115610205576000848401525b50505050565b6000601f19601f8301169050919050565b6000610227826101bc565b61023181856101c7565b93506102418185602086016101d8565b61024a8161020b565b840191505092915050565b6000602082019050818103600083015261026f818461021c565b905092915050565b600080fd5b600080fd5b600080fd5b600080fd5b600080fd5b60008083601f8401126102a6576102a5610281565b5b8235905067ffffffffffffffff8111156102c3576102c2610286565b5b6020830191508360018202830111156102df576102de61028b565b5b9250929050565b600080602083850312156102fd576102fc610277565b5b600083013567ffffffffffffffff81111561031b5761031a61027c565b5b61032785828601610290565b92509250509250929050565b7f4e487b7100000000000000000000000000000000000000000000000000000000600052602260045260246000fd5b6000600282049050600182168061037a57607f821691505b6020821081141561038e5761038d610333565b5b5091905056fea2646970667358221220e0867fd86ed3afee46f1df3b599b40a3a5adfa7654593b7bf6d25c9448b832e964736f6c634300080c0033",
  "immutableReferences": {},
  "source": "// SPDX-License-Identifier: UNLICENSED\r\npragma solidity >= 0.8 .0;\r\n\r\ncontract Simpleshop {\r\n\r\n    string public wordStr = \"Hello World!\";\r\n\r\n    function setWord(string calldata str) public {\r\n        wordStr = str;\r\n    }\r\n}",
  "sourcePath": "C:\\Project\\simpleshop\\contracts\\Simpleshop.sol",
  "compiler": {
    "name": "solc",
    "version": "0.8.12+commit.f00d7308.Emscripten.clang"
  },
  "schemaVersion": "3.4.6",
  "updatedAt": "2022-04-10T12:49:23.294Z",
  "devdoc": {
    "kind": "dev",
    "methods": {},
    "version": 1
  },
  "userdoc": {
    "kind": "user",
    "methods": {},
    "version": 1
  }
}