{
  "contractName": "Stringhelper",
  "abi": [
    {
      "inputs": [
        {
          "internalType": "string",
          "name": "a",
          "type": "string"
        },
        {
          "internalType": "string",
          "name": "b",
          "type": "string"
        }
      ],
      "name": "stringCompare",
      "outputs": [
        {
          "internalType": "bool",
          "name": "",
          "type": "bool"
        }
      ],
      "stateMutability": "pure",
      "type": "function",
      "constant": true
    },
    {
      "inputs": [
        {
          "internalType": "string",
          "name": "a",
          "type": "string"
        },
        {
          "internalType": "string",
          "name": "b",
          "type": "string"
        },
        {
          "internalType": "bool",
          "name": "hasBlank",
          "type": "bool"
        }
      ],
      "name": "concate",
      "outputs": [
        {
          "internalType": "string",
          "name": "",
          "type": "string"
        }
      ],
      "stateMutability": "pure",
      "type": "function",
      "constant": true
    }
  ],
  "bytecode": "0x6105ad610053600b82828239805160001a607314610046577f4e487b7100000000000000000000000000000000000000000000000000000000600052600060045260246000fd5b30600052607381538281f3fe73000000000000000000000000000000000000000030146080604052600436106100405760003560e01c806360353db91461004557806366a4391614610075575b600080fd5b61005f600480360381019061005a919061028d565b6100a5565b60405161006c9190610320565b60405180910390f35b61008f600480360381019061008a9190610367565b6100d1565b60405161009c919061047a565b60405180910390f35b60008180519060200120838051906020012014156100c657600190506100cb565b600090505b92915050565b60608082156101035784846040516020016100ed929190610524565b6040516020818303038152906040529050610128565b8484604051602001610116929190610553565b60405160208183030381529060405290505b809150509392505050565b6000604051905090565b600080fd5b600080fd5b600080fd5b600080fd5b6000601f19601f8301169050919050565b7f4e487b7100000000000000000000000000000000000000000000000000000000600052604160045260246000fd5b61019a82610151565b810181811067ffffffffffffffff821117156101b9576101b8610162565b5b80604052505050565b60006101cc610133565b90506101d88282610191565b919050565b600067ffffffffffffffff8211156101f8576101f7610162565b5b61020182610151565b9050602081019050919050565b82818337600083830152505050565b600061023061022b846101dd565b6101c2565b90508281526020810184848401111561024c5761024b61014c565b5b61025784828561020e565b509392505050565b600082601f83011261027457610273610147565b5b813561028484826020860161021d565b91505092915050565b600080604083850312156102a4576102a361013d565b5b600083013567ffffffffffffffff8111156102c2576102c1610142565b5b6102ce8582860161025f565b925050602083013567ffffffffffffffff8111156102ef576102ee610142565b5b6102fb8582860161025f565b9150509250929050565b60008115159050919050565b61031a81610305565b82525050565b60006020820190506103356000830184610311565b92915050565b61034481610305565b811461034f57600080fd5b50565b6000813590506103618161033b565b92915050565b6000806000606084860312156103805761037f61013d565b5b600084013567ffffffffffffffff81111561039e5761039d610142565b5b6103aa8682870161025f565b935050602084013567ffffffffffffffff8111156103cb576103ca610142565b5b6103d78682870161025f565b92505060406103e886828701610352565b9150509250925092565b600081519050919050565b600082825260208201905092915050565b60005b8381101561042c578082015181840152602081019050610411565b8381111561043b576000848401525b50505050565b600061044c826103f2565b61045681856103fd565b935061046681856020860161040e565b61046f81610151565b840191505092915050565b600060208201905081810360008301526104948184610441565b905092915050565b600081905092915050565b60006104b2826103f2565b6104bc818561049c565b93506104cc81856020860161040e565b80840191505092915050565b7f2000000000000000000000000000000000000000000000000000000000000000600082015250565b600061050e60018361049c565b9150610519826104d8565b600182019050919050565b600061053082856104a7565b915061053b82610501565b915061054782846104a7565b91508190509392505050565b600061055f82856104a7565b915061056b82846104a7565b9150819050939250505056fea26469706673582212204abda3a3c9d80e69ea89d0afeb422361dfc9a8108b88f19592670698471ba85d64736f6c634300080c0033",
  "immutableReferences": {},
  "source": "// SPDX-License-Identifier: UNLICENSED\r\npragma solidity >= 0.8.0;\r\n\r\nlibrary Stringhelper {\r\n    function stringCompare(string memory a, string memory b) public pure returns(bool) {\r\n        if (keccak256(bytes(a)) == keccak256(bytes(b)))\r\n            return true;\r\n        else\r\n            return false;\r\n    }\r\n\r\n    function concate(string memory a, string memory b, bool hasBlank) public pure returns(string memory) {\r\n        string memory ans;\r\n        if (hasBlank)\r\n            ans = string(abi.encodePacked(a, \" \", b));\r\n        else\r\n            ans = string(abi.encodePacked(a, b));\r\n        return ans;\r\n    }\r\n    \r\n}",
  "sourcePath": "C:\\Project\\simpleshop\\contracts\\helper\\Stringhelper.sol",
  "compiler": {
    "name": "solc",
    "version": "0.8.12+commit.f00d7308.Emscripten.clang"
  },
  "schemaVersion": "3.4.6",
  "updatedAt": "2022-04-10T12:51:58.720Z",
  "networkType": "ethereum",
  "devdoc": {
    "kind": "dev",
    "methods": {},
    "version": 1
  },
  "userdoc": {
    "kind": "user",
    "methods": {},
    "version": 1
  }
}